{
	"data": {
		"bytecode": {
			"linkReferences": {},
			"object": "6080604052348015600e575f5ffd5b506119768061001c5f395ff3fe608060405234801561000f575f5ffd5b506004361061009c575f3560e01c806376e9a0381161006457806376e9a0381461010e5780639c3bdba514610118578063d28b2ce714610122578063e76756351461012c578063ed93ed851461014a5761009c565b806321008841146100a057806338e59837146100be5780634332be3d146100c85780636853005d146100e6578063720221f814610104575b5f5ffd5b6100a8610154565b6040516100b5919061169c565b60405180910390f35b6100c661020a565b005b6100d0610224565b6040516100dd919061171c565b60405180910390f35b6100ee610295565b6040516100fb9190611744565b60405180910390f35b61010c6102b3565b005b6101166102cd565b005b6101206102e7565b005b61012a610301565b005b610134610321565b6040516101419190611744565b60405180910390f35b61015261033f565b005b61015c6114bd565b61016461033f565b61016c610359565b815f01818152505061017c610362565b81602001818152505061018d61036c565b81604001818152505061019e610376565b8160600181815250506101af610380565b816080019061ffff16908161ffff16815250506101ca61038d565b8160a00181815250506101db610397565b8160c00181815250506101ec6103a1565b8160e00181815250506101fd6103aa565b8161010001818152505090565b6102126103b3565b5f61021b6103a1565b90505f815fa150565b61022c611504565b610234610456565b61023c610359565b815f01818152505061024c610362565b81602001818152505061025d61036c565b81604001818152505061026e610376565b81606001818152505061027f610380565b816080019061ffff16908161ffff168152505090565b5f61029e6107e8565b90505f6102a96103a1565b90505f815fa15090565b6102bb6108d6565b5f6102c46103a1565b90505f815fa150565b6102d561090d565b5f6102de6103a1565b90505f815fa150565b6102ef610a87565b5f6102f86103a1565b90505f815fa150565b610309610aa7565b5f6103126103aa565b90505f60208260a401015fa150565b5f61032a610c3c565b90505f6103356103a1565b90505f815fa15090565b610347610456565b5f6103506103a1565b90505f815fa150565b5f60d851905090565b5f61012851905090565b5f61014851905090565b5f61010851905090565b5f6106535160f01c905090565b5f61060f51905090565b5f61062f51905090565b5f604051905090565b5f60a451905090565b6103bc33610ff1565b5f60043590506103cb81611005565b5f60243590506103e1816580000000000061100c565b8190610423576040517f1f84bbb300000000000000000000000000000000000000000000000000000000815260040161041a919061176c565b60405180910390fd5b5061042d81611020565b505f602060a46108080303905061044381611036565b61045261080861ffff1661103d565b5050565b61045f33610ff1565b5f600435905061046e81611005565b5f61048961047b83611044565b678000000000000000611058565b90505f602435905061049a81611064565b5f6104a58284611058565b90506104b1815f61106c565b82906104f3576040517f42d011680000000000000000000000000000000000000000000000000000000081526004016104ea9190611794565b60405180910390fd5b506105078168010000000000000000611078565b8290610549576040517f42d011680000000000000000000000000000000000000000000000000000000081526004016105409190611794565b60405180910390fd5b5061055381611084565b5f604435905061056281611098565b5f61056d8286611058565b9050610579815f61106c565b82906105bb576040517f42d011680000000000000000000000000000000000000000000000000000000081526004016105b29190611794565b60405180910390fd5b506105cf8168010000000000000000611078565b8290610611576040517f42d011680000000000000000000000000000000000000000000000000000000081526004016106089190611794565b60405180910390fd5b5061061b816110a0565b5050505050505f60643590506f7fffffffffffffffffffffffffffffff600f0b8113158190610680576040517fc270deb300000000000000000000000000000000000000000000000000000000815260040161067791906117bc565b60405180910390fd5b506f7fffffffffffffffffffffffffffffff5f61069d919061180e565b600f0b81121581906106e5576040517fc270deb30000000000000000000000000000000000000000000000000000000081526004016106dc91906117bc565b60405180910390fd5b505f811415819061072c576040517fc270deb300000000000000000000000000000000000000000000000000000000815260040161072391906117bc565b60405180910390fd5b50610736816110b6565b505f5f5f5f5f60843560040161080895506020610808019450803593508385019150602060a483030392508360208201863750610772856110be565b61077b846110c6565b61ffff801683111583906107c5576040517f805cfd4b0000000000000000000000000000000000000000000000000000000081526004016107bc9190611884565b60405180910390fd5b506107cf836110ce565b6107d882611036565b6107e18161103d565b5050505050565b5f6107f233610ff1565b5f600435905061080181611005565b5f5f5f60243560040191506108089250813560051b90506005810460051b8301945061082c836110e4565b5f5f5f5f604435600401858a019450803593508385019150602060a4830303925085602088018b378360208201863750610865846110c6565b61ffff801683111583906108af576040517f805cfd4b0000000000000000000000000000000000000000000000000000000081526004016108a69190611884565b60405180910390fd5b506108b9836110ce565b6108c282611036565b6108cb8161103d565b505050505050505090565b5f60043590506108e581611005565b5f602060a4610808030390506108fa81611036565b61090961080861ffff1661103d565b5050565b61091633610ff1565b5f600435905061092581611005565b505f60243590506f7fffffffffffffffffffffffffffffff600f0b8113158190610985576040517fc270deb300000000000000000000000000000000000000000000000000000000815260040161097c91906117bc565b60405180910390fd5b505f811381906109cb576040517fc270deb30000000000000000000000000000000000000000000000000000000081526004016109c291906117bc565b60405180910390fd5b506109d5816110b6565b505f5f5f5f5f60443560040161080895506020610808019450803593508385019150602060a483030392508360208201863750610a11856110be565b610a1a846110c6565b61ffff80168311158390610a64576040517f805cfd4b000000000000000000000000000000000000000000000000000000008152600401610a5b9190611884565b60405180910390fd5b50610a6e836110ce565b610a7782611036565b610a808161103d565b5050505050565b5f6004359050610a9681611005565b610aa460f861ffff1661103d565b50565b610ab033610ff1565b5f6004359050610abf81611005565b5f60243590506f7fffffffffffffffffffffffffffffff5f03811215610af5576f7fffffffffffffffffffffffffffffff5f0390505b6f7fffffffffffffffffffffffffffffff811315610b21576f7fffffffffffffffffffffffffffffff90505b6001607f1b81029050610b33816110ec565b5f6044359050610b42816110f4565b5f60643560801c90506f7fffffffffffffffffffffffffffffff811115610b77576f7fffffffffffffffffffffffffffffff90505b610b80816110fc565b60743560801c6002811115610b9457600290505b8061015053505f5f5f5f6084356004016108089350803592508284019450602060a486030391508260208201853750610bcc836110c6565b61ffff80168211158290610c16576040517f805cfd4b000000000000000000000000000000000000000000000000000000008152600401610c0d9190611884565b60405180910390fd5b50610c20826110ce565b610c2981611036565b610c32846110e4565b5050505050505050565b5f610c4633610ff1565b5f5f6004359050610c5681611110565b915050610c6281611005565b5f8103610c9b576040517f4e79178600000000000000000000000000000000000000000000000000000000815260040160405180910390fd5b5f610cad610ca88361112b565b61114e565b148190610cf0576040517fa3a300c7000000000000000000000000000000000000000000000000000000008152600401610ce79190611884565b60405180910390fd5b505f610cfb82611044565b9050610d1b816802d0000000000000005f610d16919061189d565b61106c565b8190610d5d576040517fa2ff8abd000000000000000000000000000000000000000000000000000000008152600401610d549190611794565b60405180910390fd5b50610d71816802d000000000000000611078565b8190610db3576040517fa2ff8abd000000000000000000000000000000000000000000000000000000008152600401610daa9190611794565b60405180910390fd5b50610dc5610dc082611158565b6111d1565b610ddf610dda610dd55f84611058565b611158565b6111d9565b50505f6024359050610df0816111e1565b5f6044359050610dff816111e9565b610e0981836111f1565b82829091610e4e576040517ffe92479c000000000000000000000000000000000000000000000000000000008152600401610e459291906118ec565b60405180910390fd5b505050505f6064359050610e68816580000000000061100c565b8190610eaa576040517f1f84bbb3000000000000000000000000000000000000000000000000000000008152600401610ea1919061176c565b60405180910390fd5b50610eb481611020565b505f5f5f60843560040191506108089250813560051b90506005810460051b83019350610ee0836110e4565b5f5f5f60a43560040191508387019250813560051b90506020811015610f32576040517f0a4912d800000000000000000000000000000000000000000000000000000000815260040160405180910390fd5b610f3b836110be565b5f5f5f5f60c4356004016008868901019450803593508385019150602060a483030392508860208b018d37856020880189378360208201863750610f7e846110c6565b61ffff80168311158390610fc8576040517f805cfd4b000000000000000000000000000000000000000000000000000000008152600401610fbf9190611884565b60405180910390fd5b50610fd2836110ce565b610fdb82611036565b610fe48161103d565b5050505050505050505090565b601460c4015160a01c8160601b1760c45250565b8060d85250565b5f61101783836111fd565b15905092915050565b60066107f4015160301c8160d01b176107f45250565b8060a45250565b8060405250565b5f8160b41c5f0b6001603b1b029050919050565b5f818303905092915050565b806101285250565b5f818313905092915050565b5f818312905092915050565b600860f8015160401c8160c01b1760f85250565b806101485250565b6008610100015160401c8160c01b176101005250565b806101085250565b8061060f5250565b8061062f5250565b6002610653015160101c8160f01b176106535250565b806105ef5250565b806101085250565b806101285250565b601060f8015160801c8160801b1760f85250565b5f3360601b5f528160145260345f2060bc1b82019050919050565b5f6f6890d047ad8c870137858a70716b2c6b601052815f5260305f209050919050565b5f81549050919050565b5f5f6111756111706802d00000000000000085611058565b611209565b90507fcf8e41e6c4d4aa5e9cc597c10cd32eacd30c44f750a8ffdb1a8863dd8f72f0a57f872db9e8ffa9e7d41f2aaf39897b91e4002e70fceed391471fad73d51503772d600160bf1b8309600160bf1b83020302915050919050565b806107205250565b806107405250565b806106e05250565b806107005250565b5f818311905092915050565b5f818311905092915050565b5f5f8290505f7f800000000000000000000000000000000000000000000000000000000000000060036025848502901b8161124757611246611913565b5b04019050609282901b915060026112838383037f40000000000000000000000000000000000000000000000000000000000000008585016114a1565b901b90508081025f198283090390508081025f198283090390508081025f198283090390508081025f198283090390508081025f198283090390508081025f198283090390508081025f198283090390508081025f198283090390508081025f198283090390508081025f198283090390508081025f198283090390508081025f198283090390508081025f198283090390508081025f198283090390508081025f198283090390508081025f198283090390508081025f198283090390508081025f198283090390508081025f198283090390508081025f198283090390508081025f198283090390508081025f198283090390508081025f198283090390508081025f198283090390508081025f198283090390508081025f198283090390508081025f198283090390508081025f198283090390508081025f198283090390508081025f198283090390508081025f198283090390508081025f198283090390508081025f198283090390508081025f198283090390508081025f198283090390508081025f198283090390508081025f198283090390508081025f198283090390508081025f198283090390508081025f198283090390508081025f198283090390508081025f198283090390508081025f198283090390508081025f198283090390508081025f198283090390508081025f198283090390508081025f198283090390508081025f198283090390508092505050919050565b5f60018203905080828486098203828587090890509392505050565b6040518061012001604052805f81526020015f81526020015f81526020015f81526020015f61ffff1681526020015f81526020015f81526020015f81526020015f81525090565b6040518060a001604052805f81526020015f81526020015f81526020015f81526020015f61ffff1681525090565b5f819050919050565b61154481611532565b82525050565b5f819050919050565b5f819050919050565b5f61157661157161156c8461154a565b611553565b61154a565b9050919050565b6115868161155c565b82525050565b6115958161154a565b82525050565b5f61ffff82169050919050565b6115b18161159b565b82525050565b5f6115d16115cc6115c784611532565b611553565b611532565b9050919050565b6115e1816115b7565b82525050565b61012082015f8201516115fc5f85018261153b565b50602082015161160f602085018261157d565b506040820151611622604085018261157d565b506060820151611635606085018261158c565b50608082015161164860808501826115a8565b5060a082015161165b60a08501826115d8565b5060c082015161166e60c085018261153b565b5060e082015161168160e085018261153b565b5061010082015161169661010085018261153b565b50505050565b5f610120820190506116b05f8301846115e7565b92915050565b60a082015f8201516116ca5f85018261153b565b5060208201516116dd602085018261157d565b5060408201516116f0604085018261157d565b506060820151611703606085018261158c565b50608082015161171660808501826115a8565b50505050565b5f60a08201905061172f5f8301846116b6565b92915050565b61173e816115b7565b82525050565b5f6020820190506117575f830184611735565b92915050565b611766816115b7565b82525050565b5f60208201905061177f5f83018461175d565b92915050565b61178e8161155c565b82525050565b5f6020820190506117a75f830184611785565b92915050565b6117b68161154a565b82525050565b5f6020820190506117cf5f8301846117ad565b92915050565b5f81600f0b9050919050565b7f4e487b71000000000000000000000000000000000000000000000000000000005f52601160045260245ffd5b5f611818826117d5565b9150611823836117d5565b925082820390506f7fffffffffffffffffffffffffffffff81137fffffffffffffffffffffffffffffffff800000000000000000000000000000008212171561186f5761186e6117e1565b5b92915050565b61187e81611532565b82525050565b5f6020820190506118975f830184611875565b92915050565b5f6118a78261154a565b91506118b28361154a565b925082820390508181125f8412168282135f8512151617156118d7576118d66117e1565b5b92915050565b6118e6816115b7565b82525050565b5f6040820190506118ff5f8301856118dd565b61190c60208301846118dd565b9392505050565b7f4e487b71000000000000000000000000000000000000000000000000000000005f52601260045260245ffdfea26469706673582212204518f30e01fc989aa4aaf2295d71adfd59f3eb6be64062bb5b0c120e891dcb6f64736f6c634300081c0033",
			"opcodes": "PUSH1 0x80 PUSH1 0x40 MSTORE CALLVALUE DUP1 ISZERO PUSH1 0xE JUMPI PUSH0 PUSH0 REVERT JUMPDEST POP PUSH2 0x1976 DUP1 PUSH2 0x1C PUSH0 CODECOPY PUSH0 RETURN INVALID PUSH1 0x80 PUSH1 0x40 MSTORE CALLVALUE DUP1 ISZERO PUSH2 0xF JUMPI PUSH0 PUSH0 REVERT JUMPDEST POP PUSH1 0x4 CALLDATASIZE LT PUSH2 0x9C JUMPI PUSH0 CALLDATALOAD PUSH1 0xE0 SHR DUP1 PUSH4 0x76E9A038 GT PUSH2 0x64 JUMPI DUP1 PUSH4 0x76E9A038 EQ PUSH2 0x10E JUMPI DUP1 PUSH4 0x9C3BDBA5 EQ PUSH2 0x118 JUMPI DUP1 PUSH4 0xD28B2CE7 EQ PUSH2 0x122 JUMPI DUP1 PUSH4 0xE7675635 EQ PUSH2 0x12C JUMPI DUP1 PUSH4 0xED93ED85 EQ PUSH2 0x14A JUMPI PUSH2 0x9C JUMP JUMPDEST DUP1 PUSH4 0x21008841 EQ PUSH2 0xA0 JUMPI DUP1 PUSH4 0x38E59837 EQ PUSH2 0xBE JUMPI DUP1 PUSH4 0x4332BE3D EQ PUSH2 0xC8 JUMPI DUP1 PUSH4 0x6853005D EQ PUSH2 0xE6 JUMPI DUP1 PUSH4 0x720221F8 EQ PUSH2 0x104 JUMPI JUMPDEST PUSH0 PUSH0 REVERT JUMPDEST PUSH2 0xA8 PUSH2 0x154 JUMP JUMPDEST PUSH1 0x40 MLOAD PUSH2 0xB5 SWAP2 SWAP1 PUSH2 0x169C JUMP JUMPDEST PUSH1 0x40 MLOAD DUP1 SWAP2 SUB SWAP1 RETURN JUMPDEST PUSH2 0xC6 PUSH2 0x20A JUMP JUMPDEST STOP JUMPDEST PUSH2 0xD0 PUSH2 0x224 JUMP JUMPDEST PUSH1 0x40 MLOAD PUSH2 0xDD SWAP2 SWAP1 PUSH2 0x171C JUMP JUMPDEST PUSH1 0x40 MLOAD DUP1 SWAP2 SUB SWAP1 RETURN JUMPDEST PUSH2 0xEE PUSH2 0x295 JUMP JUMPDEST PUSH1 0x40 MLOAD PUSH2 0xFB SWAP2 SWAP1 PUSH2 0x1744 JUMP JUMPDEST PUSH1 0x40 MLOAD DUP1 SWAP2 SUB SWAP1 RETURN JUMPDEST PUSH2 0x10C PUSH2 0x2B3 JUMP JUMPDEST STOP JUMPDEST PUSH2 0x116 PUSH2 0x2CD JUMP JUMPDEST STOP JUMPDEST PUSH2 0x120 PUSH2 0x2E7 JUMP JUMPDEST STOP JUMPDEST PUSH2 0x12A PUSH2 0x301 JUMP JUMPDEST STOP JUMPDEST PUSH2 0x134 PUSH2 0x321 JUMP JUMPDEST PUSH1 0x40 MLOAD PUSH2 0x141 SWAP2 SWAP1 PUSH2 0x1744 JUMP JUMPDEST PUSH1 0x40 MLOAD DUP1 SWAP2 SUB SWAP1 RETURN JUMPDEST PUSH2 0x152 PUSH2 0x33F JUMP JUMPDEST STOP JUMPDEST PUSH2 0x15C PUSH2 0x14BD JUMP JUMPDEST PUSH2 0x164 PUSH2 0x33F JUMP JUMPDEST PUSH2 0x16C PUSH2 0x359 JUMP JUMPDEST DUP2 PUSH0 ADD DUP2 DUP2 MSTORE POP POP PUSH2 0x17C PUSH2 0x362 JUMP JUMPDEST DUP2 PUSH1 0x20 ADD DUP2 DUP2 MSTORE POP POP PUSH2 0x18D PUSH2 0x36C JUMP JUMPDEST DUP2 PUSH1 0x40 ADD DUP2 DUP2 MSTORE POP POP PUSH2 0x19E PUSH2 0x376 JUMP JUMPDEST DUP2 PUSH1 0x60 ADD DUP2 DUP2 MSTORE POP POP PUSH2 0x1AF PUSH2 0x380 JUMP JUMPDEST DUP2 PUSH1 0x80 ADD SWAP1 PUSH2 0xFFFF AND SWAP1 DUP2 PUSH2 0xFFFF AND DUP2 MSTORE POP POP PUSH2 0x1CA PUSH2 0x38D JUMP JUMPDEST DUP2 PUSH1 0xA0 ADD DUP2 DUP2 MSTORE POP POP PUSH2 0x1DB PUSH2 0x397 JUMP JUMPDEST DUP2 PUSH1 0xC0 ADD DUP2 DUP2 MSTORE POP POP PUSH2 0x1EC PUSH2 0x3A1 JUMP JUMPDEST DUP2 PUSH1 0xE0 ADD DUP2 DUP2 MSTORE POP POP PUSH2 0x1FD PUSH2 0x3AA JUMP JUMPDEST DUP2 PUSH2 0x100 ADD DUP2 DUP2 MSTORE POP POP SWAP1 JUMP JUMPDEST PUSH2 0x212 PUSH2 0x3B3 JUMP JUMPDEST PUSH0 PUSH2 0x21B PUSH2 0x3A1 JUMP JUMPDEST SWAP1 POP PUSH0 DUP2 PUSH0 LOG1 POP JUMP JUMPDEST PUSH2 0x22C PUSH2 0x1504 JUMP JUMPDEST PUSH2 0x234 PUSH2 0x456 JUMP JUMPDEST PUSH2 0x23C PUSH2 0x359 JUMP JUMPDEST DUP2 PUSH0 ADD DUP2 DUP2 MSTORE POP POP PUSH2 0x24C PUSH2 0x362 JUMP JUMPDEST DUP2 PUSH1 0x20 ADD DUP2 DUP2 MSTORE POP POP PUSH2 0x25D PUSH2 0x36C JUMP JUMPDEST DUP2 PUSH1 0x40 ADD DUP2 DUP2 MSTORE POP POP PUSH2 0x26E PUSH2 0x376 JUMP JUMPDEST DUP2 PUSH1 0x60 ADD DUP2 DUP2 MSTORE POP POP PUSH2 0x27F PUSH2 0x380 JUMP JUMPDEST DUP2 PUSH1 0x80 ADD SWAP1 PUSH2 0xFFFF AND SWAP1 DUP2 PUSH2 0xFFFF AND DUP2 MSTORE POP POP SWAP1 JUMP JUMPDEST PUSH0 PUSH2 0x29E PUSH2 0x7E8 JUMP JUMPDEST SWAP1 POP PUSH0 PUSH2 0x2A9 PUSH2 0x3A1 JUMP JUMPDEST SWAP1 POP PUSH0 DUP2 PUSH0 LOG1 POP SWAP1 JUMP JUMPDEST PUSH2 0x2BB PUSH2 0x8D6 JUMP JUMPDEST PUSH0 PUSH2 0x2C4 PUSH2 0x3A1 JUMP JUMPDEST SWAP1 POP PUSH0 DUP2 PUSH0 LOG1 POP JUMP JUMPDEST PUSH2 0x2D5 PUSH2 0x90D JUMP JUMPDEST PUSH0 PUSH2 0x2DE PUSH2 0x3A1 JUMP JUMPDEST SWAP1 POP PUSH0 DUP2 PUSH0 LOG1 POP JUMP JUMPDEST PUSH2 0x2EF PUSH2 0xA87 JUMP JUMPDEST PUSH0 PUSH2 0x2F8 PUSH2 0x3A1 JUMP JUMPDEST SWAP1 POP PUSH0 DUP2 PUSH0 LOG1 POP JUMP JUMPDEST PUSH2 0x309 PUSH2 0xAA7 JUMP JUMPDEST PUSH0 PUSH2 0x312 PUSH2 0x3AA JUMP JUMPDEST SWAP1 POP PUSH0 PUSH1 0x20 DUP3 PUSH1 0xA4 ADD ADD PUSH0 LOG1 POP JUMP JUMPDEST PUSH0 PUSH2 0x32A PUSH2 0xC3C JUMP JUMPDEST SWAP1 POP PUSH0 PUSH2 0x335 PUSH2 0x3A1 JUMP JUMPDEST SWAP1 POP PUSH0 DUP2 PUSH0 LOG1 POP SWAP1 JUMP JUMPDEST PUSH2 0x347 PUSH2 0x456 JUMP JUMPDEST PUSH0 PUSH2 0x350 PUSH2 0x3A1 JUMP JUMPDEST SWAP1 POP PUSH0 DUP2 PUSH0 LOG1 POP JUMP JUMPDEST PUSH0 PUSH1 0xD8 MLOAD SWAP1 POP SWAP1 JUMP JUMPDEST PUSH0 PUSH2 0x128 MLOAD SWAP1 POP SWAP1 JUMP JUMPDEST PUSH0 PUSH2 0x148 MLOAD SWAP1 POP SWAP1 JUMP JUMPDEST PUSH0 PUSH2 0x108 MLOAD SWAP1 POP SWAP1 JUMP JUMPDEST PUSH0 PUSH2 0x653 MLOAD PUSH1 0xF0 SHR SWAP1 POP SWAP1 JUMP JUMPDEST PUSH0 PUSH2 0x60F MLOAD SWAP1 POP SWAP1 JUMP JUMPDEST PUSH0 PUSH2 0x62F MLOAD SWAP1 POP SWAP1 JUMP JUMPDEST PUSH0 PUSH1 0x40 MLOAD SWAP1 POP SWAP1 JUMP JUMPDEST PUSH0 PUSH1 0xA4 MLOAD SWAP1 POP SWAP1 JUMP JUMPDEST PUSH2 0x3BC CALLER PUSH2 0xFF1 JUMP JUMPDEST PUSH0 PUSH1 0x4 CALLDATALOAD SWAP1 POP PUSH2 0x3CB DUP2 PUSH2 0x1005 JUMP JUMPDEST PUSH0 PUSH1 0x24 CALLDATALOAD SWAP1 POP PUSH2 0x3E1 DUP2 PUSH6 0x800000000000 PUSH2 0x100C JUMP JUMPDEST DUP2 SWAP1 PUSH2 0x423 JUMPI PUSH1 0x40 MLOAD PUSH32 0x1F84BBB300000000000000000000000000000000000000000000000000000000 DUP2 MSTORE PUSH1 0x4 ADD PUSH2 0x41A SWAP2 SWAP1 PUSH2 0x176C JUMP JUMPDEST PUSH1 0x40 MLOAD DUP1 SWAP2 SUB SWAP1 REVERT JUMPDEST POP PUSH2 0x42D DUP2 PUSH2 0x1020 JUMP JUMPDEST POP PUSH0 PUSH1 0x20 PUSH1 0xA4 PUSH2 0x808 SUB SUB SWAP1 POP PUSH2 0x443 DUP2 PUSH2 0x1036 JUMP JUMPDEST PUSH2 0x452 PUSH2 0x808 PUSH2 0xFFFF AND PUSH2 0x103D JUMP JUMPDEST POP POP JUMP JUMPDEST PUSH2 0x45F CALLER PUSH2 0xFF1 JUMP JUMPDEST PUSH0 PUSH1 0x4 CALLDATALOAD SWAP1 POP PUSH2 0x46E DUP2 PUSH2 0x1005 JUMP JUMPDEST PUSH0 PUSH2 0x489 PUSH2 0x47B DUP4 PUSH2 0x1044 JUMP JUMPDEST PUSH8 0x8000000000000000 PUSH2 0x1058 JUMP JUMPDEST SWAP1 POP PUSH0 PUSH1 0x24 CALLDATALOAD SWAP1 POP PUSH2 0x49A DUP2 PUSH2 0x1064 JUMP JUMPDEST PUSH0 PUSH2 0x4A5 DUP3 DUP5 PUSH2 0x1058 JUMP JUMPDEST SWAP1 POP PUSH2 0x4B1 DUP2 PUSH0 PUSH2 0x106C JUMP JUMPDEST DUP3 SWAP1 PUSH2 0x4F3 JUMPI PUSH1 0x40 MLOAD PUSH32 0x42D0116800000000000000000000000000000000000000000000000000000000 DUP2 MSTORE PUSH1 0x4 ADD PUSH2 0x4EA SWAP2 SWAP1 PUSH2 0x1794 JUMP JUMPDEST PUSH1 0x40 MLOAD DUP1 SWAP2 SUB SWAP1 REVERT JUMPDEST POP PUSH2 0x507 DUP2 PUSH9 0x10000000000000000 PUSH2 0x1078 JUMP JUMPDEST DUP3 SWAP1 PUSH2 0x549 JUMPI PUSH1 0x40 MLOAD PUSH32 0x42D0116800000000000000000000000000000000000000000000000000000000 DUP2 MSTORE PUSH1 0x4 ADD PUSH2 0x540 SWAP2 SWAP1 PUSH2 0x1794 JUMP JUMPDEST PUSH1 0x40 MLOAD DUP1 SWAP2 SUB SWAP1 REVERT JUMPDEST POP PUSH2 0x553 DUP2 PUSH2 0x1084 JUMP JUMPDEST PUSH0 PUSH1 0x44 CALLDATALOAD SWAP1 POP PUSH2 0x562 DUP2 PUSH2 0x1098 JUMP JUMPDEST PUSH0 PUSH2 0x56D DUP3 DUP7 PUSH2 0x1058 JUMP JUMPDEST SWAP1 POP PUSH2 0x579 DUP2 PUSH0 PUSH2 0x106C JUMP JUMPDEST DUP3 SWAP1 PUSH2 0x5BB JUMPI PUSH1 0x40 MLOAD PUSH32 0x42D0116800000000000000000000000000000000000000000000000000000000 DUP2 MSTORE PUSH1 0x4 ADD PUSH2 0x5B2 SWAP2 SWAP1 PUSH2 0x1794 JUMP JUMPDEST PUSH1 0x40 MLOAD DUP1 SWAP2 SUB SWAP1 REVERT JUMPDEST POP PUSH2 0x5CF DUP2 PUSH9 0x10000000000000000 PUSH2 0x1078 JUMP JUMPDEST DUP3 SWAP1 PUSH2 0x611 JUMPI PUSH1 0x40 MLOAD PUSH32 0x42D0116800000000000000000000000000000000000000000000000000000000 DUP2 MSTORE PUSH1 0x4 ADD PUSH2 0x608 SWAP2 SWAP1 PUSH2 0x1794 JUMP JUMPDEST PUSH1 0x40 MLOAD DUP1 SWAP2 SUB SWAP1 REVERT JUMPDEST POP PUSH2 0x61B DUP2 PUSH2 0x10A0 JUMP JUMPDEST POP POP POP POP POP POP PUSH0 PUSH1 0x64 CALLDATALOAD SWAP1 POP PUSH16 0x7FFFFFFFFFFFFFFFFFFFFFFFFFFFFFFF PUSH1 0xF SIGNEXTEND DUP2 SGT ISZERO DUP2 SWAP1 PUSH2 0x680 JUMPI PUSH1 0x40 MLOAD PUSH32 0xC270DEB300000000000000000000000000000000000000000000000000000000 DUP2 MSTORE PUSH1 0x4 ADD PUSH2 0x677 SWAP2 SWAP1 PUSH2 0x17BC JUMP JUMPDEST PUSH1 0x40 MLOAD DUP1 SWAP2 SUB SWAP1 REVERT JUMPDEST POP PUSH16 0x7FFFFFFFFFFFFFFFFFFFFFFFFFFFFFFF PUSH0 PUSH2 0x69D SWAP2 SWAP1 PUSH2 0x180E JUMP JUMPDEST PUSH1 0xF SIGNEXTEND DUP2 SLT ISZERO DUP2 SWAP1 PUSH2 0x6E5 JUMPI PUSH1 0x40 MLOAD PUSH32 0xC270DEB300000000000000000000000000000000000000000000000000000000 DUP2 MSTORE PUSH1 0x4 ADD PUSH2 0x6DC SWAP2 SWAP1 PUSH2 0x17BC JUMP JUMPDEST PUSH1 0x40 MLOAD DUP1 SWAP2 SUB SWAP1 REVERT JUMPDEST POP PUSH0 DUP2 EQ ISZERO DUP2 SWAP1 PUSH2 0x72C JUMPI PUSH1 0x40 MLOAD PUSH32 0xC270DEB300000000000000000000000000000000000000000000000000000000 DUP2 MSTORE PUSH1 0x4 ADD PUSH2 0x723 SWAP2 SWAP1 PUSH2 0x17BC JUMP JUMPDEST PUSH1 0x40 MLOAD DUP1 SWAP2 SUB SWAP1 REVERT JUMPDEST POP PUSH2 0x736 DUP2 PUSH2 0x10B6 JUMP JUMPDEST POP PUSH0 PUSH0 PUSH0 PUSH0 PUSH0 PUSH1 0x84 CALLDATALOAD PUSH1 0x4 ADD PUSH2 0x808 SWAP6 POP PUSH1 0x20 PUSH2 0x808 ADD SWAP5 POP DUP1 CALLDATALOAD SWAP4 POP DUP4 DUP6 ADD SWAP2 POP PUSH1 0x20 PUSH1 0xA4 DUP4 SUB SUB SWAP3 POP DUP4 PUSH1 0x20 DUP3 ADD DUP7 CALLDATACOPY POP PUSH2 0x772 DUP6 PUSH2 0x10BE JUMP JUMPDEST PUSH2 0x77B DUP5 PUSH2 0x10C6 JUMP JUMPDEST PUSH2 0xFFFF DUP1 AND DUP4 GT ISZERO DUP4 SWAP1 PUSH2 0x7C5 JUMPI PUSH1 0x40 MLOAD PUSH32 0x805CFD4B00000000000000000000000000000000000000000000000000000000 DUP2 MSTORE PUSH1 0x4 ADD PUSH2 0x7BC SWAP2 SWAP1 PUSH2 0x1884 JUMP JUMPDEST PUSH1 0x40 MLOAD DUP1 SWAP2 SUB SWAP1 REVERT JUMPDEST POP PUSH2 0x7CF DUP4 PUSH2 0x10CE JUMP JUMPDEST PUSH2 0x7D8 DUP3 PUSH2 0x1036 JUMP JUMPDEST PUSH2 0x7E1 DUP2 PUSH2 0x103D JUMP JUMPDEST POP POP POP POP POP JUMP JUMPDEST PUSH0 PUSH2 0x7F2 CALLER PUSH2 0xFF1 JUMP JUMPDEST PUSH0 PUSH1 0x4 CALLDATALOAD SWAP1 POP PUSH2 0x801 DUP2 PUSH2 0x1005 JUMP JUMPDEST PUSH0 PUSH0 PUSH0 PUSH1 0x24 CALLDATALOAD PUSH1 0x4 ADD SWAP2 POP PUSH2 0x808 SWAP3 POP DUP2 CALLDATALOAD PUSH1 0x5 SHL SWAP1 POP PUSH1 0x5 DUP2 DIV PUSH1 0x5 SHL DUP4 ADD SWAP5 POP PUSH2 0x82C DUP4 PUSH2 0x10E4 JUMP JUMPDEST PUSH0 PUSH0 PUSH0 PUSH0 PUSH1 0x44 CALLDATALOAD PUSH1 0x4 ADD DUP6 DUP11 ADD SWAP5 POP DUP1 CALLDATALOAD SWAP4 POP DUP4 DUP6 ADD SWAP2 POP PUSH1 0x20 PUSH1 0xA4 DUP4 SUB SUB SWAP3 POP DUP6 PUSH1 0x20 DUP9 ADD DUP12 CALLDATACOPY DUP4 PUSH1 0x20 DUP3 ADD DUP7 CALLDATACOPY POP PUSH2 0x865 DUP5 PUSH2 0x10C6 JUMP JUMPDEST PUSH2 0xFFFF DUP1 AND DUP4 GT ISZERO DUP4 SWAP1 PUSH2 0x8AF JUMPI PUSH1 0x40 MLOAD PUSH32 0x805CFD4B00000000000000000000000000000000000000000000000000000000 DUP2 MSTORE PUSH1 0x4 ADD PUSH2 0x8A6 SWAP2 SWAP1 PUSH2 0x1884 JUMP JUMPDEST PUSH1 0x40 MLOAD DUP1 SWAP2 SUB SWAP1 REVERT JUMPDEST POP PUSH2 0x8B9 DUP4 PUSH2 0x10CE JUMP JUMPDEST PUSH2 0x8C2 DUP3 PUSH2 0x1036 JUMP JUMPDEST PUSH2 0x8CB DUP2 PUSH2 0x103D JUMP JUMPDEST POP POP POP POP POP POP POP POP SWAP1 JUMP JUMPDEST PUSH0 PUSH1 0x4 CALLDATALOAD SWAP1 POP PUSH2 0x8E5 DUP2 PUSH2 0x1005 JUMP JUMPDEST PUSH0 PUSH1 0x20 PUSH1 0xA4 PUSH2 0x808 SUB SUB SWAP1 POP PUSH2 0x8FA DUP2 PUSH2 0x1036 JUMP JUMPDEST PUSH2 0x909 PUSH2 0x808 PUSH2 0xFFFF AND PUSH2 0x103D JUMP JUMPDEST POP POP JUMP JUMPDEST PUSH2 0x916 CALLER PUSH2 0xFF1 JUMP JUMPDEST PUSH0 PUSH1 0x4 CALLDATALOAD SWAP1 POP PUSH2 0x925 DUP2 PUSH2 0x1005 JUMP JUMPDEST POP PUSH0 PUSH1 0x24 CALLDATALOAD SWAP1 POP PUSH16 0x7FFFFFFFFFFFFFFFFFFFFFFFFFFFFFFF PUSH1 0xF SIGNEXTEND DUP2 SGT ISZERO DUP2 SWAP1 PUSH2 0x985 JUMPI PUSH1 0x40 MLOAD PUSH32 0xC270DEB300000000000000000000000000000000000000000000000000000000 DUP2 MSTORE PUSH1 0x4 ADD PUSH2 0x97C SWAP2 SWAP1 PUSH2 0x17BC JUMP JUMPDEST PUSH1 0x40 MLOAD DUP1 SWAP2 SUB SWAP1 REVERT JUMPDEST POP PUSH0 DUP2 SGT DUP2 SWAP1 PUSH2 0x9CB JUMPI PUSH1 0x40 MLOAD PUSH32 0xC270DEB300000000000000000000000000000000000000000000000000000000 DUP2 MSTORE PUSH1 0x4 ADD PUSH2 0x9C2 SWAP2 SWAP1 PUSH2 0x17BC JUMP JUMPDEST PUSH1 0x40 MLOAD DUP1 SWAP2 SUB SWAP1 REVERT JUMPDEST POP PUSH2 0x9D5 DUP2 PUSH2 0x10B6 JUMP JUMPDEST POP PUSH0 PUSH0 PUSH0 PUSH0 PUSH0 PUSH1 0x44 CALLDATALOAD PUSH1 0x4 ADD PUSH2 0x808 SWAP6 POP PUSH1 0x20 PUSH2 0x808 ADD SWAP5 POP DUP1 CALLDATALOAD SWAP4 POP DUP4 DUP6 ADD SWAP2 POP PUSH1 0x20 PUSH1 0xA4 DUP4 SUB SUB SWAP3 POP DUP4 PUSH1 0x20 DUP3 ADD DUP7 CALLDATACOPY POP PUSH2 0xA11 DUP6 PUSH2 0x10BE JUMP JUMPDEST PUSH2 0xA1A DUP5 PUSH2 0x10C6 JUMP JUMPDEST PUSH2 0xFFFF DUP1 AND DUP4 GT ISZERO DUP4 SWAP1 PUSH2 0xA64 JUMPI PUSH1 0x40 MLOAD PUSH32 0x805CFD4B00000000000000000000000000000000000000000000000000000000 DUP2 MSTORE PUSH1 0x4 ADD PUSH2 0xA5B SWAP2 SWAP1 PUSH2 0x1884 JUMP JUMPDEST PUSH1 0x40 MLOAD DUP1 SWAP2 SUB SWAP1 REVERT JUMPDEST POP PUSH2 0xA6E DUP4 PUSH2 0x10CE JUMP JUMPDEST PUSH2 0xA77 DUP3 PUSH2 0x1036 JUMP JUMPDEST PUSH2 0xA80 DUP2 PUSH2 0x103D JUMP JUMPDEST POP POP POP POP POP JUMP JUMPDEST PUSH0 PUSH1 0x4 CALLDATALOAD SWAP1 POP PUSH2 0xA96 DUP2 PUSH2 0x1005 JUMP JUMPDEST PUSH2 0xAA4 PUSH1 0xF8 PUSH2 0xFFFF AND PUSH2 0x103D JUMP JUMPDEST POP JUMP JUMPDEST PUSH2 0xAB0 CALLER PUSH2 0xFF1 JUMP JUMPDEST PUSH0 PUSH1 0x4 CALLDATALOAD SWAP1 POP PUSH2 0xABF DUP2 PUSH2 0x1005 JUMP JUMPDEST PUSH0 PUSH1 0x24 CALLDATALOAD SWAP1 POP PUSH16 0x7FFFFFFFFFFFFFFFFFFFFFFFFFFFFFFF PUSH0 SUB DUP2 SLT ISZERO PUSH2 0xAF5 JUMPI PUSH16 0x7FFFFFFFFFFFFFFFFFFFFFFFFFFFFFFF PUSH0 SUB SWAP1 POP JUMPDEST PUSH16 0x7FFFFFFFFFFFFFFFFFFFFFFFFFFFFFFF DUP2 SGT ISZERO PUSH2 0xB21 JUMPI PUSH16 0x7FFFFFFFFFFFFFFFFFFFFFFFFFFFFFFF SWAP1 POP JUMPDEST PUSH1 0x1 PUSH1 0x7F SHL DUP2 MUL SWAP1 POP PUSH2 0xB33 DUP2 PUSH2 0x10EC JUMP JUMPDEST PUSH0 PUSH1 0x44 CALLDATALOAD SWAP1 POP PUSH2 0xB42 DUP2 PUSH2 0x10F4 JUMP JUMPDEST PUSH0 PUSH1 0x64 CALLDATALOAD PUSH1 0x80 SHR SWAP1 POP PUSH16 0x7FFFFFFFFFFFFFFFFFFFFFFFFFFFFFFF DUP2 GT ISZERO PUSH2 0xB77 JUMPI PUSH16 0x7FFFFFFFFFFFFFFFFFFFFFFFFFFFFFFF SWAP1 POP JUMPDEST PUSH2 0xB80 DUP2 PUSH2 0x10FC JUMP JUMPDEST PUSH1 0x74 CALLDATALOAD PUSH1 0x80 SHR PUSH1 0x2 DUP2 GT ISZERO PUSH2 0xB94 JUMPI PUSH1 0x2 SWAP1 POP JUMPDEST DUP1 PUSH2 0x150 MSTORE8 POP PUSH0 PUSH0 PUSH0 PUSH0 PUSH1 0x84 CALLDATALOAD PUSH1 0x4 ADD PUSH2 0x808 SWAP4 POP DUP1 CALLDATALOAD SWAP3 POP DUP3 DUP5 ADD SWAP5 POP PUSH1 0x20 PUSH1 0xA4 DUP7 SUB SUB SWAP2 POP DUP3 PUSH1 0x20 DUP3 ADD DUP6 CALLDATACOPY POP PUSH2 0xBCC DUP4 PUSH2 0x10C6 JUMP JUMPDEST PUSH2 0xFFFF DUP1 AND DUP3 GT ISZERO DUP3 SWAP1 PUSH2 0xC16 JUMPI PUSH1 0x40 MLOAD PUSH32 0x805CFD4B00000000000000000000000000000000000000000000000000000000 DUP2 MSTORE PUSH1 0x4 ADD PUSH2 0xC0D SWAP2 SWAP1 PUSH2 0x1884 JUMP JUMPDEST PUSH1 0x40 MLOAD DUP1 SWAP2 SUB SWAP1 REVERT JUMPDEST POP PUSH2 0xC20 DUP3 PUSH2 0x10CE JUMP JUMPDEST PUSH2 0xC29 DUP2 PUSH2 0x1036 JUMP JUMPDEST PUSH2 0xC32 DUP5 PUSH2 0x10E4 JUMP JUMPDEST POP POP POP POP POP POP POP POP JUMP JUMPDEST PUSH0 PUSH2 0xC46 CALLER PUSH2 0xFF1 JUMP JUMPDEST PUSH0 PUSH0 PUSH1 0x4 CALLDATALOAD SWAP1 POP PUSH2 0xC56 DUP2 PUSH2 0x1110 JUMP JUMPDEST SWAP2 POP POP PUSH2 0xC62 DUP2 PUSH2 0x1005 JUMP JUMPDEST PUSH0 DUP2 SUB PUSH2 0xC9B JUMPI PUSH1 0x40 MLOAD PUSH32 0x4E79178600000000000000000000000000000000000000000000000000000000 DUP2 MSTORE PUSH1 0x4 ADD PUSH1 0x40 MLOAD DUP1 SWAP2 SUB SWAP1 REVERT JUMPDEST PUSH0 PUSH2 0xCAD PUSH2 0xCA8 DUP4 PUSH2 0x112B JUMP JUMPDEST PUSH2 0x114E JUMP JUMPDEST EQ DUP2 SWAP1 PUSH2 0xCF0 JUMPI PUSH1 0x40 MLOAD PUSH32 0xA3A300C700000000000000000000000000000000000000000000000000000000 DUP2 MSTORE PUSH1 0x4 ADD PUSH2 0xCE7 SWAP2 SWAP1 PUSH2 0x1884 JUMP JUMPDEST PUSH1 0x40 MLOAD DUP1 SWAP2 SUB SWAP1 REVERT JUMPDEST POP PUSH0 PUSH2 0xCFB DUP3 PUSH2 0x1044 JUMP JUMPDEST SWAP1 POP PUSH2 0xD1B DUP2 PUSH9 0x2D000000000000000 PUSH0 PUSH2 0xD16 SWAP2 SWAP1 PUSH2 0x189D JUMP JUMPDEST PUSH2 0x106C JUMP JUMPDEST DUP2 SWAP1 PUSH2 0xD5D JUMPI PUSH1 0x40 MLOAD PUSH32 0xA2FF8ABD00000000000000000000000000000000000000000000000000000000 DUP2 MSTORE PUSH1 0x4 ADD PUSH2 0xD54 SWAP2 SWAP1 PUSH2 0x1794 JUMP JUMPDEST PUSH1 0x40 MLOAD DUP1 SWAP2 SUB SWAP1 REVERT JUMPDEST POP PUSH2 0xD71 DUP2 PUSH9 0x2D000000000000000 PUSH2 0x1078 JUMP JUMPDEST DUP2 SWAP1 PUSH2 0xDB3 JUMPI PUSH1 0x40 MLOAD PUSH32 0xA2FF8ABD00000000000000000000000000000000000000000000000000000000 DUP2 MSTORE PUSH1 0x4 ADD PUSH2 0xDAA SWAP2 SWAP1 PUSH2 0x1794 JUMP JUMPDEST PUSH1 0x40 MLOAD DUP1 SWAP2 SUB SWAP1 REVERT JUMPDEST POP PUSH2 0xDC5 PUSH2 0xDC0 DUP3 PUSH2 0x1158 JUMP JUMPDEST PUSH2 0x11D1 JUMP JUMPDEST PUSH2 0xDDF PUSH2 0xDDA PUSH2 0xDD5 PUSH0 DUP5 PUSH2 0x1058 JUMP JUMPDEST PUSH2 0x1158 JUMP JUMPDEST PUSH2 0x11D9 JUMP JUMPDEST POP POP PUSH0 PUSH1 0x24 CALLDATALOAD SWAP1 POP PUSH2 0xDF0 DUP2 PUSH2 0x11E1 JUMP JUMPDEST PUSH0 PUSH1 0x44 CALLDATALOAD SWAP1 POP PUSH2 0xDFF DUP2 PUSH2 0x11E9 JUMP JUMPDEST PUSH2 0xE09 DUP2 DUP4 PUSH2 0x11F1 JUMP JUMPDEST DUP3 DUP3 SWAP1 SWAP2 PUSH2 0xE4E JUMPI PUSH1 0x40 MLOAD PUSH32 0xFE92479C00000000000000000000000000000000000000000000000000000000 DUP2 MSTORE PUSH1 0x4 ADD PUSH2 0xE45 SWAP3 SWAP2 SWAP1 PUSH2 0x18EC JUMP JUMPDEST PUSH1 0x40 MLOAD DUP1 SWAP2 SUB SWAP1 REVERT JUMPDEST POP POP POP POP PUSH0 PUSH1 0x64 CALLDATALOAD SWAP1 POP PUSH2 0xE68 DUP2 PUSH6 0x800000000000 PUSH2 0x100C JUMP JUMPDEST DUP2 SWAP1 PUSH2 0xEAA JUMPI PUSH1 0x40 MLOAD PUSH32 0x1F84BBB300000000000000000000000000000000000000000000000000000000 DUP2 MSTORE PUSH1 0x4 ADD PUSH2 0xEA1 SWAP2 SWAP1 PUSH2 0x176C JUMP JUMPDEST PUSH1 0x40 MLOAD DUP1 SWAP2 SUB SWAP1 REVERT JUMPDEST POP PUSH2 0xEB4 DUP2 PUSH2 0x1020 JUMP JUMPDEST POP PUSH0 PUSH0 PUSH0 PUSH1 0x84 CALLDATALOAD PUSH1 0x4 ADD SWAP2 POP PUSH2 0x808 SWAP3 POP DUP2 CALLDATALOAD PUSH1 0x5 SHL SWAP1 POP PUSH1 0x5 DUP2 DIV PUSH1 0x5 SHL DUP4 ADD SWAP4 POP PUSH2 0xEE0 DUP4 PUSH2 0x10E4 JUMP JUMPDEST PUSH0 PUSH0 PUSH0 PUSH1 0xA4 CALLDATALOAD PUSH1 0x4 ADD SWAP2 POP DUP4 DUP8 ADD SWAP3 POP DUP2 CALLDATALOAD PUSH1 0x5 SHL SWAP1 POP PUSH1 0x20 DUP2 LT ISZERO PUSH2 0xF32 JUMPI PUSH1 0x40 MLOAD PUSH32 0xA4912D800000000000000000000000000000000000000000000000000000000 DUP2 MSTORE PUSH1 0x4 ADD PUSH1 0x40 MLOAD DUP1 SWAP2 SUB SWAP1 REVERT JUMPDEST PUSH2 0xF3B DUP4 PUSH2 0x10BE JUMP JUMPDEST PUSH0 PUSH0 PUSH0 PUSH0 PUSH1 0xC4 CALLDATALOAD PUSH1 0x4 ADD PUSH1 0x8 DUP7 DUP10 ADD ADD SWAP5 POP DUP1 CALLDATALOAD SWAP4 POP DUP4 DUP6 ADD SWAP2 POP PUSH1 0x20 PUSH1 0xA4 DUP4 SUB SUB SWAP3 POP DUP9 PUSH1 0x20 DUP12 ADD DUP14 CALLDATACOPY DUP6 PUSH1 0x20 DUP9 ADD DUP10 CALLDATACOPY DUP4 PUSH1 0x20 DUP3 ADD DUP7 CALLDATACOPY POP PUSH2 0xF7E DUP5 PUSH2 0x10C6 JUMP JUMPDEST PUSH2 0xFFFF DUP1 AND DUP4 GT ISZERO DUP4 SWAP1 PUSH2 0xFC8 JUMPI PUSH1 0x40 MLOAD PUSH32 0x805CFD4B00000000000000000000000000000000000000000000000000000000 DUP2 MSTORE PUSH1 0x4 ADD PUSH2 0xFBF SWAP2 SWAP1 PUSH2 0x1884 JUMP JUMPDEST PUSH1 0x40 MLOAD DUP1 SWAP2 SUB SWAP1 REVERT JUMPDEST POP PUSH2 0xFD2 DUP4 PUSH2 0x10CE JUMP JUMPDEST PUSH2 0xFDB DUP3 PUSH2 0x1036 JUMP JUMPDEST PUSH2 0xFE4 DUP2 PUSH2 0x103D JUMP JUMPDEST POP POP POP POP POP POP POP POP POP POP SWAP1 JUMP JUMPDEST PUSH1 0x14 PUSH1 0xC4 ADD MLOAD PUSH1 0xA0 SHR DUP2 PUSH1 0x60 SHL OR PUSH1 0xC4 MSTORE POP JUMP JUMPDEST DUP1 PUSH1 0xD8 MSTORE POP JUMP JUMPDEST PUSH0 PUSH2 0x1017 DUP4 DUP4 PUSH2 0x11FD JUMP JUMPDEST ISZERO SWAP1 POP SWAP3 SWAP2 POP POP JUMP JUMPDEST PUSH1 0x6 PUSH2 0x7F4 ADD MLOAD PUSH1 0x30 SHR DUP2 PUSH1 0xD0 SHL OR PUSH2 0x7F4 MSTORE POP JUMP JUMPDEST DUP1 PUSH1 0xA4 MSTORE POP JUMP JUMPDEST DUP1 PUSH1 0x40 MSTORE POP JUMP JUMPDEST PUSH0 DUP2 PUSH1 0xB4 SHR PUSH0 SIGNEXTEND PUSH1 0x1 PUSH1 0x3B SHL MUL SWAP1 POP SWAP2 SWAP1 POP JUMP JUMPDEST PUSH0 DUP2 DUP4 SUB SWAP1 POP SWAP3 SWAP2 POP POP JUMP JUMPDEST DUP1 PUSH2 0x128 MSTORE POP JUMP JUMPDEST PUSH0 DUP2 DUP4 SGT SWAP1 POP SWAP3 SWAP2 POP POP JUMP JUMPDEST PUSH0 DUP2 DUP4 SLT SWAP1 POP SWAP3 SWAP2 POP POP JUMP JUMPDEST PUSH1 0x8 PUSH1 0xF8 ADD MLOAD PUSH1 0x40 SHR DUP2 PUSH1 0xC0 SHL OR PUSH1 0xF8 MSTORE POP JUMP JUMPDEST DUP1 PUSH2 0x148 MSTORE POP JUMP JUMPDEST PUSH1 0x8 PUSH2 0x100 ADD MLOAD PUSH1 0x40 SHR DUP2 PUSH1 0xC0 SHL OR PUSH2 0x100 MSTORE POP JUMP JUMPDEST DUP1 PUSH2 0x108 MSTORE POP JUMP JUMPDEST DUP1 PUSH2 0x60F MSTORE POP JUMP JUMPDEST DUP1 PUSH2 0x62F MSTORE POP JUMP JUMPDEST PUSH1 0x2 PUSH2 0x653 ADD MLOAD PUSH1 0x10 SHR DUP2 PUSH1 0xF0 SHL OR PUSH2 0x653 MSTORE POP JUMP JUMPDEST DUP1 PUSH2 0x5EF MSTORE POP JUMP JUMPDEST DUP1 PUSH2 0x108 MSTORE POP JUMP JUMPDEST DUP1 PUSH2 0x128 MSTORE POP JUMP JUMPDEST PUSH1 0x10 PUSH1 0xF8 ADD MLOAD PUSH1 0x80 SHR DUP2 PUSH1 0x80 SHL OR PUSH1 0xF8 MSTORE POP JUMP JUMPDEST PUSH0 CALLER PUSH1 0x60 SHL PUSH0 MSTORE DUP2 PUSH1 0x14 MSTORE PUSH1 0x34 PUSH0 KECCAK256 PUSH1 0xBC SHL DUP3 ADD SWAP1 POP SWAP2 SWAP1 POP JUMP JUMPDEST PUSH0 PUSH16 0x6890D047AD8C870137858A70716B2C6B PUSH1 0x10 MSTORE DUP2 PUSH0 MSTORE PUSH1 0x30 PUSH0 KECCAK256 SWAP1 POP SWAP2 SWAP1 POP JUMP JUMPDEST PUSH0 DUP2 SLOAD SWAP1 POP SWAP2 SWAP1 POP JUMP JUMPDEST PUSH0 PUSH0 PUSH2 0x1175 PUSH2 0x1170 PUSH9 0x2D000000000000000 DUP6 PUSH2 0x1058 JUMP JUMPDEST PUSH2 0x1209 JUMP JUMPDEST SWAP1 POP PUSH32 0xCF8E41E6C4D4AA5E9CC597C10CD32EACD30C44F750A8FFDB1A8863DD8F72F0A5 PUSH32 0x872DB9E8FFA9E7D41F2AAF39897B91E4002E70FCEED391471FAD73D51503772D PUSH1 0x1 PUSH1 0xBF SHL DUP4 MULMOD PUSH1 0x1 PUSH1 0xBF SHL DUP4 MUL SUB MUL SWAP2 POP POP SWAP2 SWAP1 POP JUMP JUMPDEST DUP1 PUSH2 0x720 MSTORE POP JUMP JUMPDEST DUP1 PUSH2 0x740 MSTORE POP JUMP JUMPDEST DUP1 PUSH2 0x6E0 MSTORE POP JUMP JUMPDEST DUP1 PUSH2 0x700 MSTORE POP JUMP JUMPDEST PUSH0 DUP2 DUP4 GT SWAP1 POP SWAP3 SWAP2 POP POP JUMP JUMPDEST PUSH0 DUP2 DUP4 GT SWAP1 POP SWAP3 SWAP2 POP POP JUMP JUMPDEST PUSH0 PUSH0 DUP3 SWAP1 POP PUSH0 PUSH32 0x8000000000000000000000000000000000000000000000000000000000000000 PUSH1 0x3 PUSH1 0x25 DUP5 DUP6 MUL SWAP1 SHL DUP2 PUSH2 0x1247 JUMPI PUSH2 0x1246 PUSH2 0x1913 JUMP JUMPDEST JUMPDEST DIV ADD SWAP1 POP PUSH1 0x92 DUP3 SWAP1 SHL SWAP2 POP PUSH1 0x2 PUSH2 0x1283 DUP4 DUP4 SUB PUSH32 0x4000000000000000000000000000000000000000000000000000000000000000 DUP6 DUP6 ADD PUSH2 0x14A1 JUMP JUMPDEST SWAP1 SHL SWAP1 POP DUP1 DUP2 MUL PUSH0 NOT DUP3 DUP4 MULMOD SUB SWAP1 POP DUP1 DUP2 MUL PUSH0 NOT DUP3 DUP4 MULMOD SUB SWAP1 POP DUP1 DUP2 MUL PUSH0 NOT DUP3 DUP4 MULMOD SUB SWAP1 POP DUP1 DUP2 MUL PUSH0 NOT DUP3 DUP4 MULMOD SUB SWAP1 POP DUP1 DUP2 MUL PUSH0 NOT DUP3 DUP4 MULMOD SUB SWAP1 POP DUP1 DUP2 MUL PUSH0 NOT DUP3 DUP4 MULMOD SUB SWAP1 POP DUP1 DUP2 MUL PUSH0 NOT DUP3 DUP4 MULMOD SUB SWAP1 POP DUP1 DUP2 MUL PUSH0 NOT DUP3 DUP4 MULMOD SUB SWAP1 POP DUP1 DUP2 MUL PUSH0 NOT DUP3 DUP4 MULMOD SUB SWAP1 POP DUP1 DUP2 MUL PUSH0 NOT DUP3 DUP4 MULMOD SUB SWAP1 POP DUP1 DUP2 MUL PUSH0 NOT DUP3 DUP4 MULMOD SUB SWAP1 POP DUP1 DUP2 MUL PUSH0 NOT DUP3 DUP4 MULMOD SUB SWAP1 POP DUP1 DUP2 MUL PUSH0 NOT DUP3 DUP4 MULMOD SUB SWAP1 POP DUP1 DUP2 MUL PUSH0 NOT DUP3 DUP4 MULMOD SUB SWAP1 POP DUP1 DUP2 MUL PUSH0 NOT DUP3 DUP4 MULMOD SUB SWAP1 POP DUP1 DUP2 MUL PUSH0 NOT DUP3 DUP4 MULMOD SUB SWAP1 POP DUP1 DUP2 MUL PUSH0 NOT DUP3 DUP4 MULMOD SUB SWAP1 POP DUP1 DUP2 MUL PUSH0 NOT DUP3 DUP4 MULMOD SUB SWAP1 POP DUP1 DUP2 MUL PUSH0 NOT DUP3 DUP4 MULMOD SUB SWAP1 POP DUP1 DUP2 MUL PUSH0 NOT DUP3 DUP4 MULMOD SUB SWAP1 POP DUP1 DUP2 MUL PUSH0 NOT DUP3 DUP4 MULMOD SUB SWAP1 POP DUP1 DUP2 MUL PUSH0 NOT DUP3 DUP4 MULMOD SUB SWAP1 POP DUP1 DUP2 MUL PUSH0 NOT DUP3 DUP4 MULMOD SUB SWAP1 POP DUP1 DUP2 MUL PUSH0 NOT DUP3 DUP4 MULMOD SUB SWAP1 POP DUP1 DUP2 MUL PUSH0 NOT DUP3 DUP4 MULMOD SUB SWAP1 POP DUP1 DUP2 MUL PUSH0 NOT DUP3 DUP4 MULMOD SUB SWAP1 POP DUP1 DUP2 MUL PUSH0 NOT DUP3 DUP4 MULMOD SUB SWAP1 POP DUP1 DUP2 MUL PUSH0 NOT DUP3 DUP4 MULMOD SUB SWAP1 POP DUP1 DUP2 MUL PUSH0 NOT DUP3 DUP4 MULMOD SUB SWAP1 POP DUP1 DUP2 MUL PUSH0 NOT DUP3 DUP4 MULMOD SUB SWAP1 POP DUP1 DUP2 MUL PUSH0 NOT DUP3 DUP4 MULMOD SUB SWAP1 POP DUP1 DUP2 MUL PUSH0 NOT DUP3 DUP4 MULMOD SUB SWAP1 POP DUP1 DUP2 MUL PUSH0 NOT DUP3 DUP4 MULMOD SUB SWAP1 POP DUP1 DUP2 MUL PUSH0 NOT DUP3 DUP4 MULMOD SUB SWAP1 POP DUP1 DUP2 MUL PUSH0 NOT DUP3 DUP4 MULMOD SUB SWAP1 POP DUP1 DUP2 MUL PUSH0 NOT DUP3 DUP4 MULMOD SUB SWAP1 POP DUP1 DUP2 MUL PUSH0 NOT DUP3 DUP4 MULMOD SUB SWAP1 POP DUP1 DUP2 MUL PUSH0 NOT DUP3 DUP4 MULMOD SUB SWAP1 POP DUP1 DUP2 MUL PUSH0 NOT DUP3 DUP4 MULMOD SUB SWAP1 POP DUP1 DUP2 MUL PUSH0 NOT DUP3 DUP4 MULMOD SUB SWAP1 POP DUP1 DUP2 MUL PUSH0 NOT DUP3 DUP4 MULMOD SUB SWAP1 POP DUP1 DUP2 MUL PUSH0 NOT DUP3 DUP4 MULMOD SUB SWAP1 POP DUP1 DUP2 MUL PUSH0 NOT DUP3 DUP4 MULMOD SUB SWAP1 POP DUP1 DUP2 MUL PUSH0 NOT DUP3 DUP4 MULMOD SUB SWAP1 POP DUP1 DUP2 MUL PUSH0 NOT DUP3 DUP4 MULMOD SUB SWAP1 POP DUP1 DUP2 MUL PUSH0 NOT DUP3 DUP4 MULMOD SUB SWAP1 POP DUP1 DUP2 MUL PUSH0 NOT DUP3 DUP4 MULMOD SUB SWAP1 POP DUP1 DUP2 MUL PUSH0 NOT DUP3 DUP4 MULMOD SUB SWAP1 POP DUP1 SWAP3 POP POP POP SWAP2 SWAP1 POP JUMP JUMPDEST PUSH0 PUSH1 0x1 DUP3 SUB SWAP1 POP DUP1 DUP3 DUP5 DUP7 MULMOD DUP3 SUB DUP3 DUP6 DUP8 MULMOD ADDMOD SWAP1 POP SWAP4 SWAP3 POP POP POP JUMP JUMPDEST PUSH1 0x40 MLOAD DUP1 PUSH2 0x120 ADD PUSH1 0x40 MSTORE DUP1 PUSH0 DUP2 MSTORE PUSH1 0x20 ADD PUSH0 DUP2 MSTORE PUSH1 0x20 ADD PUSH0 DUP2 MSTORE PUSH1 0x20 ADD PUSH0 DUP2 MSTORE PUSH1 0x20 ADD PUSH0 PUSH2 0xFFFF AND DUP2 MSTORE PUSH1 0x20 ADD PUSH0 DUP2 MSTORE PUSH1 0x20 ADD PUSH0 DUP2 MSTORE PUSH1 0x20 ADD PUSH0 DUP2 MSTORE PUSH1 0x20 ADD PUSH0 DUP2 MSTORE POP SWAP1 JUMP JUMPDEST PUSH1 0x40 MLOAD DUP1 PUSH1 0xA0 ADD PUSH1 0x40 MSTORE DUP1 PUSH0 DUP2 MSTORE PUSH1 0x20 ADD PUSH0 DUP2 MSTORE PUSH1 0x20 ADD PUSH0 DUP2 MSTORE PUSH1 0x20 ADD PUSH0 DUP2 MSTORE PUSH1 0x20 ADD PUSH0 PUSH2 0xFFFF AND DUP2 MSTORE POP SWAP1 JUMP JUMPDEST PUSH0 DUP2 SWAP1 POP SWAP2 SWAP1 POP JUMP JUMPDEST PUSH2 0x1544 DUP2 PUSH2 0x1532 JUMP JUMPDEST DUP3 MSTORE POP POP JUMP JUMPDEST PUSH0 DUP2 SWAP1 POP SWAP2 SWAP1 POP JUMP JUMPDEST PUSH0 DUP2 SWAP1 POP SWAP2 SWAP1 POP JUMP JUMPDEST PUSH0 PUSH2 0x1576 PUSH2 0x1571 PUSH2 0x156C DUP5 PUSH2 0x154A JUMP JUMPDEST PUSH2 0x1553 JUMP JUMPDEST PUSH2 0x154A JUMP JUMPDEST SWAP1 POP SWAP2 SWAP1 POP JUMP JUMPDEST PUSH2 0x1586 DUP2 PUSH2 0x155C JUMP JUMPDEST DUP3 MSTORE POP POP JUMP JUMPDEST PUSH2 0x1595 DUP2 PUSH2 0x154A JUMP JUMPDEST DUP3 MSTORE POP POP JUMP JUMPDEST PUSH0 PUSH2 0xFFFF DUP3 AND SWAP1 POP SWAP2 SWAP1 POP JUMP JUMPDEST PUSH2 0x15B1 DUP2 PUSH2 0x159B JUMP JUMPDEST DUP3 MSTORE POP POP JUMP JUMPDEST PUSH0 PUSH2 0x15D1 PUSH2 0x15CC PUSH2 0x15C7 DUP5 PUSH2 0x1532 JUMP JUMPDEST PUSH2 0x1553 JUMP JUMPDEST PUSH2 0x1532 JUMP JUMPDEST SWAP1 POP SWAP2 SWAP1 POP JUMP JUMPDEST PUSH2 0x15E1 DUP2 PUSH2 0x15B7 JUMP JUMPDEST DUP3 MSTORE POP POP JUMP JUMPDEST PUSH2 0x120 DUP3 ADD PUSH0 DUP3 ADD MLOAD PUSH2 0x15FC PUSH0 DUP6 ADD DUP3 PUSH2 0x153B JUMP JUMPDEST POP PUSH1 0x20 DUP3 ADD MLOAD PUSH2 0x160F PUSH1 0x20 DUP6 ADD DUP3 PUSH2 0x157D JUMP JUMPDEST POP PUSH1 0x40 DUP3 ADD MLOAD PUSH2 0x1622 PUSH1 0x40 DUP6 ADD DUP3 PUSH2 0x157D JUMP JUMPDEST POP PUSH1 0x60 DUP3 ADD MLOAD PUSH2 0x1635 PUSH1 0x60 DUP6 ADD DUP3 PUSH2 0x158C JUMP JUMPDEST POP PUSH1 0x80 DUP3 ADD MLOAD PUSH2 0x1648 PUSH1 0x80 DUP6 ADD DUP3 PUSH2 0x15A8 JUMP JUMPDEST POP PUSH1 0xA0 DUP3 ADD MLOAD PUSH2 0x165B PUSH1 0xA0 DUP6 ADD DUP3 PUSH2 0x15D8 JUMP JUMPDEST POP PUSH1 0xC0 DUP3 ADD MLOAD PUSH2 0x166E PUSH1 0xC0 DUP6 ADD DUP3 PUSH2 0x153B JUMP JUMPDEST POP PUSH1 0xE0 DUP3 ADD MLOAD PUSH2 0x1681 PUSH1 0xE0 DUP6 ADD DUP3 PUSH2 0x153B JUMP JUMPDEST POP PUSH2 0x100 DUP3 ADD MLOAD PUSH2 0x1696 PUSH2 0x100 DUP6 ADD DUP3 PUSH2 0x153B JUMP JUMPDEST POP POP POP POP JUMP JUMPDEST PUSH0 PUSH2 0x120 DUP3 ADD SWAP1 POP PUSH2 0x16B0 PUSH0 DUP4 ADD DUP5 PUSH2 0x15E7 JUMP JUMPDEST SWAP3 SWAP2 POP POP JUMP JUMPDEST PUSH1 0xA0 DUP3 ADD PUSH0 DUP3 ADD MLOAD PUSH2 0x16CA PUSH0 DUP6 ADD DUP3 PUSH2 0x153B JUMP JUMPDEST POP PUSH1 0x20 DUP3 ADD MLOAD PUSH2 0x16DD PUSH1 0x20 DUP6 ADD DUP3 PUSH2 0x157D JUMP JUMPDEST POP PUSH1 0x40 DUP3 ADD MLOAD PUSH2 0x16F0 PUSH1 0x40 DUP6 ADD DUP3 PUSH2 0x157D JUMP JUMPDEST POP PUSH1 0x60 DUP3 ADD MLOAD PUSH2 0x1703 PUSH1 0x60 DUP6 ADD DUP3 PUSH2 0x158C JUMP JUMPDEST POP PUSH1 0x80 DUP3 ADD MLOAD PUSH2 0x1716 PUSH1 0x80 DUP6 ADD DUP3 PUSH2 0x15A8 JUMP JUMPDEST POP POP POP POP JUMP JUMPDEST PUSH0 PUSH1 0xA0 DUP3 ADD SWAP1 POP PUSH2 0x172F PUSH0 DUP4 ADD DUP5 PUSH2 0x16B6 JUMP JUMPDEST SWAP3 SWAP2 POP POP JUMP JUMPDEST PUSH2 0x173E DUP2 PUSH2 0x15B7 JUMP JUMPDEST DUP3 MSTORE POP POP JUMP JUMPDEST PUSH0 PUSH1 0x20 DUP3 ADD SWAP1 POP PUSH2 0x1757 PUSH0 DUP4 ADD DUP5 PUSH2 0x1735 JUMP JUMPDEST SWAP3 SWAP2 POP POP JUMP JUMPDEST PUSH2 0x1766 DUP2 PUSH2 0x15B7 JUMP JUMPDEST DUP3 MSTORE POP POP JUMP JUMPDEST PUSH0 PUSH1 0x20 DUP3 ADD SWAP1 POP PUSH2 0x177F PUSH0 DUP4 ADD DUP5 PUSH2 0x175D JUMP JUMPDEST SWAP3 SWAP2 POP POP JUMP JUMPDEST PUSH2 0x178E DUP2 PUSH2 0x155C JUMP JUMPDEST DUP3 MSTORE POP POP JUMP JUMPDEST PUSH0 PUSH1 0x20 DUP3 ADD SWAP1 POP PUSH2 0x17A7 PUSH0 DUP4 ADD DUP5 PUSH2 0x1785 JUMP JUMPDEST SWAP3 SWAP2 POP POP JUMP JUMPDEST PUSH2 0x17B6 DUP2 PUSH2 0x154A JUMP JUMPDEST DUP3 MSTORE POP POP JUMP JUMPDEST PUSH0 PUSH1 0x20 DUP3 ADD SWAP1 POP PUSH2 0x17CF PUSH0 DUP4 ADD DUP5 PUSH2 0x17AD JUMP JUMPDEST SWAP3 SWAP2 POP POP JUMP JUMPDEST PUSH0 DUP2 PUSH1 0xF SIGNEXTEND SWAP1 POP SWAP2 SWAP1 POP JUMP JUMPDEST PUSH32 0x4E487B7100000000000000000000000000000000000000000000000000000000 PUSH0 MSTORE PUSH1 0x11 PUSH1 0x4 MSTORE PUSH1 0x24 PUSH0 REVERT JUMPDEST PUSH0 PUSH2 0x1818 DUP3 PUSH2 0x17D5 JUMP JUMPDEST SWAP2 POP PUSH2 0x1823 DUP4 PUSH2 0x17D5 JUMP JUMPDEST SWAP3 POP DUP3 DUP3 SUB SWAP1 POP PUSH16 0x7FFFFFFFFFFFFFFFFFFFFFFFFFFFFFFF DUP2 SGT PUSH32 0xFFFFFFFFFFFFFFFFFFFFFFFFFFFFFFFF80000000000000000000000000000000 DUP3 SLT OR ISZERO PUSH2 0x186F JUMPI PUSH2 0x186E PUSH2 0x17E1 JUMP JUMPDEST JUMPDEST SWAP3 SWAP2 POP POP JUMP JUMPDEST PUSH2 0x187E DUP2 PUSH2 0x1532 JUMP JUMPDEST DUP3 MSTORE POP POP JUMP JUMPDEST PUSH0 PUSH1 0x20 DUP3 ADD SWAP1 POP PUSH2 0x1897 PUSH0 DUP4 ADD DUP5 PUSH2 0x1875 JUMP JUMPDEST SWAP3 SWAP2 POP POP JUMP JUMPDEST PUSH0 PUSH2 0x18A7 DUP3 PUSH2 0x154A JUMP JUMPDEST SWAP2 POP PUSH2 0x18B2 DUP4 PUSH2 0x154A JUMP JUMPDEST SWAP3 POP DUP3 DUP3 SUB SWAP1 POP DUP2 DUP2 SLT PUSH0 DUP5 SLT AND DUP3 DUP3 SGT PUSH0 DUP6 SLT ISZERO AND OR ISZERO PUSH2 0x18D7 JUMPI PUSH2 0x18D6 PUSH2 0x17E1 JUMP JUMPDEST JUMPDEST SWAP3 SWAP2 POP POP JUMP JUMPDEST PUSH2 0x18E6 DUP2 PUSH2 0x15B7 JUMP JUMPDEST DUP3 MSTORE POP POP JUMP JUMPDEST PUSH0 PUSH1 0x40 DUP3 ADD SWAP1 POP PUSH2 0x18FF PUSH0 DUP4 ADD DUP6 PUSH2 0x18DD JUMP JUMPDEST PUSH2 0x190C PUSH1 0x20 DUP4 ADD DUP5 PUSH2 0x18DD JUMP JUMPDEST SWAP4 SWAP3 POP POP POP JUMP JUMPDEST PUSH32 0x4E487B7100000000000000000000000000000000000000000000000000000000 PUSH0 MSTORE PUSH1 0x12 PUSH1 0x4 MSTORE PUSH1 0x24 PUSH0 REVERT INVALID LOG2 PUSH5 0x6970667358 0x22 SLT KECCAK256 GASLIMIT XOR RETURN 0xE ADD 0xFC SWAP9 SWAP11 LOG4 0xAA CALLCODE 0x29 TSTORE PUSH18 0xADFD59F3EB6BE64062BB5B0C120E891DCB6F PUSH5 0x736F6C6343 STOP ADDMOD SHR STOP CALLER "
		},
		"gasEstimates": {
			"creation": {
				"codeDepositCost": "1303600",
				"executionCost": "1354",
				"totalCost": "1304954"
			},
			"external": {
				"_readCollectInput()": "3091",
				"_readDonateInput()": "infinite",
				"_readInitializeInput()": "infinite",
				"_readModifyKernelInput()": "infinite",
				"_readModifyPoolGrowthPortionInput()": "infinite",
				"_readModifyPositionInput()": "infinite",
				"_readSwapInput()": "infinite",
				"_readUpdateGrowthPortionsInput()": "17863",
				"readAndExpose()": "infinite",
				"readAndExposeAll()": "infinite"
			}
		},
		"methodIdentifiers": {
			"_readCollectInput()": "9c3bdba5",
			"_readDonateInput()": "76e9a038",
			"_readInitializeInput()": "e7675635",
			"_readModifyKernelInput()": "6853005d",
			"_readModifyPoolGrowthPortionInput()": "38e59837",
			"_readModifyPositionInput()": "ed93ed85",
			"_readSwapInput()": "d28b2ce7",
			"_readUpdateGrowthPortionsInput()": "720221f8",
			"readAndExpose()": "4332be3d",
			"readAndExposeAll()": "21008841"
		}
	},
	"abi": [
		{
			"inputs": [],
			"name": "CurveLengthIsZero",
			"type": "error"
		},
		{
			"inputs": [
				{
					"internalType": "uint256",
					"name": "hookDataByteCount",
					"type": "uint256"
				}
			],
			"name": "HookDataTooLong",
			"type": "error"
		},
		{
			"inputs": [
				{
					"internalType": "X47",
					"name": "poolGrowthPortion",
					"type": "uint256"
				}
			],
			"name": "InvalidGrowthPortion",
			"type": "error"
		},
		{
			"inputs": [
				{
					"internalType": "int256",
					"name": "shares",
					"type": "int256"
				}
			],
			"name": "InvalidNumberOfShares",
			"type": "error"
		},
		{
			"inputs": [
				{
					"internalType": "X59",
					"name": "qOffset",
					"type": "int256"
				}
			],
			"name": "LogOffsetOutOfRange",
			"type": "error"
		},
		{
			"inputs": [
				{
					"internalType": "X59",
					"name": "logPrice",
					"type": "int256"
				}
			],
			"name": "LogPriceOutOfRange",
			"type": "error"
		},
		{
			"inputs": [
				{
					"internalType": "uint256",
					"name": "poolId",
					"type": "uint256"
				}
			],
			"name": "PoolExists",
			"type": "error"
		},
		{
			"inputs": [],
			"name": "PoolIdCannotBeZero",
			"type": "error"
		},
		{
			"inputs": [
				{
					"internalType": "Tag",
					"name": "tag0",
					"type": "uint256"
				},
				{
					"internalType": "Tag",
					"name": "tag1",
					"type": "uint256"
				}
			],
			"name": "TagsOutOfOrder",
			"type": "error"
		},
		{
			"inputs": [],
			"name": "_readCollectInput",
			"outputs": [],
			"stateMutability": "nonpayable",
			"type": "function"
		},
		{
			"inputs": [],
			"name": "_readDonateInput",
			"outputs": [],
			"stateMutability": "nonpayable",
			"type": "function"
		},
		{
			"inputs": [],
			"name": "_readInitializeInput",
			"outputs": [
				{
					"internalType": "KernelCompact",
					"name": "kernelCompact",
					"type": "uint256"
				}
			],
			"stateMutability": "nonpayable",
			"type": "function"
		},
		{
			"inputs": [],
			"name": "_readModifyKernelInput",
			"outputs": [
				{
					"internalType": "KernelCompact",
					"name": "kernelCompact",
					"type": "uint256"
				}
			],
			"stateMutability": "nonpayable",
			"type": "function"
		},
		{
			"inputs": [],
			"name": "_readModifyPoolGrowthPortionInput",
			"outputs": [],
			"stateMutability": "nonpayable",
			"type": "function"
		},
		{
			"inputs": [],
			"name": "_readModifyPositionInput",
			"outputs": [],
			"stateMutability": "nonpayable",
			"type": "function"
		},
		{
			"inputs": [],
			"name": "_readSwapInput",
			"outputs": [],
			"stateMutability": "nonpayable",
			"type": "function"
		},
		{
			"inputs": [],
			"name": "_readUpdateGrowthPortionsInput",
			"outputs": [],
			"stateMutability": "nonpayable",
			"type": "function"
		},
		{
			"inputs": [],
			"name": "readAndExpose",
			"outputs": [
				{
					"components": [
						{
							"internalType": "uint256",
							"name": "poolId",
							"type": "uint256"
						},
						{
							"internalType": "X59",
							"name": "logMin",
							"type": "int256"
						},
						{
							"internalType": "X59",
							"name": "logMax",
							"type": "int256"
						},
						{
							"internalType": "int256",
							"name": "shares",
							"type": "int256"
						},
						{
							"internalType": "uint16",
							"name": "hookLen",
							"type": "uint16"
						}
					],
					"internalType": "struct CallWrapperExtended.Exposed",
					"name": "e",
					"type": "tuple"
				}
			],
			"stateMutability": "nonpayable",
			"type": "function"
		},
		{
			"inputs": [],
			"name": "readAndExposeAll",
			"outputs": [
				{
					"components": [
						{
							"internalType": "uint256",
							"name": "poolId",
							"type": "uint256"
						},
						{
							"internalType": "X59",
							"name": "logMin",
							"type": "int256"
						},
						{
							"internalType": "X59",
							"name": "logMax",
							"type": "int256"
						},
						{
							"internalType": "int256",
							"name": "shares",
							"type": "int256"
						},
						{
							"internalType": "uint16",
							"name": "hookLen",
							"type": "uint16"
						},
						{
							"internalType": "Curve",
							"name": "curvePtr",
							"type": "uint256"
						},
						{
							"internalType": "uint256",
							"name": "hookPtr",
							"type": "uint256"
						},
						{
							"internalType": "uint256",
							"name": "freePtr",
							"type": "uint256"
						},
						{
							"internalType": "uint256",
							"name": "hookInputBytes",
							"type": "uint256"
						}
					],
					"internalType": "struct CallWrapperExtended.ExposedAll",
					"name": "e",
					"type": "tuple"
				}
			],
			"stateMutability": "nonpayable",
			"type": "function"
		}
	]
}