{
	"data": {
		"bytecode": {
			"linkReferences": {},
			"object": "6080604052760f0f0f0f0f0f0f0f0f0f0f0f0f0f0f0f0f0f0f0f0f0f0f60b47ffffffffffffffffffffffffffffffffffffffffffffffffffffffffffffffff860ff16901b60bc67f0f0f0f0f0f0f0f0901b61005b91906101c4565b61006591906101c4565b6002555f600355600160045567f00ff00ff00ff00f60055561ffff60065568010000000000000000600755600160085560016009553480156100a5575f5ffd5b506040516100b290610174565b604051809103905ff0801580156100cb573d5f5f3e3d5ffd5b505f5f6101000a81548173ffffffffffffffffffffffffffffffffffffffff021916908373ffffffffffffffffffffffffffffffffffffffff16021790555060405161011690610181565b604051809103905ff08015801561012f573d5f5f3e3d5ffd5b5060015f6101000a81548173ffffffffffffffffffffffffffffffffffffffff021916908373ffffffffffffffffffffffffffffffffffffffff1602179055506101f7565b6115b680610f7483390190565b6119928061252a83390190565b5f819050919050565b7f4e487b71000000000000000000000000000000000000000000000000000000005f52601160045260245ffd5b5f6101ce8261018e565b91506101d98361018e565b92508282019050808211156101f1576101f0610197565b5b92915050565b610d70806102045f395ff3fe608060405234801561000f575f5ffd5b506004361061003f575f3560e01c806377b43e27146100435780637c32121714610061578063ac210cc71461007d575b5f5ffd5b61004b61009b565b6040516100589190610627565b60405180910390f35b61007b600480360381019061007691906106f7565b6100bf565b005b610085610524565b604051610092919061077b565b60405180910390f35b5f5f9054906101000a900473ffffffffffffffffffffffffffffffffffffffff1681565b5f6100cb600254610549565b90505f82600f0b036100dc57600291505b7fffffffffffffffffffffffffffffffff80000000000000000000000000000000600f0b82600f0b0361010e57600191505b8367ffffffffffffffff168567ffffffffffffffff161115610136575f849050859450809550505b5f8567ffffffffffffffff160361014c57600194505b5f8467ffffffffffffffff160361016257600193505b5f8361ffff160361017257600a92505b60018361ffff160361018357600a92505b5f818667ffffffffffffffff1661019a91906107ca565b90505f828667ffffffffffffffff166101b391906107ca565b90505f8590505f8161ffff165f1b8261ffff1667ffffffffffffffff8111156101df576101de61080b565b5b6040519080825280601f01601f1916602001820160405280156102115781602001600182028036833780820191505090505b506040516020016102239291906108b3565b60405160208183030381529060405290505f606490505f8160a061024791906108e3565b90505f8267ffffffffffffffff8111156102645761026361080b565b5b6040519080825280601f01601f1916602001820160405280156102965781602001600182028036833780820191505090505b5090505f60015f9054906101000a905050632100884160e01b6002545f1b895f1b895f1b8d600f0b5f1b875f1b878b6040516020016102dc989796959493929190610961565b60405160208183030381529060405290505f5f60015f9054906101000a900473ffffffffffffffffffffffffffffffffffffffff1673ffffffffffffffffffffffffffffffffffffffff168360405161033591906109ea565b5f604051808303815f865af19150503d805f811461036e576040519150601f19603f3d011682016040523d82523d5f602084013e610373565b606091505b5091509150600115158215151461038d5761038c610a00565b5b5f818060200190518101906103a29190610c25565b9050600254815f0151146103b9576103b8610a00565b5b8c600f0b8160600151146103d0576103cf610a00565b5b6103de81604001518b6105a1565b6103eb576103ea610a00565b5b6103f981602001518c6105a1565b61040657610405610a00565b5b8861ffff16816080015161ffff161461042257610421610a00565b5b5f602060a461ffff168b61ffff16602061080861ffff1661044391906108e3565b61044d91906108e3565b6104579190610c51565b6104619190610c51565b90505f8a61ffff16602061080861ffff1661047c91906108e3565b61048691906108e3565b90505f61080861ffff1690505f6020826104a091906108e3565b90505f8d61ffff16826104b391906108e3565b9050828660a00151146104c9576104c8610a00565b5b818660c00151146104dd576104dc610a00565b5b808660e00151146104f1576104f0610a00565b5b8d61ffff16866080015161ffff161461050d5761050c610a00565b5b505050505050505050505050505050505050505050565b60015f9054906101000a900473ffffffffffffffffffffffffffffffffffffffff1681565b5f5f60ff60b484901c1690505f81905060808112610572576101008161056f9190610c84565b90505b5f603b6010901b905080603b6001901b8361058d9190610cc4565b6105979190610c84565b9350505050919050565b5f818314905092915050565b5f73ffffffffffffffffffffffffffffffffffffffff82169050919050565b5f819050919050565b5f6105ef6105ea6105e5846105ad565b6105cc565b6105ad565b9050919050565b5f610600826105d5565b9050919050565b5f610611826105f6565b9050919050565b61062181610607565b82525050565b5f60208201905061063a5f830184610618565b92915050565b5f604051905090565b5f5ffd5b5f67ffffffffffffffff82169050919050565b6106698161064d565b8114610673575f5ffd5b50565b5f8135905061068481610660565b92915050565b5f61ffff82169050919050565b6106a08161068a565b81146106aa575f5ffd5b50565b5f813590506106bb81610697565b92915050565b5f81600f0b9050919050565b6106d6816106c1565b81146106e0575f5ffd5b50565b5f813590506106f1816106cd565b92915050565b5f5f5f5f6080858703121561070f5761070e610649565b5b5f61071c87828801610676565b945050602061072d87828801610676565b935050604061073e878288016106ad565b925050606061074f878288016106e3565b91505092959194509250565b5f610765826105f6565b9050919050565b6107758161075b565b82525050565b5f60208201905061078e5f83018461076c565b92915050565b5f819050919050565b7f4e487b71000000000000000000000000000000000000000000000000000000005f52601160045260245ffd5b5f6107d482610794565b91506107df83610794565b92508282019050828112155f8312168382125f8412151617156108055761080461079d565b5b92915050565b7f4e487b71000000000000000000000000000000000000000000000000000000005f52604160045260245ffd5b5f819050919050565b5f819050919050565b61085b61085682610838565b610841565b82525050565b5f81519050919050565b5f81905092915050565b8281835e5f83830152505050565b5f61088d82610861565b610897818561086b565b93506108a7818560208601610875565b80840191505092915050565b5f6108be828561084a565b6020820191506108ce8284610883565b91508190509392505050565b5f819050919050565b5f6108ed826108da565b91506108f8836108da565b92508282019050808211156109105761090f61079d565b5b92915050565b5f7fffffffff0000000000000000000000000000000000000000000000000000000082169050919050565b5f819050919050565b61095b61095682610916565b610941565b82525050565b5f61096c828b61094a565b60048201915061097c828a61084a565b60208201915061098c828961084a565b60208201915061099c828861084a565b6020820191506109ac828761084a565b6020820191506109bc828661084a565b6020820191506109cc8285610883565b91506109d88284610883565b91508190509998505050505050505050565b5f6109f58284610883565b915081905092915050565b7f4e487b71000000000000000000000000000000000000000000000000000000005f52600160045260245ffd5b5f5ffd5b5f601f19601f8301169050919050565b610a4a82610a31565b810181811067ffffffffffffffff82111715610a6957610a6861080b565b5b80604052505050565b5f610a7b610640565b9050610a878282610a41565b919050565b610a95816108da565b8114610a9f575f5ffd5b50565b5f81519050610ab081610a8c565b92915050565b610abf81610794565b8114610ac9575f5ffd5b50565b5f81519050610ada81610ab6565b92915050565b610ae981610794565b8114610af3575f5ffd5b50565b5f81519050610b0481610ae0565b92915050565b5f81519050610b1881610697565b92915050565b610b27816108da565b8114610b31575f5ffd5b50565b5f81519050610b4281610b1e565b92915050565b5f6101208284031215610b5e57610b5d610a2d565b5b610b69610120610a72565b90505f610b7884828501610aa2565b5f830152506020610b8b84828501610acc565b6020830152506040610b9f84828501610acc565b6040830152506060610bb384828501610af6565b6060830152506080610bc784828501610b0a565b60808301525060a0610bdb84828501610b34565b60a08301525060c0610bef84828501610aa2565b60c08301525060e0610c0384828501610aa2565b60e083015250610100610c1884828501610aa2565b6101008301525092915050565b5f6101208284031215610c3b57610c3a610649565b5b5f610c4884828501610b48565b91505092915050565b5f610c5b826108da565b9150610c66836108da565b9250828203905081811115610c7e57610c7d61079d565b5b92915050565b5f610c8e82610794565b9150610c9983610794565b925082820390508181125f8412168282135f851215161715610cbe57610cbd61079d565b5b92915050565b5f610cce82610794565b9150610cd983610794565b9250828202610ce781610794565b91507f800000000000000000000000000000000000000000000000000000000000000084145f84121615610d1e57610d1d61079d565b5b8282058414831517610d3357610d3261079d565b5b509291505056fea2646970667358221220723c2c909793009d9faa890d56a1286005dfd1688aee6c8784e2e81421676e6564736f6c634300081c00336080604052348015600e575f5ffd5b5061159a8061001c5f395ff3fe608060405234801561000f575f5ffd5b5060043610610086575f3560e01c80639c3bdba5116100595780639c3bdba5146100c6578063d28b2ce7146100d0578063e7675635146100da578063ed93ed85146100f857610086565b806338e598371461008a5780636853005d14610094578063720221f8146100b257806376e9a038146100bc575b5f5ffd5b610092610102565b005b61009c61011c565b6040516100a9919061133e565b60405180910390f35b6100ba61013a565b005b6100c4610154565b005b6100ce61016e565b005b6100d8610188565b005b6100e26101a8565b6040516100ef919061133e565b60405180910390f35b6101006101c6565b005b61010a6101e0565b5f610113610283565b90505f815fa150565b5f61012561028c565b90505f610130610283565b90505f815fa15090565b61014261037a565b5f61014b610283565b90505f815fa150565b61015c6103b1565b5f610165610283565b90505f815fa150565b61017661052b565b5f61017f610283565b90505f815fa150565b61019061054b565b5f6101996106e0565b90505f60208260a401015fa150565b5f6101b16106e9565b90505f6101bc610283565b90505f815fa15090565b6101ce610a9e565b5f6101d7610283565b90505f815fa150565b6101e933610e30565b5f60043590506101f881610e44565b5f602435905061020e8165800000000000610e4b565b8190610250576040517f1f84bbb30000000000000000000000000000000000000000000000000000000081526004016102479190611366565b60405180910390fd5b5061025a81610e5f565b505f602060a46108080303905061027081610e75565b61027f61080861ffff16610e7c565b5050565b5f604051905090565b5f61029633610e30565b5f60043590506102a581610e44565b5f5f5f60243560040191506108089250813560051b90506005810460051b830194506102d083610e83565b5f5f5f5f604435600401858a019450803593508385019150602060a4830303925085602088018b37836020820186375061030984610e8b565b61ffff80168311158390610353576040517f805cfd4b00000000000000000000000000000000000000000000000000000000815260040161034a919061138e565b60405180910390fd5b5061035d83610e93565b61036682610e75565b61036f81610e7c565b505050505050505090565b5f600435905061038981610e44565b5f602060a46108080303905061039e81610e75565b6103ad61080861ffff16610e7c565b5050565b6103ba33610e30565b5f60043590506103c981610e44565b505f60243590506f7fffffffffffffffffffffffffffffff600f0b8113158190610429576040517fc270deb300000000000000000000000000000000000000000000000000000000815260040161042091906113bf565b60405180910390fd5b505f8113819061046f576040517fc270deb300000000000000000000000000000000000000000000000000000000815260040161046691906113bf565b60405180910390fd5b5061047981610ea9565b505f5f5f5f5f60443560040161080895506020610808019450803593508385019150602060a4830303925083602082018637506104b585610eb1565b6104be84610e8b565b61ffff80168311158390610508576040517f805cfd4b0000000000000000000000000000000000000000000000000000000081526004016104ff919061138e565b60405180910390fd5b5061051283610e93565b61051b82610e75565b61052481610e7c565b5050505050565b5f600435905061053a81610e44565b61054860f861ffff16610e7c565b50565b61055433610e30565b5f600435905061056381610e44565b5f60243590506f7fffffffffffffffffffffffffffffff5f03811215610599576f7fffffffffffffffffffffffffffffff5f0390505b6f7fffffffffffffffffffffffffffffff8113156105c5576f7fffffffffffffffffffffffffffffff90505b6001607f1b810290506105d781610eb9565b5f60443590506105e681610ec1565b5f60643560801c90506f7fffffffffffffffffffffffffffffff81111561061b576f7fffffffffffffffffffffffffffffff90505b61062481610ec9565b60743560801c600281111561063857600290505b8061015053505f5f5f5f6084356004016108089350803592508284019450602060a48603039150826020820185375061067083610e8b565b61ffff801682111582906106ba576040517f805cfd4b0000000000000000000000000000000000000000000000000000000081526004016106b1919061138e565b60405180910390fd5b506106c482610e93565b6106cd81610e75565b6106d684610e83565b5050505050505050565b5f60a451905090565b5f6106f333610e30565b5f5f600435905061070381610edd565b91505061070f81610e44565b5f8103610748576040517f4e79178600000000000000000000000000000000000000000000000000000000815260040160405180910390fd5b5f61075a61075583610ef8565b610f1b565b14819061079d576040517fa3a300c7000000000000000000000000000000000000000000000000000000008152600401610794919061138e565b60405180910390fd5b505f6107a882610f25565b90506107c8816802d0000000000000005f6107c39190611405565b610f39565b819061080a576040517fa2ff8abd0000000000000000000000000000000000000000000000000000000081526004016108019190611475565b60405180910390fd5b5061081e816802d000000000000000610f45565b8190610860576040517fa2ff8abd0000000000000000000000000000000000000000000000000000000081526004016108579190611475565b60405180910390fd5b5061087261086d82610f51565b610fca565b61088c6108876108825f84610fd2565b610f51565b610fde565b50505f602435905061089d81610fe6565b5f60443590506108ac81610fee565b6108b68183610ff6565b828290916108fb576040517ffe92479c0000000000000000000000000000000000000000000000000000000081526004016108f292919061149d565b60405180910390fd5b505050505f60643590506109158165800000000000610e4b565b8190610957576040517f1f84bbb300000000000000000000000000000000000000000000000000000000815260040161094e9190611366565b60405180910390fd5b5061096181610e5f565b505f5f5f60843560040191506108089250813560051b90506005810460051b8301935061098d83610e83565b5f5f5f60a43560040191508387019250813560051b905060208110156109df576040517f0a4912d800000000000000000000000000000000000000000000000000000000815260040160405180910390fd5b6109e883610eb1565b5f5f5f5f60c4356004016008868901019450803593508385019150602060a483030392508860208b018d37856020880189378360208201863750610a2b84610e8b565b61ffff80168311158390610a75576040517f805cfd4b000000000000000000000000000000000000000000000000000000008152600401610a6c919061138e565b60405180910390fd5b50610a7f83610e93565b610a8882610e75565b610a9181610e7c565b5050505050505050505090565b610aa733610e30565b5f6004359050610ab681610e44565b5f610ad1610ac383610f25565b678000000000000000610fd2565b90505f6024359050610ae281611002565b5f610aed8284610fd2565b9050610af9815f610f39565b8290610b3b576040517f42d01168000000000000000000000000000000000000000000000000000000008152600401610b329190611475565b60405180910390fd5b50610b4f8168010000000000000000610f45565b8290610b91576040517f42d01168000000000000000000000000000000000000000000000000000000008152600401610b889190611475565b60405180910390fd5b50610b9b8161100a565b5f6044359050610baa8161101e565b5f610bb58286610fd2565b9050610bc1815f610f39565b8290610c03576040517f42d01168000000000000000000000000000000000000000000000000000000008152600401610bfa9190611475565b60405180910390fd5b50610c178168010000000000000000610f45565b8290610c59576040517f42d01168000000000000000000000000000000000000000000000000000000008152600401610c509190611475565b60405180910390fd5b50610c6381611026565b5050505050505f60643590506f7fffffffffffffffffffffffffffffff600f0b8113158190610cc8576040517fc270deb3000000000000000000000000000000000000000000000000000000008152600401610cbf91906113bf565b60405180910390fd5b506f7fffffffffffffffffffffffffffffff5f610ce591906114d0565b600f0b8112158190610d2d576040517fc270deb3000000000000000000000000000000000000000000000000000000008152600401610d2491906113bf565b60405180910390fd5b505f8114158190610d74576040517fc270deb3000000000000000000000000000000000000000000000000000000008152600401610d6b91906113bf565b60405180910390fd5b50610d7e81610ea9565b505f5f5f5f5f60843560040161080895506020610808019450803593508385019150602060a483030392508360208201863750610dba85610eb1565b610dc384610e8b565b61ffff80168311158390610e0d576040517f805cfd4b000000000000000000000000000000000000000000000000000000008152600401610e04919061138e565b60405180910390fd5b50610e1783610e93565b610e2082610e75565b610e2981610e7c565b5050505050565b601460c4015160a01c8160601b1760c45250565b8060d85250565b5f610e56838361103c565b15905092915050565b60066107f4015160301c8160d01b176107f45250565b8060a45250565b8060405250565b806105ef5250565b8061062f5250565b6002610653015160101c8160f01b176106535250565b806101085250565b8061060f5250565b806101085250565b806101285250565b601060f8015160801c8160801b1760f85250565b5f3360601b5f528160145260345f2060bc1b82019050919050565b5f6f6890d047ad8c870137858a70716b2c6b601052815f5260305f209050919050565b5f81549050919050565b5f8160b41c5f0b6001603b1b029050919050565b5f818313905092915050565b5f818312905092915050565b5f5f610f6e610f696802d00000000000000085610fd2565b611048565b90507fcf8e41e6c4d4aa5e9cc597c10cd32eacd30c44f750a8ffdb1a8863dd8f72f0a57f872db9e8ffa9e7d41f2aaf39897b91e4002e70fceed391471fad73d51503772d600160bf1b8309600160bf1b83020302915050919050565b806107205250565b5f818303905092915050565b806107405250565b806106e05250565b806107005250565b5f818311905092915050565b806101285250565b600860f8015160401c8160c01b1760f85250565b806101485250565b6008610100015160401c8160c01b176101005250565b5f818311905092915050565b5f5f8290505f7f800000000000000000000000000000000000000000000000000000000000000060036025848502901b8161108657611085611537565b5b04019050609282901b915060026110c28383037f40000000000000000000000000000000000000000000000000000000000000008585016112e0565b901b90508081025f198283090390508081025f198283090390508081025f198283090390508081025f198283090390508081025f198283090390508081025f198283090390508081025f198283090390508081025f198283090390508081025f198283090390508081025f198283090390508081025f198283090390508081025f198283090390508081025f198283090390508081025f198283090390508081025f198283090390508081025f198283090390508081025f198283090390508081025f198283090390508081025f198283090390508081025f198283090390508081025f198283090390508081025f198283090390508081025f198283090390508081025f198283090390508081025f198283090390508081025f198283090390508081025f198283090390508081025f198283090390508081025f198283090390508081025f198283090390508081025f198283090390508081025f198283090390508081025f198283090390508081025f198283090390508081025f198283090390508081025f198283090390508081025f198283090390508081025f198283090390508081025f198283090390508081025f198283090390508081025f198283090390508081025f198283090390508081025f198283090390508081025f198283090390508081025f198283090390508081025f198283090390508081025f198283090390508081025f198283090390508092505050919050565b5f60018203905080828486098203828587090890509392505050565b5f819050919050565b5f819050919050565b5f61132861132361131e846112fc565b611305565b6112fc565b9050919050565b6113388161130e565b82525050565b5f6020820190506113515f83018461132f565b92915050565b6113608161130e565b82525050565b5f6020820190506113795f830184611357565b92915050565b611388816112fc565b82525050565b5f6020820190506113a15f83018461137f565b92915050565b5f819050919050565b6113b9816113a7565b82525050565b5f6020820190506113d25f8301846113b0565b92915050565b7f4e487b71000000000000000000000000000000000000000000000000000000005f52601160045260245ffd5b5f61140f826113a7565b915061141a836113a7565b925082820390508181125f8412168282135f85121516171561143f5761143e6113d8565b5b92915050565b5f61145f61145a611455846113a7565b611305565b6113a7565b9050919050565b61146f81611445565b82525050565b5f6020820190506114885f830184611466565b92915050565b6114978161130e565b82525050565b5f6040820190506114b05f83018561148e565b6114bd602083018461148e565b9392505050565b5f81600f0b9050919050565b5f6114da826114c4565b91506114e5836114c4565b925082820390506f7fffffffffffffffffffffffffffffff81137fffffffffffffffffffffffffffffffff8000000000000000000000000000000082121715611531576115306113d8565b5b92915050565b7f4e487b71000000000000000000000000000000000000000000000000000000005f52601260045260245ffdfea2646970667358221220d10df97e3728645e368a656bb371f2bad4bfb8ca1e08ac7926e29b69080035f664736f6c634300081c00336080604052348015600e575f5ffd5b506119768061001c5f395ff3fe608060405234801561000f575f5ffd5b506004361061009c575f3560e01c806376e9a0381161006457806376e9a0381461010e5780639c3bdba514610118578063d28b2ce714610122578063e76756351461012c578063ed93ed851461014a5761009c565b806321008841146100a057806338e59837146100be5780634332be3d146100c85780636853005d146100e6578063720221f814610104575b5f5ffd5b6100a8610154565b6040516100b5919061169c565b60405180910390f35b6100c661020a565b005b6100d0610224565b6040516100dd919061171c565b60405180910390f35b6100ee610295565b6040516100fb9190611744565b60405180910390f35b61010c6102b3565b005b6101166102cd565b005b6101206102e7565b005b61012a610301565b005b610134610321565b6040516101419190611744565b60405180910390f35b61015261033f565b005b61015c6114bd565b61016461033f565b61016c610359565b815f01818152505061017c610362565b81602001818152505061018d61036c565b81604001818152505061019e610376565b8160600181815250506101af610380565b816080019061ffff16908161ffff16815250506101ca61038d565b8160a00181815250506101db610397565b8160c00181815250506101ec6103a1565b8160e00181815250506101fd6103aa565b8161010001818152505090565b6102126103b3565b5f61021b6103a1565b90505f815fa150565b61022c611504565b610234610456565b61023c610359565b815f01818152505061024c610362565b81602001818152505061025d61036c565b81604001818152505061026e610376565b81606001818152505061027f610380565b816080019061ffff16908161ffff168152505090565b5f61029e6107e8565b90505f6102a96103a1565b90505f815fa15090565b6102bb6108d6565b5f6102c46103a1565b90505f815fa150565b6102d561090d565b5f6102de6103a1565b90505f815fa150565b6102ef610a87565b5f6102f86103a1565b90505f815fa150565b610309610aa7565b5f6103126103aa565b90505f60208260a401015fa150565b5f61032a610c3c565b90505f6103356103a1565b90505f815fa15090565b610347610456565b5f6103506103a1565b90505f815fa150565b5f60d851905090565b5f61012851905090565b5f61014851905090565b5f61010851905090565b5f6106535160f01c905090565b5f61060f51905090565b5f61062f51905090565b5f604051905090565b5f60a451905090565b6103bc33610ff1565b5f60043590506103cb81611005565b5f60243590506103e1816580000000000061100c565b8190610423576040517f1f84bbb300000000000000000000000000000000000000000000000000000000815260040161041a919061176c565b60405180910390fd5b5061042d81611020565b505f602060a46108080303905061044381611036565b61045261080861ffff1661103d565b5050565b61045f33610ff1565b5f600435905061046e81611005565b5f61048961047b83611044565b678000000000000000611058565b90505f602435905061049a81611064565b5f6104a58284611058565b90506104b1815f61106c565b82906104f3576040517f42d011680000000000000000000000000000000000000000000000000000000081526004016104ea9190611794565b60405180910390fd5b506105078168010000000000000000611078565b8290610549576040517f42d011680000000000000000000000000000000000000000000000000000000081526004016105409190611794565b60405180910390fd5b5061055381611084565b5f604435905061056281611098565b5f61056d8286611058565b9050610579815f61106c565b82906105bb576040517f42d011680000000000000000000000000000000000000000000000000000000081526004016105b29190611794565b60405180910390fd5b506105cf8168010000000000000000611078565b8290610611576040517f42d011680000000000000000000000000000000000000000000000000000000081526004016106089190611794565b60405180910390fd5b5061061b816110a0565b5050505050505f60643590506f7fffffffffffffffffffffffffffffff600f0b8113158190610680576040517fc270deb300000000000000000000000000000000000000000000000000000000815260040161067791906117bc565b60405180910390fd5b506f7fffffffffffffffffffffffffffffff5f61069d919061180e565b600f0b81121581906106e5576040517fc270deb30000000000000000000000000000000000000000000000000000000081526004016106dc91906117bc565b60405180910390fd5b505f811415819061072c576040517fc270deb300000000000000000000000000000000000000000000000000000000815260040161072391906117bc565b60405180910390fd5b50610736816110b6565b505f5f5f5f5f60843560040161080895506020610808019450803593508385019150602060a483030392508360208201863750610772856110be565b61077b846110c6565b61ffff801683111583906107c5576040517f805cfd4b0000000000000000000000000000000000000000000000000000000081526004016107bc9190611884565b60405180910390fd5b506107cf836110ce565b6107d882611036565b6107e18161103d565b5050505050565b5f6107f233610ff1565b5f600435905061080181611005565b5f5f5f60243560040191506108089250813560051b90506005810460051b8301945061082c836110e4565b5f5f5f5f604435600401858a019450803593508385019150602060a4830303925085602088018b378360208201863750610865846110c6565b61ffff801683111583906108af576040517f805cfd4b0000000000000000000000000000000000000000000000000000000081526004016108a69190611884565b60405180910390fd5b506108b9836110ce565b6108c282611036565b6108cb8161103d565b505050505050505090565b5f60043590506108e581611005565b5f602060a4610808030390506108fa81611036565b61090961080861ffff1661103d565b5050565b61091633610ff1565b5f600435905061092581611005565b505f60243590506f7fffffffffffffffffffffffffffffff600f0b8113158190610985576040517fc270deb300000000000000000000000000000000000000000000000000000000815260040161097c91906117bc565b60405180910390fd5b505f811381906109cb576040517fc270deb30000000000000000000000000000000000000000000000000000000081526004016109c291906117bc565b60405180910390fd5b506109d5816110b6565b505f5f5f5f5f60443560040161080895506020610808019450803593508385019150602060a483030392508360208201863750610a11856110be565b610a1a846110c6565b61ffff80168311158390610a64576040517f805cfd4b000000000000000000000000000000000000000000000000000000008152600401610a5b9190611884565b60405180910390fd5b50610a6e836110ce565b610a7782611036565b610a808161103d565b5050505050565b5f6004359050610a9681611005565b610aa460f861ffff1661103d565b50565b610ab033610ff1565b5f6004359050610abf81611005565b5f60243590506f7fffffffffffffffffffffffffffffff5f03811215610af5576f7fffffffffffffffffffffffffffffff5f0390505b6f7fffffffffffffffffffffffffffffff811315610b21576f7fffffffffffffffffffffffffffffff90505b6001607f1b81029050610b33816110ec565b5f6044359050610b42816110f4565b5f60643560801c90506f7fffffffffffffffffffffffffffffff811115610b77576f7fffffffffffffffffffffffffffffff90505b610b80816110fc565b60743560801c6002811115610b9457600290505b8061015053505f5f5f5f6084356004016108089350803592508284019450602060a486030391508260208201853750610bcc836110c6565b61ffff80168211158290610c16576040517f805cfd4b000000000000000000000000000000000000000000000000000000008152600401610c0d9190611884565b60405180910390fd5b50610c20826110ce565b610c2981611036565b610c32846110e4565b5050505050505050565b5f610c4633610ff1565b5f5f6004359050610c5681611110565b915050610c6281611005565b5f8103610c9b576040517f4e79178600000000000000000000000000000000000000000000000000000000815260040160405180910390fd5b5f610cad610ca88361112b565b61114e565b148190610cf0576040517fa3a300c7000000000000000000000000000000000000000000000000000000008152600401610ce79190611884565b60405180910390fd5b505f610cfb82611044565b9050610d1b816802d0000000000000005f610d16919061189d565b61106c565b8190610d5d576040517fa2ff8abd000000000000000000000000000000000000000000000000000000008152600401610d549190611794565b60405180910390fd5b50610d71816802d000000000000000611078565b8190610db3576040517fa2ff8abd000000000000000000000000000000000000000000000000000000008152600401610daa9190611794565b60405180910390fd5b50610dc5610dc082611158565b6111d1565b610ddf610dda610dd55f84611058565b611158565b6111d9565b50505f6024359050610df0816111e1565b5f6044359050610dff816111e9565b610e0981836111f1565b82829091610e4e576040517ffe92479c000000000000000000000000000000000000000000000000000000008152600401610e459291906118ec565b60405180910390fd5b505050505f6064359050610e68816580000000000061100c565b8190610eaa576040517f1f84bbb3000000000000000000000000000000000000000000000000000000008152600401610ea1919061176c565b60405180910390fd5b50610eb481611020565b505f5f5f60843560040191506108089250813560051b90506005810460051b83019350610ee0836110e4565b5f5f5f60a43560040191508387019250813560051b90506020811015610f32576040517f0a4912d800000000000000000000000000000000000000000000000000000000815260040160405180910390fd5b610f3b836110be565b5f5f5f5f60c4356004016008868901019450803593508385019150602060a483030392508860208b018d37856020880189378360208201863750610f7e846110c6565b61ffff80168311158390610fc8576040517f805cfd4b000000000000000000000000000000000000000000000000000000008152600401610fbf9190611884565b60405180910390fd5b50610fd2836110ce565b610fdb82611036565b610fe48161103d565b5050505050505050505090565b601460c4015160a01c8160601b1760c45250565b8060d85250565b5f61101783836111fd565b15905092915050565b60066107f4015160301c8160d01b176107f45250565b8060a45250565b8060405250565b5f8160b41c5f0b6001603b1b029050919050565b5f818303905092915050565b806101285250565b5f818313905092915050565b5f818312905092915050565b600860f8015160401c8160c01b1760f85250565b806101485250565b6008610100015160401c8160c01b176101005250565b806101085250565b8061060f5250565b8061062f5250565b6002610653015160101c8160f01b176106535250565b806105ef5250565b806101085250565b806101285250565b601060f8015160801c8160801b1760f85250565b5f3360601b5f528160145260345f2060bc1b82019050919050565b5f6f6890d047ad8c870137858a70716b2c6b601052815f5260305f209050919050565b5f81549050919050565b5f5f6111756111706802d00000000000000085611058565b611209565b90507fcf8e41e6c4d4aa5e9cc597c10cd32eacd30c44f750a8ffdb1a8863dd8f72f0a57f872db9e8ffa9e7d41f2aaf39897b91e4002e70fceed391471fad73d51503772d600160bf1b8309600160bf1b83020302915050919050565b806107205250565b806107405250565b806106e05250565b806107005250565b5f818311905092915050565b5f818311905092915050565b5f5f8290505f7f800000000000000000000000000000000000000000000000000000000000000060036025848502901b8161124757611246611913565b5b04019050609282901b915060026112838383037f40000000000000000000000000000000000000000000000000000000000000008585016114a1565b901b90508081025f198283090390508081025f198283090390508081025f198283090390508081025f198283090390508081025f198283090390508081025f198283090390508081025f198283090390508081025f198283090390508081025f198283090390508081025f198283090390508081025f198283090390508081025f198283090390508081025f198283090390508081025f198283090390508081025f198283090390508081025f198283090390508081025f198283090390508081025f198283090390508081025f198283090390508081025f198283090390508081025f198283090390508081025f198283090390508081025f198283090390508081025f198283090390508081025f198283090390508081025f198283090390508081025f198283090390508081025f198283090390508081025f198283090390508081025f198283090390508081025f198283090390508081025f198283090390508081025f198283090390508081025f198283090390508081025f198283090390508081025f198283090390508081025f198283090390508081025f198283090390508081025f198283090390508081025f198283090390508081025f198283090390508081025f198283090390508081025f198283090390508081025f198283090390508081025f198283090390508081025f198283090390508081025f198283090390508081025f198283090390508092505050919050565b5f60018203905080828486098203828587090890509392505050565b6040518061012001604052805f81526020015f81526020015f81526020015f81526020015f61ffff1681526020015f81526020015f81526020015f81526020015f81525090565b6040518060a001604052805f81526020015f81526020015f81526020015f81526020015f61ffff1681525090565b5f819050919050565b61154481611532565b82525050565b5f819050919050565b5f819050919050565b5f61157661157161156c8461154a565b611553565b61154a565b9050919050565b6115868161155c565b82525050565b6115958161154a565b82525050565b5f61ffff82169050919050565b6115b18161159b565b82525050565b5f6115d16115cc6115c784611532565b611553565b611532565b9050919050565b6115e1816115b7565b82525050565b61012082015f8201516115fc5f85018261153b565b50602082015161160f602085018261157d565b506040820151611622604085018261157d565b506060820151611635606085018261158c565b50608082015161164860808501826115a8565b5060a082015161165b60a08501826115d8565b5060c082015161166e60c085018261153b565b5060e082015161168160e085018261153b565b5061010082015161169661010085018261153b565b50505050565b5f610120820190506116b05f8301846115e7565b92915050565b60a082015f8201516116ca5f85018261153b565b5060208201516116dd602085018261157d565b5060408201516116f0604085018261157d565b506060820151611703606085018261158c565b50608082015161171660808501826115a8565b50505050565b5f60a08201905061172f5f8301846116b6565b92915050565b61173e816115b7565b82525050565b5f6020820190506117575f830184611735565b92915050565b611766816115b7565b82525050565b5f60208201905061177f5f83018461175d565b92915050565b61178e8161155c565b82525050565b5f6020820190506117a75f830184611785565b92915050565b6117b68161154a565b82525050565b5f6020820190506117cf5f8301846117ad565b92915050565b5f81600f0b9050919050565b7f4e487b71000000000000000000000000000000000000000000000000000000005f52601160045260245ffd5b5f611818826117d5565b9150611823836117d5565b925082820390506f7fffffffffffffffffffffffffffffff81137fffffffffffffffffffffffffffffffff800000000000000000000000000000008212171561186f5761186e6117e1565b5b92915050565b61187e81611532565b82525050565b5f6020820190506118975f830184611875565b92915050565b5f6118a78261154a565b91506118b28361154a565b925082820390508181125f8412168282135f8512151617156118d7576118d66117e1565b5b92915050565b6118e6816115b7565b82525050565b5f6040820190506118ff5f8301856118dd565b61190c60208301846118dd565b9392505050565b7f4e487b71000000000000000000000000000000000000000000000000000000005f52601260045260245ffdfea26469706673582212204518f30e01fc989aa4aaf2295d71adfd59f3eb6be64062bb5b0c120e891dcb6f64736f6c634300081c0033",
			"opcodes": "PUSH1 0x80 PUSH1 0x40 MSTORE PUSH23 0xF0F0F0F0F0F0F0F0F0F0F0F0F0F0F0F0F0F0F0F0F0F0F PUSH1 0xB4 PUSH32 0xFFFFFFFFFFFFFFFFFFFFFFFFFFFFFFFFFFFFFFFFFFFFFFFFFFFFFFFFFFFFFFF8 PUSH1 0xFF AND SWAP1 SHL PUSH1 0xBC PUSH8 0xF0F0F0F0F0F0F0F0 SWAP1 SHL PUSH2 0x5B SWAP2 SWAP1 PUSH2 0x1C4 JUMP JUMPDEST PUSH2 0x65 SWAP2 SWAP1 PUSH2 0x1C4 JUMP JUMPDEST PUSH1 0x2 SSTORE PUSH0 PUSH1 0x3 SSTORE PUSH1 0x1 PUSH1 0x4 SSTORE PUSH8 0xF00FF00FF00FF00F PUSH1 0x5 SSTORE PUSH2 0xFFFF PUSH1 0x6 SSTORE PUSH9 0x10000000000000000 PUSH1 0x7 SSTORE PUSH1 0x1 PUSH1 0x8 SSTORE PUSH1 0x1 PUSH1 0x9 SSTORE CALLVALUE DUP1 ISZERO PUSH2 0xA5 JUMPI PUSH0 PUSH0 REVERT JUMPDEST POP PUSH1 0x40 MLOAD PUSH2 0xB2 SWAP1 PUSH2 0x174 JUMP JUMPDEST PUSH1 0x40 MLOAD DUP1 SWAP2 SUB SWAP1 PUSH0 CREATE DUP1 ISZERO DUP1 ISZERO PUSH2 0xCB JUMPI RETURNDATASIZE PUSH0 PUSH0 RETURNDATACOPY RETURNDATASIZE PUSH0 REVERT JUMPDEST POP PUSH0 PUSH0 PUSH2 0x100 EXP DUP2 SLOAD DUP2 PUSH20 0xFFFFFFFFFFFFFFFFFFFFFFFFFFFFFFFFFFFFFFFF MUL NOT AND SWAP1 DUP4 PUSH20 0xFFFFFFFFFFFFFFFFFFFFFFFFFFFFFFFFFFFFFFFF AND MUL OR SWAP1 SSTORE POP PUSH1 0x40 MLOAD PUSH2 0x116 SWAP1 PUSH2 0x181 JUMP JUMPDEST PUSH1 0x40 MLOAD DUP1 SWAP2 SUB SWAP1 PUSH0 CREATE DUP1 ISZERO DUP1 ISZERO PUSH2 0x12F JUMPI RETURNDATASIZE PUSH0 PUSH0 RETURNDATACOPY RETURNDATASIZE PUSH0 REVERT JUMPDEST POP PUSH1 0x1 PUSH0 PUSH2 0x100 EXP DUP2 SLOAD DUP2 PUSH20 0xFFFFFFFFFFFFFFFFFFFFFFFFFFFFFFFFFFFFFFFF MUL NOT AND SWAP1 DUP4 PUSH20 0xFFFFFFFFFFFFFFFFFFFFFFFFFFFFFFFFFFFFFFFF AND MUL OR SWAP1 SSTORE POP PUSH2 0x1F7 JUMP JUMPDEST PUSH2 0x15B6 DUP1 PUSH2 0xF74 DUP4 CODECOPY ADD SWAP1 JUMP JUMPDEST PUSH2 0x1992 DUP1 PUSH2 0x252A DUP4 CODECOPY ADD SWAP1 JUMP JUMPDEST PUSH0 DUP2 SWAP1 POP SWAP2 SWAP1 POP JUMP JUMPDEST PUSH32 0x4E487B7100000000000000000000000000000000000000000000000000000000 PUSH0 MSTORE PUSH1 0x11 PUSH1 0x4 MSTORE PUSH1 0x24 PUSH0 REVERT JUMPDEST PUSH0 PUSH2 0x1CE DUP3 PUSH2 0x18E JUMP JUMPDEST SWAP2 POP PUSH2 0x1D9 DUP4 PUSH2 0x18E JUMP JUMPDEST SWAP3 POP DUP3 DUP3 ADD SWAP1 POP DUP1 DUP3 GT ISZERO PUSH2 0x1F1 JUMPI PUSH2 0x1F0 PUSH2 0x197 JUMP JUMPDEST JUMPDEST SWAP3 SWAP2 POP POP JUMP JUMPDEST PUSH2 0xD70 DUP1 PUSH2 0x204 PUSH0 CODECOPY PUSH0 RETURN INVALID PUSH1 0x80 PUSH1 0x40 MSTORE CALLVALUE DUP1 ISZERO PUSH2 0xF JUMPI PUSH0 PUSH0 REVERT JUMPDEST POP PUSH1 0x4 CALLDATASIZE LT PUSH2 0x3F JUMPI PUSH0 CALLDATALOAD PUSH1 0xE0 SHR DUP1 PUSH4 0x77B43E27 EQ PUSH2 0x43 JUMPI DUP1 PUSH4 0x7C321217 EQ PUSH2 0x61 JUMPI DUP1 PUSH4 0xAC210CC7 EQ PUSH2 0x7D JUMPI JUMPDEST PUSH0 PUSH0 REVERT JUMPDEST PUSH2 0x4B PUSH2 0x9B JUMP JUMPDEST PUSH1 0x40 MLOAD PUSH2 0x58 SWAP2 SWAP1 PUSH2 0x627 JUMP JUMPDEST PUSH1 0x40 MLOAD DUP1 SWAP2 SUB SWAP1 RETURN JUMPDEST PUSH2 0x7B PUSH1 0x4 DUP1 CALLDATASIZE SUB DUP2 ADD SWAP1 PUSH2 0x76 SWAP2 SWAP1 PUSH2 0x6F7 JUMP JUMPDEST PUSH2 0xBF JUMP JUMPDEST STOP JUMPDEST PUSH2 0x85 PUSH2 0x524 JUMP JUMPDEST PUSH1 0x40 MLOAD PUSH2 0x92 SWAP2 SWAP1 PUSH2 0x77B JUMP JUMPDEST PUSH1 0x40 MLOAD DUP1 SWAP2 SUB SWAP1 RETURN JUMPDEST PUSH0 PUSH0 SWAP1 SLOAD SWAP1 PUSH2 0x100 EXP SWAP1 DIV PUSH20 0xFFFFFFFFFFFFFFFFFFFFFFFFFFFFFFFFFFFFFFFF AND DUP2 JUMP JUMPDEST PUSH0 PUSH2 0xCB PUSH1 0x2 SLOAD PUSH2 0x549 JUMP JUMPDEST SWAP1 POP PUSH0 DUP3 PUSH1 0xF SIGNEXTEND SUB PUSH2 0xDC JUMPI PUSH1 0x2 SWAP2 POP JUMPDEST PUSH32 0xFFFFFFFFFFFFFFFFFFFFFFFFFFFFFFFF80000000000000000000000000000000 PUSH1 0xF SIGNEXTEND DUP3 PUSH1 0xF SIGNEXTEND SUB PUSH2 0x10E JUMPI PUSH1 0x1 SWAP2 POP JUMPDEST DUP4 PUSH8 0xFFFFFFFFFFFFFFFF AND DUP6 PUSH8 0xFFFFFFFFFFFFFFFF AND GT ISZERO PUSH2 0x136 JUMPI PUSH0 DUP5 SWAP1 POP DUP6 SWAP5 POP DUP1 SWAP6 POP POP JUMPDEST PUSH0 DUP6 PUSH8 0xFFFFFFFFFFFFFFFF AND SUB PUSH2 0x14C JUMPI PUSH1 0x1 SWAP5 POP JUMPDEST PUSH0 DUP5 PUSH8 0xFFFFFFFFFFFFFFFF AND SUB PUSH2 0x162 JUMPI PUSH1 0x1 SWAP4 POP JUMPDEST PUSH0 DUP4 PUSH2 0xFFFF AND SUB PUSH2 0x172 JUMPI PUSH1 0xA SWAP3 POP JUMPDEST PUSH1 0x1 DUP4 PUSH2 0xFFFF AND SUB PUSH2 0x183 JUMPI PUSH1 0xA SWAP3 POP JUMPDEST PUSH0 DUP2 DUP7 PUSH8 0xFFFFFFFFFFFFFFFF AND PUSH2 0x19A SWAP2 SWAP1 PUSH2 0x7CA JUMP JUMPDEST SWAP1 POP PUSH0 DUP3 DUP7 PUSH8 0xFFFFFFFFFFFFFFFF AND PUSH2 0x1B3 SWAP2 SWAP1 PUSH2 0x7CA JUMP JUMPDEST SWAP1 POP PUSH0 DUP6 SWAP1 POP PUSH0 DUP2 PUSH2 0xFFFF AND PUSH0 SHL DUP3 PUSH2 0xFFFF AND PUSH8 0xFFFFFFFFFFFFFFFF DUP2 GT ISZERO PUSH2 0x1DF JUMPI PUSH2 0x1DE PUSH2 0x80B JUMP JUMPDEST JUMPDEST PUSH1 0x40 MLOAD SWAP1 DUP1 DUP3 MSTORE DUP1 PUSH1 0x1F ADD PUSH1 0x1F NOT AND PUSH1 0x20 ADD DUP3 ADD PUSH1 0x40 MSTORE DUP1 ISZERO PUSH2 0x211 JUMPI DUP2 PUSH1 0x20 ADD PUSH1 0x1 DUP3 MUL DUP1 CALLDATASIZE DUP4 CALLDATACOPY DUP1 DUP3 ADD SWAP2 POP POP SWAP1 POP JUMPDEST POP PUSH1 0x40 MLOAD PUSH1 0x20 ADD PUSH2 0x223 SWAP3 SWAP2 SWAP1 PUSH2 0x8B3 JUMP JUMPDEST PUSH1 0x40 MLOAD PUSH1 0x20 DUP2 DUP4 SUB SUB DUP2 MSTORE SWAP1 PUSH1 0x40 MSTORE SWAP1 POP PUSH0 PUSH1 0x64 SWAP1 POP PUSH0 DUP2 PUSH1 0xA0 PUSH2 0x247 SWAP2 SWAP1 PUSH2 0x8E3 JUMP JUMPDEST SWAP1 POP PUSH0 DUP3 PUSH8 0xFFFFFFFFFFFFFFFF DUP2 GT ISZERO PUSH2 0x264 JUMPI PUSH2 0x263 PUSH2 0x80B JUMP JUMPDEST JUMPDEST PUSH1 0x40 MLOAD SWAP1 DUP1 DUP3 MSTORE DUP1 PUSH1 0x1F ADD PUSH1 0x1F NOT AND PUSH1 0x20 ADD DUP3 ADD PUSH1 0x40 MSTORE DUP1 ISZERO PUSH2 0x296 JUMPI DUP2 PUSH1 0x20 ADD PUSH1 0x1 DUP3 MUL DUP1 CALLDATASIZE DUP4 CALLDATACOPY DUP1 DUP3 ADD SWAP2 POP POP SWAP1 POP JUMPDEST POP SWAP1 POP PUSH0 PUSH1 0x1 PUSH0 SWAP1 SLOAD SWAP1 PUSH2 0x100 EXP SWAP1 POP POP PUSH4 0x21008841 PUSH1 0xE0 SHL PUSH1 0x2 SLOAD PUSH0 SHL DUP10 PUSH0 SHL DUP10 PUSH0 SHL DUP14 PUSH1 0xF SIGNEXTEND PUSH0 SHL DUP8 PUSH0 SHL DUP8 DUP12 PUSH1 0x40 MLOAD PUSH1 0x20 ADD PUSH2 0x2DC SWAP9 SWAP8 SWAP7 SWAP6 SWAP5 SWAP4 SWAP3 SWAP2 SWAP1 PUSH2 0x961 JUMP JUMPDEST PUSH1 0x40 MLOAD PUSH1 0x20 DUP2 DUP4 SUB SUB DUP2 MSTORE SWAP1 PUSH1 0x40 MSTORE SWAP1 POP PUSH0 PUSH0 PUSH1 0x1 PUSH0 SWAP1 SLOAD SWAP1 PUSH2 0x100 EXP SWAP1 DIV PUSH20 0xFFFFFFFFFFFFFFFFFFFFFFFFFFFFFFFFFFFFFFFF AND PUSH20 0xFFFFFFFFFFFFFFFFFFFFFFFFFFFFFFFFFFFFFFFF AND DUP4 PUSH1 0x40 MLOAD PUSH2 0x335 SWAP2 SWAP1 PUSH2 0x9EA JUMP JUMPDEST PUSH0 PUSH1 0x40 MLOAD DUP1 DUP4 SUB DUP2 PUSH0 DUP7 GAS CALL SWAP2 POP POP RETURNDATASIZE DUP1 PUSH0 DUP2 EQ PUSH2 0x36E JUMPI PUSH1 0x40 MLOAD SWAP2 POP PUSH1 0x1F NOT PUSH1 0x3F RETURNDATASIZE ADD AND DUP3 ADD PUSH1 0x40 MSTORE RETURNDATASIZE DUP3 MSTORE RETURNDATASIZE PUSH0 PUSH1 0x20 DUP5 ADD RETURNDATACOPY PUSH2 0x373 JUMP JUMPDEST PUSH1 0x60 SWAP2 POP JUMPDEST POP SWAP2 POP SWAP2 POP PUSH1 0x1 ISZERO ISZERO DUP3 ISZERO ISZERO EQ PUSH2 0x38D JUMPI PUSH2 0x38C PUSH2 0xA00 JUMP JUMPDEST JUMPDEST PUSH0 DUP2 DUP1 PUSH1 0x20 ADD SWAP1 MLOAD DUP2 ADD SWAP1 PUSH2 0x3A2 SWAP2 SWAP1 PUSH2 0xC25 JUMP JUMPDEST SWAP1 POP PUSH1 0x2 SLOAD DUP2 PUSH0 ADD MLOAD EQ PUSH2 0x3B9 JUMPI PUSH2 0x3B8 PUSH2 0xA00 JUMP JUMPDEST JUMPDEST DUP13 PUSH1 0xF SIGNEXTEND DUP2 PUSH1 0x60 ADD MLOAD EQ PUSH2 0x3D0 JUMPI PUSH2 0x3CF PUSH2 0xA00 JUMP JUMPDEST JUMPDEST PUSH2 0x3DE DUP2 PUSH1 0x40 ADD MLOAD DUP12 PUSH2 0x5A1 JUMP JUMPDEST PUSH2 0x3EB JUMPI PUSH2 0x3EA PUSH2 0xA00 JUMP JUMPDEST JUMPDEST PUSH2 0x3F9 DUP2 PUSH1 0x20 ADD MLOAD DUP13 PUSH2 0x5A1 JUMP JUMPDEST PUSH2 0x406 JUMPI PUSH2 0x405 PUSH2 0xA00 JUMP JUMPDEST JUMPDEST DUP9 PUSH2 0xFFFF AND DUP2 PUSH1 0x80 ADD MLOAD PUSH2 0xFFFF AND EQ PUSH2 0x422 JUMPI PUSH2 0x421 PUSH2 0xA00 JUMP JUMPDEST JUMPDEST PUSH0 PUSH1 0x20 PUSH1 0xA4 PUSH2 0xFFFF AND DUP12 PUSH2 0xFFFF AND PUSH1 0x20 PUSH2 0x808 PUSH2 0xFFFF AND PUSH2 0x443 SWAP2 SWAP1 PUSH2 0x8E3 JUMP JUMPDEST PUSH2 0x44D SWAP2 SWAP1 PUSH2 0x8E3 JUMP JUMPDEST PUSH2 0x457 SWAP2 SWAP1 PUSH2 0xC51 JUMP JUMPDEST PUSH2 0x461 SWAP2 SWAP1 PUSH2 0xC51 JUMP JUMPDEST SWAP1 POP PUSH0 DUP11 PUSH2 0xFFFF AND PUSH1 0x20 PUSH2 0x808 PUSH2 0xFFFF AND PUSH2 0x47C SWAP2 SWAP1 PUSH2 0x8E3 JUMP JUMPDEST PUSH2 0x486 SWAP2 SWAP1 PUSH2 0x8E3 JUMP JUMPDEST SWAP1 POP PUSH0 PUSH2 0x808 PUSH2 0xFFFF AND SWAP1 POP PUSH0 PUSH1 0x20 DUP3 PUSH2 0x4A0 SWAP2 SWAP1 PUSH2 0x8E3 JUMP JUMPDEST SWAP1 POP PUSH0 DUP14 PUSH2 0xFFFF AND DUP3 PUSH2 0x4B3 SWAP2 SWAP1 PUSH2 0x8E3 JUMP JUMPDEST SWAP1 POP DUP3 DUP7 PUSH1 0xA0 ADD MLOAD EQ PUSH2 0x4C9 JUMPI PUSH2 0x4C8 PUSH2 0xA00 JUMP JUMPDEST JUMPDEST DUP2 DUP7 PUSH1 0xC0 ADD MLOAD EQ PUSH2 0x4DD JUMPI PUSH2 0x4DC PUSH2 0xA00 JUMP JUMPDEST JUMPDEST DUP1 DUP7 PUSH1 0xE0 ADD MLOAD EQ PUSH2 0x4F1 JUMPI PUSH2 0x4F0 PUSH2 0xA00 JUMP JUMPDEST JUMPDEST DUP14 PUSH2 0xFFFF AND DUP7 PUSH1 0x80 ADD MLOAD PUSH2 0xFFFF AND EQ PUSH2 0x50D JUMPI PUSH2 0x50C PUSH2 0xA00 JUMP JUMPDEST JUMPDEST POP POP POP POP POP POP POP POP POP POP POP POP POP POP POP POP POP POP POP POP POP JUMP JUMPDEST PUSH1 0x1 PUSH0 SWAP1 SLOAD SWAP1 PUSH2 0x100 EXP SWAP1 DIV PUSH20 0xFFFFFFFFFFFFFFFFFFFFFFFFFFFFFFFFFFFFFFFF AND DUP2 JUMP JUMPDEST PUSH0 PUSH0 PUSH1 0xFF PUSH1 0xB4 DUP5 SWAP1 SHR AND SWAP1 POP PUSH0 DUP2 SWAP1 POP PUSH1 0x80 DUP2 SLT PUSH2 0x572 JUMPI PUSH2 0x100 DUP2 PUSH2 0x56F SWAP2 SWAP1 PUSH2 0xC84 JUMP JUMPDEST SWAP1 POP JUMPDEST PUSH0 PUSH1 0x3B PUSH1 0x10 SWAP1 SHL SWAP1 POP DUP1 PUSH1 0x3B PUSH1 0x1 SWAP1 SHL DUP4 PUSH2 0x58D SWAP2 SWAP1 PUSH2 0xCC4 JUMP JUMPDEST PUSH2 0x597 SWAP2 SWAP1 PUSH2 0xC84 JUMP JUMPDEST SWAP4 POP POP POP POP SWAP2 SWAP1 POP JUMP JUMPDEST PUSH0 DUP2 DUP4 EQ SWAP1 POP SWAP3 SWAP2 POP POP JUMP JUMPDEST PUSH0 PUSH20 0xFFFFFFFFFFFFFFFFFFFFFFFFFFFFFFFFFFFFFFFF DUP3 AND SWAP1 POP SWAP2 SWAP1 POP JUMP JUMPDEST PUSH0 DUP2 SWAP1 POP SWAP2 SWAP1 POP JUMP JUMPDEST PUSH0 PUSH2 0x5EF PUSH2 0x5EA PUSH2 0x5E5 DUP5 PUSH2 0x5AD JUMP JUMPDEST PUSH2 0x5CC JUMP JUMPDEST PUSH2 0x5AD JUMP JUMPDEST SWAP1 POP SWAP2 SWAP1 POP JUMP JUMPDEST PUSH0 PUSH2 0x600 DUP3 PUSH2 0x5D5 JUMP JUMPDEST SWAP1 POP SWAP2 SWAP1 POP JUMP JUMPDEST PUSH0 PUSH2 0x611 DUP3 PUSH2 0x5F6 JUMP JUMPDEST SWAP1 POP SWAP2 SWAP1 POP JUMP JUMPDEST PUSH2 0x621 DUP2 PUSH2 0x607 JUMP JUMPDEST DUP3 MSTORE POP POP JUMP JUMPDEST PUSH0 PUSH1 0x20 DUP3 ADD SWAP1 POP PUSH2 0x63A PUSH0 DUP4 ADD DUP5 PUSH2 0x618 JUMP JUMPDEST SWAP3 SWAP2 POP POP JUMP JUMPDEST PUSH0 PUSH1 0x40 MLOAD SWAP1 POP SWAP1 JUMP JUMPDEST PUSH0 PUSH0 REVERT JUMPDEST PUSH0 PUSH8 0xFFFFFFFFFFFFFFFF DUP3 AND SWAP1 POP SWAP2 SWAP1 POP JUMP JUMPDEST PUSH2 0x669 DUP2 PUSH2 0x64D JUMP JUMPDEST DUP2 EQ PUSH2 0x673 JUMPI PUSH0 PUSH0 REVERT JUMPDEST POP JUMP JUMPDEST PUSH0 DUP2 CALLDATALOAD SWAP1 POP PUSH2 0x684 DUP2 PUSH2 0x660 JUMP JUMPDEST SWAP3 SWAP2 POP POP JUMP JUMPDEST PUSH0 PUSH2 0xFFFF DUP3 AND SWAP1 POP SWAP2 SWAP1 POP JUMP JUMPDEST PUSH2 0x6A0 DUP2 PUSH2 0x68A JUMP JUMPDEST DUP2 EQ PUSH2 0x6AA JUMPI PUSH0 PUSH0 REVERT JUMPDEST POP JUMP JUMPDEST PUSH0 DUP2 CALLDATALOAD SWAP1 POP PUSH2 0x6BB DUP2 PUSH2 0x697 JUMP JUMPDEST SWAP3 SWAP2 POP POP JUMP JUMPDEST PUSH0 DUP2 PUSH1 0xF SIGNEXTEND SWAP1 POP SWAP2 SWAP1 POP JUMP JUMPDEST PUSH2 0x6D6 DUP2 PUSH2 0x6C1 JUMP JUMPDEST DUP2 EQ PUSH2 0x6E0 JUMPI PUSH0 PUSH0 REVERT JUMPDEST POP JUMP JUMPDEST PUSH0 DUP2 CALLDATALOAD SWAP1 POP PUSH2 0x6F1 DUP2 PUSH2 0x6CD JUMP JUMPDEST SWAP3 SWAP2 POP POP JUMP JUMPDEST PUSH0 PUSH0 PUSH0 PUSH0 PUSH1 0x80 DUP6 DUP8 SUB SLT ISZERO PUSH2 0x70F JUMPI PUSH2 0x70E PUSH2 0x649 JUMP JUMPDEST JUMPDEST PUSH0 PUSH2 0x71C DUP8 DUP3 DUP9 ADD PUSH2 0x676 JUMP JUMPDEST SWAP5 POP POP PUSH1 0x20 PUSH2 0x72D DUP8 DUP3 DUP9 ADD PUSH2 0x676 JUMP JUMPDEST SWAP4 POP POP PUSH1 0x40 PUSH2 0x73E DUP8 DUP3 DUP9 ADD PUSH2 0x6AD JUMP JUMPDEST SWAP3 POP POP PUSH1 0x60 PUSH2 0x74F DUP8 DUP3 DUP9 ADD PUSH2 0x6E3 JUMP JUMPDEST SWAP2 POP POP SWAP3 SWAP6 SWAP2 SWAP5 POP SWAP3 POP JUMP JUMPDEST PUSH0 PUSH2 0x765 DUP3 PUSH2 0x5F6 JUMP JUMPDEST SWAP1 POP SWAP2 SWAP1 POP JUMP JUMPDEST PUSH2 0x775 DUP2 PUSH2 0x75B JUMP JUMPDEST DUP3 MSTORE POP POP JUMP JUMPDEST PUSH0 PUSH1 0x20 DUP3 ADD SWAP1 POP PUSH2 0x78E PUSH0 DUP4 ADD DUP5 PUSH2 0x76C JUMP JUMPDEST SWAP3 SWAP2 POP POP JUMP JUMPDEST PUSH0 DUP2 SWAP1 POP SWAP2 SWAP1 POP JUMP JUMPDEST PUSH32 0x4E487B7100000000000000000000000000000000000000000000000000000000 PUSH0 MSTORE PUSH1 0x11 PUSH1 0x4 MSTORE PUSH1 0x24 PUSH0 REVERT JUMPDEST PUSH0 PUSH2 0x7D4 DUP3 PUSH2 0x794 JUMP JUMPDEST SWAP2 POP PUSH2 0x7DF DUP4 PUSH2 0x794 JUMP JUMPDEST SWAP3 POP DUP3 DUP3 ADD SWAP1 POP DUP3 DUP2 SLT ISZERO PUSH0 DUP4 SLT AND DUP4 DUP3 SLT PUSH0 DUP5 SLT ISZERO AND OR ISZERO PUSH2 0x805 JUMPI PUSH2 0x804 PUSH2 0x79D JUMP JUMPDEST JUMPDEST SWAP3 SWAP2 POP POP JUMP JUMPDEST PUSH32 0x4E487B7100000000000000000000000000000000000000000000000000000000 PUSH0 MSTORE PUSH1 0x41 PUSH1 0x4 MSTORE PUSH1 0x24 PUSH0 REVERT JUMPDEST PUSH0 DUP2 SWAP1 POP SWAP2 SWAP1 POP JUMP JUMPDEST PUSH0 DUP2 SWAP1 POP SWAP2 SWAP1 POP JUMP JUMPDEST PUSH2 0x85B PUSH2 0x856 DUP3 PUSH2 0x838 JUMP JUMPDEST PUSH2 0x841 JUMP JUMPDEST DUP3 MSTORE POP POP JUMP JUMPDEST PUSH0 DUP2 MLOAD SWAP1 POP SWAP2 SWAP1 POP JUMP JUMPDEST PUSH0 DUP2 SWAP1 POP SWAP3 SWAP2 POP POP JUMP JUMPDEST DUP3 DUP2 DUP4 MCOPY PUSH0 DUP4 DUP4 ADD MSTORE POP POP POP JUMP JUMPDEST PUSH0 PUSH2 0x88D DUP3 PUSH2 0x861 JUMP JUMPDEST PUSH2 0x897 DUP2 DUP6 PUSH2 0x86B JUMP JUMPDEST SWAP4 POP PUSH2 0x8A7 DUP2 DUP6 PUSH1 0x20 DUP7 ADD PUSH2 0x875 JUMP JUMPDEST DUP1 DUP5 ADD SWAP2 POP POP SWAP3 SWAP2 POP POP JUMP JUMPDEST PUSH0 PUSH2 0x8BE DUP3 DUP6 PUSH2 0x84A JUMP JUMPDEST PUSH1 0x20 DUP3 ADD SWAP2 POP PUSH2 0x8CE DUP3 DUP5 PUSH2 0x883 JUMP JUMPDEST SWAP2 POP DUP2 SWAP1 POP SWAP4 SWAP3 POP POP POP JUMP JUMPDEST PUSH0 DUP2 SWAP1 POP SWAP2 SWAP1 POP JUMP JUMPDEST PUSH0 PUSH2 0x8ED DUP3 PUSH2 0x8DA JUMP JUMPDEST SWAP2 POP PUSH2 0x8F8 DUP4 PUSH2 0x8DA JUMP JUMPDEST SWAP3 POP DUP3 DUP3 ADD SWAP1 POP DUP1 DUP3 GT ISZERO PUSH2 0x910 JUMPI PUSH2 0x90F PUSH2 0x79D JUMP JUMPDEST JUMPDEST SWAP3 SWAP2 POP POP JUMP JUMPDEST PUSH0 PUSH32 0xFFFFFFFF00000000000000000000000000000000000000000000000000000000 DUP3 AND SWAP1 POP SWAP2 SWAP1 POP JUMP JUMPDEST PUSH0 DUP2 SWAP1 POP SWAP2 SWAP1 POP JUMP JUMPDEST PUSH2 0x95B PUSH2 0x956 DUP3 PUSH2 0x916 JUMP JUMPDEST PUSH2 0x941 JUMP JUMPDEST DUP3 MSTORE POP POP JUMP JUMPDEST PUSH0 PUSH2 0x96C DUP3 DUP12 PUSH2 0x94A JUMP JUMPDEST PUSH1 0x4 DUP3 ADD SWAP2 POP PUSH2 0x97C DUP3 DUP11 PUSH2 0x84A JUMP JUMPDEST PUSH1 0x20 DUP3 ADD SWAP2 POP PUSH2 0x98C DUP3 DUP10 PUSH2 0x84A JUMP JUMPDEST PUSH1 0x20 DUP3 ADD SWAP2 POP PUSH2 0x99C DUP3 DUP9 PUSH2 0x84A JUMP JUMPDEST PUSH1 0x20 DUP3 ADD SWAP2 POP PUSH2 0x9AC DUP3 DUP8 PUSH2 0x84A JUMP JUMPDEST PUSH1 0x20 DUP3 ADD SWAP2 POP PUSH2 0x9BC DUP3 DUP7 PUSH2 0x84A JUMP JUMPDEST PUSH1 0x20 DUP3 ADD SWAP2 POP PUSH2 0x9CC DUP3 DUP6 PUSH2 0x883 JUMP JUMPDEST SWAP2 POP PUSH2 0x9D8 DUP3 DUP5 PUSH2 0x883 JUMP JUMPDEST SWAP2 POP DUP2 SWAP1 POP SWAP10 SWAP9 POP POP POP POP POP POP POP POP POP JUMP JUMPDEST PUSH0 PUSH2 0x9F5 DUP3 DUP5 PUSH2 0x883 JUMP JUMPDEST SWAP2 POP DUP2 SWAP1 POP SWAP3 SWAP2 POP POP JUMP JUMPDEST PUSH32 0x4E487B7100000000000000000000000000000000000000000000000000000000 PUSH0 MSTORE PUSH1 0x1 PUSH1 0x4 MSTORE PUSH1 0x24 PUSH0 REVERT JUMPDEST PUSH0 PUSH0 REVERT JUMPDEST PUSH0 PUSH1 0x1F NOT PUSH1 0x1F DUP4 ADD AND SWAP1 POP SWAP2 SWAP1 POP JUMP JUMPDEST PUSH2 0xA4A DUP3 PUSH2 0xA31 JUMP JUMPDEST DUP2 ADD DUP2 DUP2 LT PUSH8 0xFFFFFFFFFFFFFFFF DUP3 GT OR ISZERO PUSH2 0xA69 JUMPI PUSH2 0xA68 PUSH2 0x80B JUMP JUMPDEST JUMPDEST DUP1 PUSH1 0x40 MSTORE POP POP POP JUMP JUMPDEST PUSH0 PUSH2 0xA7B PUSH2 0x640 JUMP JUMPDEST SWAP1 POP PUSH2 0xA87 DUP3 DUP3 PUSH2 0xA41 JUMP JUMPDEST SWAP2 SWAP1 POP JUMP JUMPDEST PUSH2 0xA95 DUP2 PUSH2 0x8DA JUMP JUMPDEST DUP2 EQ PUSH2 0xA9F JUMPI PUSH0 PUSH0 REVERT JUMPDEST POP JUMP JUMPDEST PUSH0 DUP2 MLOAD SWAP1 POP PUSH2 0xAB0 DUP2 PUSH2 0xA8C JUMP JUMPDEST SWAP3 SWAP2 POP POP JUMP JUMPDEST PUSH2 0xABF DUP2 PUSH2 0x794 JUMP JUMPDEST DUP2 EQ PUSH2 0xAC9 JUMPI PUSH0 PUSH0 REVERT JUMPDEST POP JUMP JUMPDEST PUSH0 DUP2 MLOAD SWAP1 POP PUSH2 0xADA DUP2 PUSH2 0xAB6 JUMP JUMPDEST SWAP3 SWAP2 POP POP JUMP JUMPDEST PUSH2 0xAE9 DUP2 PUSH2 0x794 JUMP JUMPDEST DUP2 EQ PUSH2 0xAF3 JUMPI PUSH0 PUSH0 REVERT JUMPDEST POP JUMP JUMPDEST PUSH0 DUP2 MLOAD SWAP1 POP PUSH2 0xB04 DUP2 PUSH2 0xAE0 JUMP JUMPDEST SWAP3 SWAP2 POP POP JUMP JUMPDEST PUSH0 DUP2 MLOAD SWAP1 POP PUSH2 0xB18 DUP2 PUSH2 0x697 JUMP JUMPDEST SWAP3 SWAP2 POP POP JUMP JUMPDEST PUSH2 0xB27 DUP2 PUSH2 0x8DA JUMP JUMPDEST DUP2 EQ PUSH2 0xB31 JUMPI PUSH0 PUSH0 REVERT JUMPDEST POP JUMP JUMPDEST PUSH0 DUP2 MLOAD SWAP1 POP PUSH2 0xB42 DUP2 PUSH2 0xB1E JUMP JUMPDEST SWAP3 SWAP2 POP POP JUMP JUMPDEST PUSH0 PUSH2 0x120 DUP3 DUP5 SUB SLT ISZERO PUSH2 0xB5E JUMPI PUSH2 0xB5D PUSH2 0xA2D JUMP JUMPDEST JUMPDEST PUSH2 0xB69 PUSH2 0x120 PUSH2 0xA72 JUMP JUMPDEST SWAP1 POP PUSH0 PUSH2 0xB78 DUP5 DUP3 DUP6 ADD PUSH2 0xAA2 JUMP JUMPDEST PUSH0 DUP4 ADD MSTORE POP PUSH1 0x20 PUSH2 0xB8B DUP5 DUP3 DUP6 ADD PUSH2 0xACC JUMP JUMPDEST PUSH1 0x20 DUP4 ADD MSTORE POP PUSH1 0x40 PUSH2 0xB9F DUP5 DUP3 DUP6 ADD PUSH2 0xACC JUMP JUMPDEST PUSH1 0x40 DUP4 ADD MSTORE POP PUSH1 0x60 PUSH2 0xBB3 DUP5 DUP3 DUP6 ADD PUSH2 0xAF6 JUMP JUMPDEST PUSH1 0x60 DUP4 ADD MSTORE POP PUSH1 0x80 PUSH2 0xBC7 DUP5 DUP3 DUP6 ADD PUSH2 0xB0A JUMP JUMPDEST PUSH1 0x80 DUP4 ADD MSTORE POP PUSH1 0xA0 PUSH2 0xBDB DUP5 DUP3 DUP6 ADD PUSH2 0xB34 JUMP JUMPDEST PUSH1 0xA0 DUP4 ADD MSTORE POP PUSH1 0xC0 PUSH2 0xBEF DUP5 DUP3 DUP6 ADD PUSH2 0xAA2 JUMP JUMPDEST PUSH1 0xC0 DUP4 ADD MSTORE POP PUSH1 0xE0 PUSH2 0xC03 DUP5 DUP3 DUP6 ADD PUSH2 0xAA2 JUMP JUMPDEST PUSH1 0xE0 DUP4 ADD MSTORE POP PUSH2 0x100 PUSH2 0xC18 DUP5 DUP3 DUP6 ADD PUSH2 0xAA2 JUMP JUMPDEST PUSH2 0x100 DUP4 ADD MSTORE POP SWAP3 SWAP2 POP POP JUMP JUMPDEST PUSH0 PUSH2 0x120 DUP3 DUP5 SUB SLT ISZERO PUSH2 0xC3B JUMPI PUSH2 0xC3A PUSH2 0x649 JUMP JUMPDEST JUMPDEST PUSH0 PUSH2 0xC48 DUP5 DUP3 DUP6 ADD PUSH2 0xB48 JUMP JUMPDEST SWAP2 POP POP SWAP3 SWAP2 POP POP JUMP JUMPDEST PUSH0 PUSH2 0xC5B DUP3 PUSH2 0x8DA JUMP JUMPDEST SWAP2 POP PUSH2 0xC66 DUP4 PUSH2 0x8DA JUMP JUMPDEST SWAP3 POP DUP3 DUP3 SUB SWAP1 POP DUP2 DUP2 GT ISZERO PUSH2 0xC7E JUMPI PUSH2 0xC7D PUSH2 0x79D JUMP JUMPDEST JUMPDEST SWAP3 SWAP2 POP POP JUMP JUMPDEST PUSH0 PUSH2 0xC8E DUP3 PUSH2 0x794 JUMP JUMPDEST SWAP2 POP PUSH2 0xC99 DUP4 PUSH2 0x794 JUMP JUMPDEST SWAP3 POP DUP3 DUP3 SUB SWAP1 POP DUP2 DUP2 SLT PUSH0 DUP5 SLT AND DUP3 DUP3 SGT PUSH0 DUP6 SLT ISZERO AND OR ISZERO PUSH2 0xCBE JUMPI PUSH2 0xCBD PUSH2 0x79D JUMP JUMPDEST JUMPDEST SWAP3 SWAP2 POP POP JUMP JUMPDEST PUSH0 PUSH2 0xCCE DUP3 PUSH2 0x794 JUMP JUMPDEST SWAP2 POP PUSH2 0xCD9 DUP4 PUSH2 0x794 JUMP JUMPDEST SWAP3 POP DUP3 DUP3 MUL PUSH2 0xCE7 DUP2 PUSH2 0x794 JUMP JUMPDEST SWAP2 POP PUSH32 0x8000000000000000000000000000000000000000000000000000000000000000 DUP5 EQ PUSH0 DUP5 SLT AND ISZERO PUSH2 0xD1E JUMPI PUSH2 0xD1D PUSH2 0x79D JUMP JUMPDEST JUMPDEST DUP3 DUP3 SDIV DUP5 EQ DUP4 ISZERO OR PUSH2 0xD33 JUMPI PUSH2 0xD32 PUSH2 0x79D JUMP JUMPDEST JUMPDEST POP SWAP3 SWAP2 POP POP JUMP INVALID LOG2 PUSH5 0x6970667358 0x22 SLT KECCAK256 PUSH19 0x3C2C909793009D9FAA890D56A1286005DFD168 DUP11 0xEE PUSH13 0x8784E2E81421676E6564736F6C PUSH4 0x4300081C STOP CALLER PUSH1 0x80 PUSH1 0x40 MSTORE CALLVALUE DUP1 ISZERO PUSH1 0xE JUMPI PUSH0 PUSH0 REVERT JUMPDEST POP PUSH2 0x159A DUP1 PUSH2 0x1C PUSH0 CODECOPY PUSH0 RETURN INVALID PUSH1 0x80 PUSH1 0x40 MSTORE CALLVALUE DUP1 ISZERO PUSH2 0xF JUMPI PUSH0 PUSH0 REVERT JUMPDEST POP PUSH1 0x4 CALLDATASIZE LT PUSH2 0x86 JUMPI PUSH0 CALLDATALOAD PUSH1 0xE0 SHR DUP1 PUSH4 0x9C3BDBA5 GT PUSH2 0x59 JUMPI DUP1 PUSH4 0x9C3BDBA5 EQ PUSH2 0xC6 JUMPI DUP1 PUSH4 0xD28B2CE7 EQ PUSH2 0xD0 JUMPI DUP1 PUSH4 0xE7675635 EQ PUSH2 0xDA JUMPI DUP1 PUSH4 0xED93ED85 EQ PUSH2 0xF8 JUMPI PUSH2 0x86 JUMP JUMPDEST DUP1 PUSH4 0x38E59837 EQ PUSH2 0x8A JUMPI DUP1 PUSH4 0x6853005D EQ PUSH2 0x94 JUMPI DUP1 PUSH4 0x720221F8 EQ PUSH2 0xB2 JUMPI DUP1 PUSH4 0x76E9A038 EQ PUSH2 0xBC JUMPI JUMPDEST PUSH0 PUSH0 REVERT JUMPDEST PUSH2 0x92 PUSH2 0x102 JUMP JUMPDEST STOP JUMPDEST PUSH2 0x9C PUSH2 0x11C JUMP JUMPDEST PUSH1 0x40 MLOAD PUSH2 0xA9 SWAP2 SWAP1 PUSH2 0x133E JUMP JUMPDEST PUSH1 0x40 MLOAD DUP1 SWAP2 SUB SWAP1 RETURN JUMPDEST PUSH2 0xBA PUSH2 0x13A JUMP JUMPDEST STOP JUMPDEST PUSH2 0xC4 PUSH2 0x154 JUMP JUMPDEST STOP JUMPDEST PUSH2 0xCE PUSH2 0x16E JUMP JUMPDEST STOP JUMPDEST PUSH2 0xD8 PUSH2 0x188 JUMP JUMPDEST STOP JUMPDEST PUSH2 0xE2 PUSH2 0x1A8 JUMP JUMPDEST PUSH1 0x40 MLOAD PUSH2 0xEF SWAP2 SWAP1 PUSH2 0x133E JUMP JUMPDEST PUSH1 0x40 MLOAD DUP1 SWAP2 SUB SWAP1 RETURN JUMPDEST PUSH2 0x100 PUSH2 0x1C6 JUMP JUMPDEST STOP JUMPDEST PUSH2 0x10A PUSH2 0x1E0 JUMP JUMPDEST PUSH0 PUSH2 0x113 PUSH2 0x283 JUMP JUMPDEST SWAP1 POP PUSH0 DUP2 PUSH0 LOG1 POP JUMP JUMPDEST PUSH0 PUSH2 0x125 PUSH2 0x28C JUMP JUMPDEST SWAP1 POP PUSH0 PUSH2 0x130 PUSH2 0x283 JUMP JUMPDEST SWAP1 POP PUSH0 DUP2 PUSH0 LOG1 POP SWAP1 JUMP JUMPDEST PUSH2 0x142 PUSH2 0x37A JUMP JUMPDEST PUSH0 PUSH2 0x14B PUSH2 0x283 JUMP JUMPDEST SWAP1 POP PUSH0 DUP2 PUSH0 LOG1 POP JUMP JUMPDEST PUSH2 0x15C PUSH2 0x3B1 JUMP JUMPDEST PUSH0 PUSH2 0x165 PUSH2 0x283 JUMP JUMPDEST SWAP1 POP PUSH0 DUP2 PUSH0 LOG1 POP JUMP JUMPDEST PUSH2 0x176 PUSH2 0x52B JUMP JUMPDEST PUSH0 PUSH2 0x17F PUSH2 0x283 JUMP JUMPDEST SWAP1 POP PUSH0 DUP2 PUSH0 LOG1 POP JUMP JUMPDEST PUSH2 0x190 PUSH2 0x54B JUMP JUMPDEST PUSH0 PUSH2 0x199 PUSH2 0x6E0 JUMP JUMPDEST SWAP1 POP PUSH0 PUSH1 0x20 DUP3 PUSH1 0xA4 ADD ADD PUSH0 LOG1 POP JUMP JUMPDEST PUSH0 PUSH2 0x1B1 PUSH2 0x6E9 JUMP JUMPDEST SWAP1 POP PUSH0 PUSH2 0x1BC PUSH2 0x283 JUMP JUMPDEST SWAP1 POP PUSH0 DUP2 PUSH0 LOG1 POP SWAP1 JUMP JUMPDEST PUSH2 0x1CE PUSH2 0xA9E JUMP JUMPDEST PUSH0 PUSH2 0x1D7 PUSH2 0x283 JUMP JUMPDEST SWAP1 POP PUSH0 DUP2 PUSH0 LOG1 POP JUMP JUMPDEST PUSH2 0x1E9 CALLER PUSH2 0xE30 JUMP JUMPDEST PUSH0 PUSH1 0x4 CALLDATALOAD SWAP1 POP PUSH2 0x1F8 DUP2 PUSH2 0xE44 JUMP JUMPDEST PUSH0 PUSH1 0x24 CALLDATALOAD SWAP1 POP PUSH2 0x20E DUP2 PUSH6 0x800000000000 PUSH2 0xE4B JUMP JUMPDEST DUP2 SWAP1 PUSH2 0x250 JUMPI PUSH1 0x40 MLOAD PUSH32 0x1F84BBB300000000000000000000000000000000000000000000000000000000 DUP2 MSTORE PUSH1 0x4 ADD PUSH2 0x247 SWAP2 SWAP1 PUSH2 0x1366 JUMP JUMPDEST PUSH1 0x40 MLOAD DUP1 SWAP2 SUB SWAP1 REVERT JUMPDEST POP PUSH2 0x25A DUP2 PUSH2 0xE5F JUMP JUMPDEST POP PUSH0 PUSH1 0x20 PUSH1 0xA4 PUSH2 0x808 SUB SUB SWAP1 POP PUSH2 0x270 DUP2 PUSH2 0xE75 JUMP JUMPDEST PUSH2 0x27F PUSH2 0x808 PUSH2 0xFFFF AND PUSH2 0xE7C JUMP JUMPDEST POP POP JUMP JUMPDEST PUSH0 PUSH1 0x40 MLOAD SWAP1 POP SWAP1 JUMP JUMPDEST PUSH0 PUSH2 0x296 CALLER PUSH2 0xE30 JUMP JUMPDEST PUSH0 PUSH1 0x4 CALLDATALOAD SWAP1 POP PUSH2 0x2A5 DUP2 PUSH2 0xE44 JUMP JUMPDEST PUSH0 PUSH0 PUSH0 PUSH1 0x24 CALLDATALOAD PUSH1 0x4 ADD SWAP2 POP PUSH2 0x808 SWAP3 POP DUP2 CALLDATALOAD PUSH1 0x5 SHL SWAP1 POP PUSH1 0x5 DUP2 DIV PUSH1 0x5 SHL DUP4 ADD SWAP5 POP PUSH2 0x2D0 DUP4 PUSH2 0xE83 JUMP JUMPDEST PUSH0 PUSH0 PUSH0 PUSH0 PUSH1 0x44 CALLDATALOAD PUSH1 0x4 ADD DUP6 DUP11 ADD SWAP5 POP DUP1 CALLDATALOAD SWAP4 POP DUP4 DUP6 ADD SWAP2 POP PUSH1 0x20 PUSH1 0xA4 DUP4 SUB SUB SWAP3 POP DUP6 PUSH1 0x20 DUP9 ADD DUP12 CALLDATACOPY DUP4 PUSH1 0x20 DUP3 ADD DUP7 CALLDATACOPY POP PUSH2 0x309 DUP5 PUSH2 0xE8B JUMP JUMPDEST PUSH2 0xFFFF DUP1 AND DUP4 GT ISZERO DUP4 SWAP1 PUSH2 0x353 JUMPI PUSH1 0x40 MLOAD PUSH32 0x805CFD4B00000000000000000000000000000000000000000000000000000000 DUP2 MSTORE PUSH1 0x4 ADD PUSH2 0x34A SWAP2 SWAP1 PUSH2 0x138E JUMP JUMPDEST PUSH1 0x40 MLOAD DUP1 SWAP2 SUB SWAP1 REVERT JUMPDEST POP PUSH2 0x35D DUP4 PUSH2 0xE93 JUMP JUMPDEST PUSH2 0x366 DUP3 PUSH2 0xE75 JUMP JUMPDEST PUSH2 0x36F DUP2 PUSH2 0xE7C JUMP JUMPDEST POP POP POP POP POP POP POP POP SWAP1 JUMP JUMPDEST PUSH0 PUSH1 0x4 CALLDATALOAD SWAP1 POP PUSH2 0x389 DUP2 PUSH2 0xE44 JUMP JUMPDEST PUSH0 PUSH1 0x20 PUSH1 0xA4 PUSH2 0x808 SUB SUB SWAP1 POP PUSH2 0x39E DUP2 PUSH2 0xE75 JUMP JUMPDEST PUSH2 0x3AD PUSH2 0x808 PUSH2 0xFFFF AND PUSH2 0xE7C JUMP JUMPDEST POP POP JUMP JUMPDEST PUSH2 0x3BA CALLER PUSH2 0xE30 JUMP JUMPDEST PUSH0 PUSH1 0x4 CALLDATALOAD SWAP1 POP PUSH2 0x3C9 DUP2 PUSH2 0xE44 JUMP JUMPDEST POP PUSH0 PUSH1 0x24 CALLDATALOAD SWAP1 POP PUSH16 0x7FFFFFFFFFFFFFFFFFFFFFFFFFFFFFFF PUSH1 0xF SIGNEXTEND DUP2 SGT ISZERO DUP2 SWAP1 PUSH2 0x429 JUMPI PUSH1 0x40 MLOAD PUSH32 0xC270DEB300000000000000000000000000000000000000000000000000000000 DUP2 MSTORE PUSH1 0x4 ADD PUSH2 0x420 SWAP2 SWAP1 PUSH2 0x13BF JUMP JUMPDEST PUSH1 0x40 MLOAD DUP1 SWAP2 SUB SWAP1 REVERT JUMPDEST POP PUSH0 DUP2 SGT DUP2 SWAP1 PUSH2 0x46F JUMPI PUSH1 0x40 MLOAD PUSH32 0xC270DEB300000000000000000000000000000000000000000000000000000000 DUP2 MSTORE PUSH1 0x4 ADD PUSH2 0x466 SWAP2 SWAP1 PUSH2 0x13BF JUMP JUMPDEST PUSH1 0x40 MLOAD DUP1 SWAP2 SUB SWAP1 REVERT JUMPDEST POP PUSH2 0x479 DUP2 PUSH2 0xEA9 JUMP JUMPDEST POP PUSH0 PUSH0 PUSH0 PUSH0 PUSH0 PUSH1 0x44 CALLDATALOAD PUSH1 0x4 ADD PUSH2 0x808 SWAP6 POP PUSH1 0x20 PUSH2 0x808 ADD SWAP5 POP DUP1 CALLDATALOAD SWAP4 POP DUP4 DUP6 ADD SWAP2 POP PUSH1 0x20 PUSH1 0xA4 DUP4 SUB SUB SWAP3 POP DUP4 PUSH1 0x20 DUP3 ADD DUP7 CALLDATACOPY POP PUSH2 0x4B5 DUP6 PUSH2 0xEB1 JUMP JUMPDEST PUSH2 0x4BE DUP5 PUSH2 0xE8B JUMP JUMPDEST PUSH2 0xFFFF DUP1 AND DUP4 GT ISZERO DUP4 SWAP1 PUSH2 0x508 JUMPI PUSH1 0x40 MLOAD PUSH32 0x805CFD4B00000000000000000000000000000000000000000000000000000000 DUP2 MSTORE PUSH1 0x4 ADD PUSH2 0x4FF SWAP2 SWAP1 PUSH2 0x138E JUMP JUMPDEST PUSH1 0x40 MLOAD DUP1 SWAP2 SUB SWAP1 REVERT JUMPDEST POP PUSH2 0x512 DUP4 PUSH2 0xE93 JUMP JUMPDEST PUSH2 0x51B DUP3 PUSH2 0xE75 JUMP JUMPDEST PUSH2 0x524 DUP2 PUSH2 0xE7C JUMP JUMPDEST POP POP POP POP POP JUMP JUMPDEST PUSH0 PUSH1 0x4 CALLDATALOAD SWAP1 POP PUSH2 0x53A DUP2 PUSH2 0xE44 JUMP JUMPDEST PUSH2 0x548 PUSH1 0xF8 PUSH2 0xFFFF AND PUSH2 0xE7C JUMP JUMPDEST POP JUMP JUMPDEST PUSH2 0x554 CALLER PUSH2 0xE30 JUMP JUMPDEST PUSH0 PUSH1 0x4 CALLDATALOAD SWAP1 POP PUSH2 0x563 DUP2 PUSH2 0xE44 JUMP JUMPDEST PUSH0 PUSH1 0x24 CALLDATALOAD SWAP1 POP PUSH16 0x7FFFFFFFFFFFFFFFFFFFFFFFFFFFFFFF PUSH0 SUB DUP2 SLT ISZERO PUSH2 0x599 JUMPI PUSH16 0x7FFFFFFFFFFFFFFFFFFFFFFFFFFFFFFF PUSH0 SUB SWAP1 POP JUMPDEST PUSH16 0x7FFFFFFFFFFFFFFFFFFFFFFFFFFFFFFF DUP2 SGT ISZERO PUSH2 0x5C5 JUMPI PUSH16 0x7FFFFFFFFFFFFFFFFFFFFFFFFFFFFFFF SWAP1 POP JUMPDEST PUSH1 0x1 PUSH1 0x7F SHL DUP2 MUL SWAP1 POP PUSH2 0x5D7 DUP2 PUSH2 0xEB9 JUMP JUMPDEST PUSH0 PUSH1 0x44 CALLDATALOAD SWAP1 POP PUSH2 0x5E6 DUP2 PUSH2 0xEC1 JUMP JUMPDEST PUSH0 PUSH1 0x64 CALLDATALOAD PUSH1 0x80 SHR SWAP1 POP PUSH16 0x7FFFFFFFFFFFFFFFFFFFFFFFFFFFFFFF DUP2 GT ISZERO PUSH2 0x61B JUMPI PUSH16 0x7FFFFFFFFFFFFFFFFFFFFFFFFFFFFFFF SWAP1 POP JUMPDEST PUSH2 0x624 DUP2 PUSH2 0xEC9 JUMP JUMPDEST PUSH1 0x74 CALLDATALOAD PUSH1 0x80 SHR PUSH1 0x2 DUP2 GT ISZERO PUSH2 0x638 JUMPI PUSH1 0x2 SWAP1 POP JUMPDEST DUP1 PUSH2 0x150 MSTORE8 POP PUSH0 PUSH0 PUSH0 PUSH0 PUSH1 0x84 CALLDATALOAD PUSH1 0x4 ADD PUSH2 0x808 SWAP4 POP DUP1 CALLDATALOAD SWAP3 POP DUP3 DUP5 ADD SWAP5 POP PUSH1 0x20 PUSH1 0xA4 DUP7 SUB SUB SWAP2 POP DUP3 PUSH1 0x20 DUP3 ADD DUP6 CALLDATACOPY POP PUSH2 0x670 DUP4 PUSH2 0xE8B JUMP JUMPDEST PUSH2 0xFFFF DUP1 AND DUP3 GT ISZERO DUP3 SWAP1 PUSH2 0x6BA JUMPI PUSH1 0x40 MLOAD PUSH32 0x805CFD4B00000000000000000000000000000000000000000000000000000000 DUP2 MSTORE PUSH1 0x4 ADD PUSH2 0x6B1 SWAP2 SWAP1 PUSH2 0x138E JUMP JUMPDEST PUSH1 0x40 MLOAD DUP1 SWAP2 SUB SWAP1 REVERT JUMPDEST POP PUSH2 0x6C4 DUP3 PUSH2 0xE93 JUMP JUMPDEST PUSH2 0x6CD DUP2 PUSH2 0xE75 JUMP JUMPDEST PUSH2 0x6D6 DUP5 PUSH2 0xE83 JUMP JUMPDEST POP POP POP POP POP POP POP POP JUMP JUMPDEST PUSH0 PUSH1 0xA4 MLOAD SWAP1 POP SWAP1 JUMP JUMPDEST PUSH0 PUSH2 0x6F3 CALLER PUSH2 0xE30 JUMP JUMPDEST PUSH0 PUSH0 PUSH1 0x4 CALLDATALOAD SWAP1 POP PUSH2 0x703 DUP2 PUSH2 0xEDD JUMP JUMPDEST SWAP2 POP POP PUSH2 0x70F DUP2 PUSH2 0xE44 JUMP JUMPDEST PUSH0 DUP2 SUB PUSH2 0x748 JUMPI PUSH1 0x40 MLOAD PUSH32 0x4E79178600000000000000000000000000000000000000000000000000000000 DUP2 MSTORE PUSH1 0x4 ADD PUSH1 0x40 MLOAD DUP1 SWAP2 SUB SWAP1 REVERT JUMPDEST PUSH0 PUSH2 0x75A PUSH2 0x755 DUP4 PUSH2 0xEF8 JUMP JUMPDEST PUSH2 0xF1B JUMP JUMPDEST EQ DUP2 SWAP1 PUSH2 0x79D JUMPI PUSH1 0x40 MLOAD PUSH32 0xA3A300C700000000000000000000000000000000000000000000000000000000 DUP2 MSTORE PUSH1 0x4 ADD PUSH2 0x794 SWAP2 SWAP1 PUSH2 0x138E JUMP JUMPDEST PUSH1 0x40 MLOAD DUP1 SWAP2 SUB SWAP1 REVERT JUMPDEST POP PUSH0 PUSH2 0x7A8 DUP3 PUSH2 0xF25 JUMP JUMPDEST SWAP1 POP PUSH2 0x7C8 DUP2 PUSH9 0x2D000000000000000 PUSH0 PUSH2 0x7C3 SWAP2 SWAP1 PUSH2 0x1405 JUMP JUMPDEST PUSH2 0xF39 JUMP JUMPDEST DUP2 SWAP1 PUSH2 0x80A JUMPI PUSH1 0x40 MLOAD PUSH32 0xA2FF8ABD00000000000000000000000000000000000000000000000000000000 DUP2 MSTORE PUSH1 0x4 ADD PUSH2 0x801 SWAP2 SWAP1 PUSH2 0x1475 JUMP JUMPDEST PUSH1 0x40 MLOAD DUP1 SWAP2 SUB SWAP1 REVERT JUMPDEST POP PUSH2 0x81E DUP2 PUSH9 0x2D000000000000000 PUSH2 0xF45 JUMP JUMPDEST DUP2 SWAP1 PUSH2 0x860 JUMPI PUSH1 0x40 MLOAD PUSH32 0xA2FF8ABD00000000000000000000000000000000000000000000000000000000 DUP2 MSTORE PUSH1 0x4 ADD PUSH2 0x857 SWAP2 SWAP1 PUSH2 0x1475 JUMP JUMPDEST PUSH1 0x40 MLOAD DUP1 SWAP2 SUB SWAP1 REVERT JUMPDEST POP PUSH2 0x872 PUSH2 0x86D DUP3 PUSH2 0xF51 JUMP JUMPDEST PUSH2 0xFCA JUMP JUMPDEST PUSH2 0x88C PUSH2 0x887 PUSH2 0x882 PUSH0 DUP5 PUSH2 0xFD2 JUMP JUMPDEST PUSH2 0xF51 JUMP JUMPDEST PUSH2 0xFDE JUMP JUMPDEST POP POP PUSH0 PUSH1 0x24 CALLDATALOAD SWAP1 POP PUSH2 0x89D DUP2 PUSH2 0xFE6 JUMP JUMPDEST PUSH0 PUSH1 0x44 CALLDATALOAD SWAP1 POP PUSH2 0x8AC DUP2 PUSH2 0xFEE JUMP JUMPDEST PUSH2 0x8B6 DUP2 DUP4 PUSH2 0xFF6 JUMP JUMPDEST DUP3 DUP3 SWAP1 SWAP2 PUSH2 0x8FB JUMPI PUSH1 0x40 MLOAD PUSH32 0xFE92479C00000000000000000000000000000000000000000000000000000000 DUP2 MSTORE PUSH1 0x4 ADD PUSH2 0x8F2 SWAP3 SWAP2 SWAP1 PUSH2 0x149D JUMP JUMPDEST PUSH1 0x40 MLOAD DUP1 SWAP2 SUB SWAP1 REVERT JUMPDEST POP POP POP POP PUSH0 PUSH1 0x64 CALLDATALOAD SWAP1 POP PUSH2 0x915 DUP2 PUSH6 0x800000000000 PUSH2 0xE4B JUMP JUMPDEST DUP2 SWAP1 PUSH2 0x957 JUMPI PUSH1 0x40 MLOAD PUSH32 0x1F84BBB300000000000000000000000000000000000000000000000000000000 DUP2 MSTORE PUSH1 0x4 ADD PUSH2 0x94E SWAP2 SWAP1 PUSH2 0x1366 JUMP JUMPDEST PUSH1 0x40 MLOAD DUP1 SWAP2 SUB SWAP1 REVERT JUMPDEST POP PUSH2 0x961 DUP2 PUSH2 0xE5F JUMP JUMPDEST POP PUSH0 PUSH0 PUSH0 PUSH1 0x84 CALLDATALOAD PUSH1 0x4 ADD SWAP2 POP PUSH2 0x808 SWAP3 POP DUP2 CALLDATALOAD PUSH1 0x5 SHL SWAP1 POP PUSH1 0x5 DUP2 DIV PUSH1 0x5 SHL DUP4 ADD SWAP4 POP PUSH2 0x98D DUP4 PUSH2 0xE83 JUMP JUMPDEST PUSH0 PUSH0 PUSH0 PUSH1 0xA4 CALLDATALOAD PUSH1 0x4 ADD SWAP2 POP DUP4 DUP8 ADD SWAP3 POP DUP2 CALLDATALOAD PUSH1 0x5 SHL SWAP1 POP PUSH1 0x20 DUP2 LT ISZERO PUSH2 0x9DF JUMPI PUSH1 0x40 MLOAD PUSH32 0xA4912D800000000000000000000000000000000000000000000000000000000 DUP2 MSTORE PUSH1 0x4 ADD PUSH1 0x40 MLOAD DUP1 SWAP2 SUB SWAP1 REVERT JUMPDEST PUSH2 0x9E8 DUP4 PUSH2 0xEB1 JUMP JUMPDEST PUSH0 PUSH0 PUSH0 PUSH0 PUSH1 0xC4 CALLDATALOAD PUSH1 0x4 ADD PUSH1 0x8 DUP7 DUP10 ADD ADD SWAP5 POP DUP1 CALLDATALOAD SWAP4 POP DUP4 DUP6 ADD SWAP2 POP PUSH1 0x20 PUSH1 0xA4 DUP4 SUB SUB SWAP3 POP DUP9 PUSH1 0x20 DUP12 ADD DUP14 CALLDATACOPY DUP6 PUSH1 0x20 DUP9 ADD DUP10 CALLDATACOPY DUP4 PUSH1 0x20 DUP3 ADD DUP7 CALLDATACOPY POP PUSH2 0xA2B DUP5 PUSH2 0xE8B JUMP JUMPDEST PUSH2 0xFFFF DUP1 AND DUP4 GT ISZERO DUP4 SWAP1 PUSH2 0xA75 JUMPI PUSH1 0x40 MLOAD PUSH32 0x805CFD4B00000000000000000000000000000000000000000000000000000000 DUP2 MSTORE PUSH1 0x4 ADD PUSH2 0xA6C SWAP2 SWAP1 PUSH2 0x138E JUMP JUMPDEST PUSH1 0x40 MLOAD DUP1 SWAP2 SUB SWAP1 REVERT JUMPDEST POP PUSH2 0xA7F DUP4 PUSH2 0xE93 JUMP JUMPDEST PUSH2 0xA88 DUP3 PUSH2 0xE75 JUMP JUMPDEST PUSH2 0xA91 DUP2 PUSH2 0xE7C JUMP JUMPDEST POP POP POP POP POP POP POP POP POP POP SWAP1 JUMP JUMPDEST PUSH2 0xAA7 CALLER PUSH2 0xE30 JUMP JUMPDEST PUSH0 PUSH1 0x4 CALLDATALOAD SWAP1 POP PUSH2 0xAB6 DUP2 PUSH2 0xE44 JUMP JUMPDEST PUSH0 PUSH2 0xAD1 PUSH2 0xAC3 DUP4 PUSH2 0xF25 JUMP JUMPDEST PUSH8 0x8000000000000000 PUSH2 0xFD2 JUMP JUMPDEST SWAP1 POP PUSH0 PUSH1 0x24 CALLDATALOAD SWAP1 POP PUSH2 0xAE2 DUP2 PUSH2 0x1002 JUMP JUMPDEST PUSH0 PUSH2 0xAED DUP3 DUP5 PUSH2 0xFD2 JUMP JUMPDEST SWAP1 POP PUSH2 0xAF9 DUP2 PUSH0 PUSH2 0xF39 JUMP JUMPDEST DUP3 SWAP1 PUSH2 0xB3B JUMPI PUSH1 0x40 MLOAD PUSH32 0x42D0116800000000000000000000000000000000000000000000000000000000 DUP2 MSTORE PUSH1 0x4 ADD PUSH2 0xB32 SWAP2 SWAP1 PUSH2 0x1475 JUMP JUMPDEST PUSH1 0x40 MLOAD DUP1 SWAP2 SUB SWAP1 REVERT JUMPDEST POP PUSH2 0xB4F DUP2 PUSH9 0x10000000000000000 PUSH2 0xF45 JUMP JUMPDEST DUP3 SWAP1 PUSH2 0xB91 JUMPI PUSH1 0x40 MLOAD PUSH32 0x42D0116800000000000000000000000000000000000000000000000000000000 DUP2 MSTORE PUSH1 0x4 ADD PUSH2 0xB88 SWAP2 SWAP1 PUSH2 0x1475 JUMP JUMPDEST PUSH1 0x40 MLOAD DUP1 SWAP2 SUB SWAP1 REVERT JUMPDEST POP PUSH2 0xB9B DUP2 PUSH2 0x100A JUMP JUMPDEST PUSH0 PUSH1 0x44 CALLDATALOAD SWAP1 POP PUSH2 0xBAA DUP2 PUSH2 0x101E JUMP JUMPDEST PUSH0 PUSH2 0xBB5 DUP3 DUP7 PUSH2 0xFD2 JUMP JUMPDEST SWAP1 POP PUSH2 0xBC1 DUP2 PUSH0 PUSH2 0xF39 JUMP JUMPDEST DUP3 SWAP1 PUSH2 0xC03 JUMPI PUSH1 0x40 MLOAD PUSH32 0x42D0116800000000000000000000000000000000000000000000000000000000 DUP2 MSTORE PUSH1 0x4 ADD PUSH2 0xBFA SWAP2 SWAP1 PUSH2 0x1475 JUMP JUMPDEST PUSH1 0x40 MLOAD DUP1 SWAP2 SUB SWAP1 REVERT JUMPDEST POP PUSH2 0xC17 DUP2 PUSH9 0x10000000000000000 PUSH2 0xF45 JUMP JUMPDEST DUP3 SWAP1 PUSH2 0xC59 JUMPI PUSH1 0x40 MLOAD PUSH32 0x42D0116800000000000000000000000000000000000000000000000000000000 DUP2 MSTORE PUSH1 0x4 ADD PUSH2 0xC50 SWAP2 SWAP1 PUSH2 0x1475 JUMP JUMPDEST PUSH1 0x40 MLOAD DUP1 SWAP2 SUB SWAP1 REVERT JUMPDEST POP PUSH2 0xC63 DUP2 PUSH2 0x1026 JUMP JUMPDEST POP POP POP POP POP POP PUSH0 PUSH1 0x64 CALLDATALOAD SWAP1 POP PUSH16 0x7FFFFFFFFFFFFFFFFFFFFFFFFFFFFFFF PUSH1 0xF SIGNEXTEND DUP2 SGT ISZERO DUP2 SWAP1 PUSH2 0xCC8 JUMPI PUSH1 0x40 MLOAD PUSH32 0xC270DEB300000000000000000000000000000000000000000000000000000000 DUP2 MSTORE PUSH1 0x4 ADD PUSH2 0xCBF SWAP2 SWAP1 PUSH2 0x13BF JUMP JUMPDEST PUSH1 0x40 MLOAD DUP1 SWAP2 SUB SWAP1 REVERT JUMPDEST POP PUSH16 0x7FFFFFFFFFFFFFFFFFFFFFFFFFFFFFFF PUSH0 PUSH2 0xCE5 SWAP2 SWAP1 PUSH2 0x14D0 JUMP JUMPDEST PUSH1 0xF SIGNEXTEND DUP2 SLT ISZERO DUP2 SWAP1 PUSH2 0xD2D JUMPI PUSH1 0x40 MLOAD PUSH32 0xC270DEB300000000000000000000000000000000000000000000000000000000 DUP2 MSTORE PUSH1 0x4 ADD PUSH2 0xD24 SWAP2 SWAP1 PUSH2 0x13BF JUMP JUMPDEST PUSH1 0x40 MLOAD DUP1 SWAP2 SUB SWAP1 REVERT JUMPDEST POP PUSH0 DUP2 EQ ISZERO DUP2 SWAP1 PUSH2 0xD74 JUMPI PUSH1 0x40 MLOAD PUSH32 0xC270DEB300000000000000000000000000000000000000000000000000000000 DUP2 MSTORE PUSH1 0x4 ADD PUSH2 0xD6B SWAP2 SWAP1 PUSH2 0x13BF JUMP JUMPDEST PUSH1 0x40 MLOAD DUP1 SWAP2 SUB SWAP1 REVERT JUMPDEST POP PUSH2 0xD7E DUP2 PUSH2 0xEA9 JUMP JUMPDEST POP PUSH0 PUSH0 PUSH0 PUSH0 PUSH0 PUSH1 0x84 CALLDATALOAD PUSH1 0x4 ADD PUSH2 0x808 SWAP6 POP PUSH1 0x20 PUSH2 0x808 ADD SWAP5 POP DUP1 CALLDATALOAD SWAP4 POP DUP4 DUP6 ADD SWAP2 POP PUSH1 0x20 PUSH1 0xA4 DUP4 SUB SUB SWAP3 POP DUP4 PUSH1 0x20 DUP3 ADD DUP7 CALLDATACOPY POP PUSH2 0xDBA DUP6 PUSH2 0xEB1 JUMP JUMPDEST PUSH2 0xDC3 DUP5 PUSH2 0xE8B JUMP JUMPDEST PUSH2 0xFFFF DUP1 AND DUP4 GT ISZERO DUP4 SWAP1 PUSH2 0xE0D JUMPI PUSH1 0x40 MLOAD PUSH32 0x805CFD4B00000000000000000000000000000000000000000000000000000000 DUP2 MSTORE PUSH1 0x4 ADD PUSH2 0xE04 SWAP2 SWAP1 PUSH2 0x138E JUMP JUMPDEST PUSH1 0x40 MLOAD DUP1 SWAP2 SUB SWAP1 REVERT JUMPDEST POP PUSH2 0xE17 DUP4 PUSH2 0xE93 JUMP JUMPDEST PUSH2 0xE20 DUP3 PUSH2 0xE75 JUMP JUMPDEST PUSH2 0xE29 DUP2 PUSH2 0xE7C JUMP JUMPDEST POP POP POP POP POP JUMP JUMPDEST PUSH1 0x14 PUSH1 0xC4 ADD MLOAD PUSH1 0xA0 SHR DUP2 PUSH1 0x60 SHL OR PUSH1 0xC4 MSTORE POP JUMP JUMPDEST DUP1 PUSH1 0xD8 MSTORE POP JUMP JUMPDEST PUSH0 PUSH2 0xE56 DUP4 DUP4 PUSH2 0x103C JUMP JUMPDEST ISZERO SWAP1 POP SWAP3 SWAP2 POP POP JUMP JUMPDEST PUSH1 0x6 PUSH2 0x7F4 ADD MLOAD PUSH1 0x30 SHR DUP2 PUSH1 0xD0 SHL OR PUSH2 0x7F4 MSTORE POP JUMP JUMPDEST DUP1 PUSH1 0xA4 MSTORE POP JUMP JUMPDEST DUP1 PUSH1 0x40 MSTORE POP JUMP JUMPDEST DUP1 PUSH2 0x5EF MSTORE POP JUMP JUMPDEST DUP1 PUSH2 0x62F MSTORE POP JUMP JUMPDEST PUSH1 0x2 PUSH2 0x653 ADD MLOAD PUSH1 0x10 SHR DUP2 PUSH1 0xF0 SHL OR PUSH2 0x653 MSTORE POP JUMP JUMPDEST DUP1 PUSH2 0x108 MSTORE POP JUMP JUMPDEST DUP1 PUSH2 0x60F MSTORE POP JUMP JUMPDEST DUP1 PUSH2 0x108 MSTORE POP JUMP JUMPDEST DUP1 PUSH2 0x128 MSTORE POP JUMP JUMPDEST PUSH1 0x10 PUSH1 0xF8 ADD MLOAD PUSH1 0x80 SHR DUP2 PUSH1 0x80 SHL OR PUSH1 0xF8 MSTORE POP JUMP JUMPDEST PUSH0 CALLER PUSH1 0x60 SHL PUSH0 MSTORE DUP2 PUSH1 0x14 MSTORE PUSH1 0x34 PUSH0 KECCAK256 PUSH1 0xBC SHL DUP3 ADD SWAP1 POP SWAP2 SWAP1 POP JUMP JUMPDEST PUSH0 PUSH16 0x6890D047AD8C870137858A70716B2C6B PUSH1 0x10 MSTORE DUP2 PUSH0 MSTORE PUSH1 0x30 PUSH0 KECCAK256 SWAP1 POP SWAP2 SWAP1 POP JUMP JUMPDEST PUSH0 DUP2 SLOAD SWAP1 POP SWAP2 SWAP1 POP JUMP JUMPDEST PUSH0 DUP2 PUSH1 0xB4 SHR PUSH0 SIGNEXTEND PUSH1 0x1 PUSH1 0x3B SHL MUL SWAP1 POP SWAP2 SWAP1 POP JUMP JUMPDEST PUSH0 DUP2 DUP4 SGT SWAP1 POP SWAP3 SWAP2 POP POP JUMP JUMPDEST PUSH0 DUP2 DUP4 SLT SWAP1 POP SWAP3 SWAP2 POP POP JUMP JUMPDEST PUSH0 PUSH0 PUSH2 0xF6E PUSH2 0xF69 PUSH9 0x2D000000000000000 DUP6 PUSH2 0xFD2 JUMP JUMPDEST PUSH2 0x1048 JUMP JUMPDEST SWAP1 POP PUSH32 0xCF8E41E6C4D4AA5E9CC597C10CD32EACD30C44F750A8FFDB1A8863DD8F72F0A5 PUSH32 0x872DB9E8FFA9E7D41F2AAF39897B91E4002E70FCEED391471FAD73D51503772D PUSH1 0x1 PUSH1 0xBF SHL DUP4 MULMOD PUSH1 0x1 PUSH1 0xBF SHL DUP4 MUL SUB MUL SWAP2 POP POP SWAP2 SWAP1 POP JUMP JUMPDEST DUP1 PUSH2 0x720 MSTORE POP JUMP JUMPDEST PUSH0 DUP2 DUP4 SUB SWAP1 POP SWAP3 SWAP2 POP POP JUMP JUMPDEST DUP1 PUSH2 0x740 MSTORE POP JUMP JUMPDEST DUP1 PUSH2 0x6E0 MSTORE POP JUMP JUMPDEST DUP1 PUSH2 0x700 MSTORE POP JUMP JUMPDEST PUSH0 DUP2 DUP4 GT SWAP1 POP SWAP3 SWAP2 POP POP JUMP JUMPDEST DUP1 PUSH2 0x128 MSTORE POP JUMP JUMPDEST PUSH1 0x8 PUSH1 0xF8 ADD MLOAD PUSH1 0x40 SHR DUP2 PUSH1 0xC0 SHL OR PUSH1 0xF8 MSTORE POP JUMP JUMPDEST DUP1 PUSH2 0x148 MSTORE POP JUMP JUMPDEST PUSH1 0x8 PUSH2 0x100 ADD MLOAD PUSH1 0x40 SHR DUP2 PUSH1 0xC0 SHL OR PUSH2 0x100 MSTORE POP JUMP JUMPDEST PUSH0 DUP2 DUP4 GT SWAP1 POP SWAP3 SWAP2 POP POP JUMP JUMPDEST PUSH0 PUSH0 DUP3 SWAP1 POP PUSH0 PUSH32 0x8000000000000000000000000000000000000000000000000000000000000000 PUSH1 0x3 PUSH1 0x25 DUP5 DUP6 MUL SWAP1 SHL DUP2 PUSH2 0x1086 JUMPI PUSH2 0x1085 PUSH2 0x1537 JUMP JUMPDEST JUMPDEST DIV ADD SWAP1 POP PUSH1 0x92 DUP3 SWAP1 SHL SWAP2 POP PUSH1 0x2 PUSH2 0x10C2 DUP4 DUP4 SUB PUSH32 0x4000000000000000000000000000000000000000000000000000000000000000 DUP6 DUP6 ADD PUSH2 0x12E0 JUMP JUMPDEST SWAP1 SHL SWAP1 POP DUP1 DUP2 MUL PUSH0 NOT DUP3 DUP4 MULMOD SUB SWAP1 POP DUP1 DUP2 MUL PUSH0 NOT DUP3 DUP4 MULMOD SUB SWAP1 POP DUP1 DUP2 MUL PUSH0 NOT DUP3 DUP4 MULMOD SUB SWAP1 POP DUP1 DUP2 MUL PUSH0 NOT DUP3 DUP4 MULMOD SUB SWAP1 POP DUP1 DUP2 MUL PUSH0 NOT DUP3 DUP4 MULMOD SUB SWAP1 POP DUP1 DUP2 MUL PUSH0 NOT DUP3 DUP4 MULMOD SUB SWAP1 POP DUP1 DUP2 MUL PUSH0 NOT DUP3 DUP4 MULMOD SUB SWAP1 POP DUP1 DUP2 MUL PUSH0 NOT DUP3 DUP4 MULMOD SUB SWAP1 POP DUP1 DUP2 MUL PUSH0 NOT DUP3 DUP4 MULMOD SUB SWAP1 POP DUP1 DUP2 MUL PUSH0 NOT DUP3 DUP4 MULMOD SUB SWAP1 POP DUP1 DUP2 MUL PUSH0 NOT DUP3 DUP4 MULMOD SUB SWAP1 POP DUP1 DUP2 MUL PUSH0 NOT DUP3 DUP4 MULMOD SUB SWAP1 POP DUP1 DUP2 MUL PUSH0 NOT DUP3 DUP4 MULMOD SUB SWAP1 POP DUP1 DUP2 MUL PUSH0 NOT DUP3 DUP4 MULMOD SUB SWAP1 POP DUP1 DUP2 MUL PUSH0 NOT DUP3 DUP4 MULMOD SUB SWAP1 POP DUP1 DUP2 MUL PUSH0 NOT DUP3 DUP4 MULMOD SUB SWAP1 POP DUP1 DUP2 MUL PUSH0 NOT DUP3 DUP4 MULMOD SUB SWAP1 POP DUP1 DUP2 MUL PUSH0 NOT DUP3 DUP4 MULMOD SUB SWAP1 POP DUP1 DUP2 MUL PUSH0 NOT DUP3 DUP4 MULMOD SUB SWAP1 POP DUP1 DUP2 MUL PUSH0 NOT DUP3 DUP4 MULMOD SUB SWAP1 POP DUP1 DUP2 MUL PUSH0 NOT DUP3 DUP4 MULMOD SUB SWAP1 POP DUP1 DUP2 MUL PUSH0 NOT DUP3 DUP4 MULMOD SUB SWAP1 POP DUP1 DUP2 MUL PUSH0 NOT DUP3 DUP4 MULMOD SUB SWAP1 POP DUP1 DUP2 MUL PUSH0 NOT DUP3 DUP4 MULMOD SUB SWAP1 POP DUP1 DUP2 MUL PUSH0 NOT DUP3 DUP4 MULMOD SUB SWAP1 POP DUP1 DUP2 MUL PUSH0 NOT DUP3 DUP4 MULMOD SUB SWAP1 POP DUP1 DUP2 MUL PUSH0 NOT DUP3 DUP4 MULMOD SUB SWAP1 POP DUP1 DUP2 MUL PUSH0 NOT DUP3 DUP4 MULMOD SUB SWAP1 POP DUP1 DUP2 MUL PUSH0 NOT DUP3 DUP4 MULMOD SUB SWAP1 POP DUP1 DUP2 MUL PUSH0 NOT DUP3 DUP4 MULMOD SUB SWAP1 POP DUP1 DUP2 MUL PUSH0 NOT DUP3 DUP4 MULMOD SUB SWAP1 POP DUP1 DUP2 MUL PUSH0 NOT DUP3 DUP4 MULMOD SUB SWAP1 POP DUP1 DUP2 MUL PUSH0 NOT DUP3 DUP4 MULMOD SUB SWAP1 POP DUP1 DUP2 MUL PUSH0 NOT DUP3 DUP4 MULMOD SUB SWAP1 POP DUP1 DUP2 MUL PUSH0 NOT DUP3 DUP4 MULMOD SUB SWAP1 POP DUP1 DUP2 MUL PUSH0 NOT DUP3 DUP4 MULMOD SUB SWAP1 POP DUP1 DUP2 MUL PUSH0 NOT DUP3 DUP4 MULMOD SUB SWAP1 POP DUP1 DUP2 MUL PUSH0 NOT DUP3 DUP4 MULMOD SUB SWAP1 POP DUP1 DUP2 MUL PUSH0 NOT DUP3 DUP4 MULMOD SUB SWAP1 POP DUP1 DUP2 MUL PUSH0 NOT DUP3 DUP4 MULMOD SUB SWAP1 POP DUP1 DUP2 MUL PUSH0 NOT DUP3 DUP4 MULMOD SUB SWAP1 POP DUP1 DUP2 MUL PUSH0 NOT DUP3 DUP4 MULMOD SUB SWAP1 POP DUP1 DUP2 MUL PUSH0 NOT DUP3 DUP4 MULMOD SUB SWAP1 POP DUP1 DUP2 MUL PUSH0 NOT DUP3 DUP4 MULMOD SUB SWAP1 POP DUP1 DUP2 MUL PUSH0 NOT DUP3 DUP4 MULMOD SUB SWAP1 POP DUP1 DUP2 MUL PUSH0 NOT DUP3 DUP4 MULMOD SUB SWAP1 POP DUP1 DUP2 MUL PUSH0 NOT DUP3 DUP4 MULMOD SUB SWAP1 POP DUP1 DUP2 MUL PUSH0 NOT DUP3 DUP4 MULMOD SUB SWAP1 POP DUP1 SWAP3 POP POP POP SWAP2 SWAP1 POP JUMP JUMPDEST PUSH0 PUSH1 0x1 DUP3 SUB SWAP1 POP DUP1 DUP3 DUP5 DUP7 MULMOD DUP3 SUB DUP3 DUP6 DUP8 MULMOD ADDMOD SWAP1 POP SWAP4 SWAP3 POP POP POP JUMP JUMPDEST PUSH0 DUP2 SWAP1 POP SWAP2 SWAP1 POP JUMP JUMPDEST PUSH0 DUP2 SWAP1 POP SWAP2 SWAP1 POP JUMP JUMPDEST PUSH0 PUSH2 0x1328 PUSH2 0x1323 PUSH2 0x131E DUP5 PUSH2 0x12FC JUMP JUMPDEST PUSH2 0x1305 JUMP JUMPDEST PUSH2 0x12FC JUMP JUMPDEST SWAP1 POP SWAP2 SWAP1 POP JUMP JUMPDEST PUSH2 0x1338 DUP2 PUSH2 0x130E JUMP JUMPDEST DUP3 MSTORE POP POP JUMP JUMPDEST PUSH0 PUSH1 0x20 DUP3 ADD SWAP1 POP PUSH2 0x1351 PUSH0 DUP4 ADD DUP5 PUSH2 0x132F JUMP JUMPDEST SWAP3 SWAP2 POP POP JUMP JUMPDEST PUSH2 0x1360 DUP2 PUSH2 0x130E JUMP JUMPDEST DUP3 MSTORE POP POP JUMP JUMPDEST PUSH0 PUSH1 0x20 DUP3 ADD SWAP1 POP PUSH2 0x1379 PUSH0 DUP4 ADD DUP5 PUSH2 0x1357 JUMP JUMPDEST SWAP3 SWAP2 POP POP JUMP JUMPDEST PUSH2 0x1388 DUP2 PUSH2 0x12FC JUMP JUMPDEST DUP3 MSTORE POP POP JUMP JUMPDEST PUSH0 PUSH1 0x20 DUP3 ADD SWAP1 POP PUSH2 0x13A1 PUSH0 DUP4 ADD DUP5 PUSH2 0x137F JUMP JUMPDEST SWAP3 SWAP2 POP POP JUMP JUMPDEST PUSH0 DUP2 SWAP1 POP SWAP2 SWAP1 POP JUMP JUMPDEST PUSH2 0x13B9 DUP2 PUSH2 0x13A7 JUMP JUMPDEST DUP3 MSTORE POP POP JUMP JUMPDEST PUSH0 PUSH1 0x20 DUP3 ADD SWAP1 POP PUSH2 0x13D2 PUSH0 DUP4 ADD DUP5 PUSH2 0x13B0 JUMP JUMPDEST SWAP3 SWAP2 POP POP JUMP JUMPDEST PUSH32 0x4E487B7100000000000000000000000000000000000000000000000000000000 PUSH0 MSTORE PUSH1 0x11 PUSH1 0x4 MSTORE PUSH1 0x24 PUSH0 REVERT JUMPDEST PUSH0 PUSH2 0x140F DUP3 PUSH2 0x13A7 JUMP JUMPDEST SWAP2 POP PUSH2 0x141A DUP4 PUSH2 0x13A7 JUMP JUMPDEST SWAP3 POP DUP3 DUP3 SUB SWAP1 POP DUP2 DUP2 SLT PUSH0 DUP5 SLT AND DUP3 DUP3 SGT PUSH0 DUP6 SLT ISZERO AND OR ISZERO PUSH2 0x143F JUMPI PUSH2 0x143E PUSH2 0x13D8 JUMP JUMPDEST JUMPDEST SWAP3 SWAP2 POP POP JUMP JUMPDEST PUSH0 PUSH2 0x145F PUSH2 0x145A PUSH2 0x1455 DUP5 PUSH2 0x13A7 JUMP JUMPDEST PUSH2 0x1305 JUMP JUMPDEST PUSH2 0x13A7 JUMP JUMPDEST SWAP1 POP SWAP2 SWAP1 POP JUMP JUMPDEST PUSH2 0x146F DUP2 PUSH2 0x1445 JUMP JUMPDEST DUP3 MSTORE POP POP JUMP JUMPDEST PUSH0 PUSH1 0x20 DUP3 ADD SWAP1 POP PUSH2 0x1488 PUSH0 DUP4 ADD DUP5 PUSH2 0x1466 JUMP JUMPDEST SWAP3 SWAP2 POP POP JUMP JUMPDEST PUSH2 0x1497 DUP2 PUSH2 0x130E JUMP JUMPDEST DUP3 MSTORE POP POP JUMP JUMPDEST PUSH0 PUSH1 0x40 DUP3 ADD SWAP1 POP PUSH2 0x14B0 PUSH0 DUP4 ADD DUP6 PUSH2 0x148E JUMP JUMPDEST PUSH2 0x14BD PUSH1 0x20 DUP4 ADD DUP5 PUSH2 0x148E JUMP JUMPDEST SWAP4 SWAP3 POP POP POP JUMP JUMPDEST PUSH0 DUP2 PUSH1 0xF SIGNEXTEND SWAP1 POP SWAP2 SWAP1 POP JUMP JUMPDEST PUSH0 PUSH2 0x14DA DUP3 PUSH2 0x14C4 JUMP JUMPDEST SWAP2 POP PUSH2 0x14E5 DUP4 PUSH2 0x14C4 JUMP JUMPDEST SWAP3 POP DUP3 DUP3 SUB SWAP1 POP PUSH16 0x7FFFFFFFFFFFFFFFFFFFFFFFFFFFFFFF DUP2 SGT PUSH32 0xFFFFFFFFFFFFFFFFFFFFFFFFFFFFFFFF80000000000000000000000000000000 DUP3 SLT OR ISZERO PUSH2 0x1531 JUMPI PUSH2 0x1530 PUSH2 0x13D8 JUMP JUMPDEST JUMPDEST SWAP3 SWAP2 POP POP JUMP JUMPDEST PUSH32 0x4E487B7100000000000000000000000000000000000000000000000000000000 PUSH0 MSTORE PUSH1 0x12 PUSH1 0x4 MSTORE PUSH1 0x24 PUSH0 REVERT INVALID LOG2 PUSH5 0x6970667358 0x22 SLT KECCAK256 0xD1 0xD 0xF9 PUSH31 0x3728645E368A656BB371F2BAD4BFB8CA1E08AC7926E29B69080035F664736F PUSH13 0x634300081C0033608060405234 DUP1 ISZERO PUSH1 0xE JUMPI PUSH0 PUSH0 REVERT JUMPDEST POP PUSH2 0x1976 DUP1 PUSH2 0x1C PUSH0 CODECOPY PUSH0 RETURN INVALID PUSH1 0x80 PUSH1 0x40 MSTORE CALLVALUE DUP1 ISZERO PUSH2 0xF JUMPI PUSH0 PUSH0 REVERT JUMPDEST POP PUSH1 0x4 CALLDATASIZE LT PUSH2 0x9C JUMPI PUSH0 CALLDATALOAD PUSH1 0xE0 SHR DUP1 PUSH4 0x76E9A038 GT PUSH2 0x64 JUMPI DUP1 PUSH4 0x76E9A038 EQ PUSH2 0x10E JUMPI DUP1 PUSH4 0x9C3BDBA5 EQ PUSH2 0x118 JUMPI DUP1 PUSH4 0xD28B2CE7 EQ PUSH2 0x122 JUMPI DUP1 PUSH4 0xE7675635 EQ PUSH2 0x12C JUMPI DUP1 PUSH4 0xED93ED85 EQ PUSH2 0x14A JUMPI PUSH2 0x9C JUMP JUMPDEST DUP1 PUSH4 0x21008841 EQ PUSH2 0xA0 JUMPI DUP1 PUSH4 0x38E59837 EQ PUSH2 0xBE JUMPI DUP1 PUSH4 0x4332BE3D EQ PUSH2 0xC8 JUMPI DUP1 PUSH4 0x6853005D EQ PUSH2 0xE6 JUMPI DUP1 PUSH4 0x720221F8 EQ PUSH2 0x104 JUMPI JUMPDEST PUSH0 PUSH0 REVERT JUMPDEST PUSH2 0xA8 PUSH2 0x154 JUMP JUMPDEST PUSH1 0x40 MLOAD PUSH2 0xB5 SWAP2 SWAP1 PUSH2 0x169C JUMP JUMPDEST PUSH1 0x40 MLOAD DUP1 SWAP2 SUB SWAP1 RETURN JUMPDEST PUSH2 0xC6 PUSH2 0x20A JUMP JUMPDEST STOP JUMPDEST PUSH2 0xD0 PUSH2 0x224 JUMP JUMPDEST PUSH1 0x40 MLOAD PUSH2 0xDD SWAP2 SWAP1 PUSH2 0x171C JUMP JUMPDEST PUSH1 0x40 MLOAD DUP1 SWAP2 SUB SWAP1 RETURN JUMPDEST PUSH2 0xEE PUSH2 0x295 JUMP JUMPDEST PUSH1 0x40 MLOAD PUSH2 0xFB SWAP2 SWAP1 PUSH2 0x1744 JUMP JUMPDEST PUSH1 0x40 MLOAD DUP1 SWAP2 SUB SWAP1 RETURN JUMPDEST PUSH2 0x10C PUSH2 0x2B3 JUMP JUMPDEST STOP JUMPDEST PUSH2 0x116 PUSH2 0x2CD JUMP JUMPDEST STOP JUMPDEST PUSH2 0x120 PUSH2 0x2E7 JUMP JUMPDEST STOP JUMPDEST PUSH2 0x12A PUSH2 0x301 JUMP JUMPDEST STOP JUMPDEST PUSH2 0x134 PUSH2 0x321 JUMP JUMPDEST PUSH1 0x40 MLOAD PUSH2 0x141 SWAP2 SWAP1 PUSH2 0x1744 JUMP JUMPDEST PUSH1 0x40 MLOAD DUP1 SWAP2 SUB SWAP1 RETURN JUMPDEST PUSH2 0x152 PUSH2 0x33F JUMP JUMPDEST STOP JUMPDEST PUSH2 0x15C PUSH2 0x14BD JUMP JUMPDEST PUSH2 0x164 PUSH2 0x33F JUMP JUMPDEST PUSH2 0x16C PUSH2 0x359 JUMP JUMPDEST DUP2 PUSH0 ADD DUP2 DUP2 MSTORE POP POP PUSH2 0x17C PUSH2 0x362 JUMP JUMPDEST DUP2 PUSH1 0x20 ADD DUP2 DUP2 MSTORE POP POP PUSH2 0x18D PUSH2 0x36C JUMP JUMPDEST DUP2 PUSH1 0x40 ADD DUP2 DUP2 MSTORE POP POP PUSH2 0x19E PUSH2 0x376 JUMP JUMPDEST DUP2 PUSH1 0x60 ADD DUP2 DUP2 MSTORE POP POP PUSH2 0x1AF PUSH2 0x380 JUMP JUMPDEST DUP2 PUSH1 0x80 ADD SWAP1 PUSH2 0xFFFF AND SWAP1 DUP2 PUSH2 0xFFFF AND DUP2 MSTORE POP POP PUSH2 0x1CA PUSH2 0x38D JUMP JUMPDEST DUP2 PUSH1 0xA0 ADD DUP2 DUP2 MSTORE POP POP PUSH2 0x1DB PUSH2 0x397 JUMP JUMPDEST DUP2 PUSH1 0xC0 ADD DUP2 DUP2 MSTORE POP POP PUSH2 0x1EC PUSH2 0x3A1 JUMP JUMPDEST DUP2 PUSH1 0xE0 ADD DUP2 DUP2 MSTORE POP POP PUSH2 0x1FD PUSH2 0x3AA JUMP JUMPDEST DUP2 PUSH2 0x100 ADD DUP2 DUP2 MSTORE POP POP SWAP1 JUMP JUMPDEST PUSH2 0x212 PUSH2 0x3B3 JUMP JUMPDEST PUSH0 PUSH2 0x21B PUSH2 0x3A1 JUMP JUMPDEST SWAP1 POP PUSH0 DUP2 PUSH0 LOG1 POP JUMP JUMPDEST PUSH2 0x22C PUSH2 0x1504 JUMP JUMPDEST PUSH2 0x234 PUSH2 0x456 JUMP JUMPDEST PUSH2 0x23C PUSH2 0x359 JUMP JUMPDEST DUP2 PUSH0 ADD DUP2 DUP2 MSTORE POP POP PUSH2 0x24C PUSH2 0x362 JUMP JUMPDEST DUP2 PUSH1 0x20 ADD DUP2 DUP2 MSTORE POP POP PUSH2 0x25D PUSH2 0x36C JUMP JUMPDEST DUP2 PUSH1 0x40 ADD DUP2 DUP2 MSTORE POP POP PUSH2 0x26E PUSH2 0x376 JUMP JUMPDEST DUP2 PUSH1 0x60 ADD DUP2 DUP2 MSTORE POP POP PUSH2 0x27F PUSH2 0x380 JUMP JUMPDEST DUP2 PUSH1 0x80 ADD SWAP1 PUSH2 0xFFFF AND SWAP1 DUP2 PUSH2 0xFFFF AND DUP2 MSTORE POP POP SWAP1 JUMP JUMPDEST PUSH0 PUSH2 0x29E PUSH2 0x7E8 JUMP JUMPDEST SWAP1 POP PUSH0 PUSH2 0x2A9 PUSH2 0x3A1 JUMP JUMPDEST SWAP1 POP PUSH0 DUP2 PUSH0 LOG1 POP SWAP1 JUMP JUMPDEST PUSH2 0x2BB PUSH2 0x8D6 JUMP JUMPDEST PUSH0 PUSH2 0x2C4 PUSH2 0x3A1 JUMP JUMPDEST SWAP1 POP PUSH0 DUP2 PUSH0 LOG1 POP JUMP JUMPDEST PUSH2 0x2D5 PUSH2 0x90D JUMP JUMPDEST PUSH0 PUSH2 0x2DE PUSH2 0x3A1 JUMP JUMPDEST SWAP1 POP PUSH0 DUP2 PUSH0 LOG1 POP JUMP JUMPDEST PUSH2 0x2EF PUSH2 0xA87 JUMP JUMPDEST PUSH0 PUSH2 0x2F8 PUSH2 0x3A1 JUMP JUMPDEST SWAP1 POP PUSH0 DUP2 PUSH0 LOG1 POP JUMP JUMPDEST PUSH2 0x309 PUSH2 0xAA7 JUMP JUMPDEST PUSH0 PUSH2 0x312 PUSH2 0x3AA JUMP JUMPDEST SWAP1 POP PUSH0 PUSH1 0x20 DUP3 PUSH1 0xA4 ADD ADD PUSH0 LOG1 POP JUMP JUMPDEST PUSH0 PUSH2 0x32A PUSH2 0xC3C JUMP JUMPDEST SWAP1 POP PUSH0 PUSH2 0x335 PUSH2 0x3A1 JUMP JUMPDEST SWAP1 POP PUSH0 DUP2 PUSH0 LOG1 POP SWAP1 JUMP JUMPDEST PUSH2 0x347 PUSH2 0x456 JUMP JUMPDEST PUSH0 PUSH2 0x350 PUSH2 0x3A1 JUMP JUMPDEST SWAP1 POP PUSH0 DUP2 PUSH0 LOG1 POP JUMP JUMPDEST PUSH0 PUSH1 0xD8 MLOAD SWAP1 POP SWAP1 JUMP JUMPDEST PUSH0 PUSH2 0x128 MLOAD SWAP1 POP SWAP1 JUMP JUMPDEST PUSH0 PUSH2 0x148 MLOAD SWAP1 POP SWAP1 JUMP JUMPDEST PUSH0 PUSH2 0x108 MLOAD SWAP1 POP SWAP1 JUMP JUMPDEST PUSH0 PUSH2 0x653 MLOAD PUSH1 0xF0 SHR SWAP1 POP SWAP1 JUMP JUMPDEST PUSH0 PUSH2 0x60F MLOAD SWAP1 POP SWAP1 JUMP JUMPDEST PUSH0 PUSH2 0x62F MLOAD SWAP1 POP SWAP1 JUMP JUMPDEST PUSH0 PUSH1 0x40 MLOAD SWAP1 POP SWAP1 JUMP JUMPDEST PUSH0 PUSH1 0xA4 MLOAD SWAP1 POP SWAP1 JUMP JUMPDEST PUSH2 0x3BC CALLER PUSH2 0xFF1 JUMP JUMPDEST PUSH0 PUSH1 0x4 CALLDATALOAD SWAP1 POP PUSH2 0x3CB DUP2 PUSH2 0x1005 JUMP JUMPDEST PUSH0 PUSH1 0x24 CALLDATALOAD SWAP1 POP PUSH2 0x3E1 DUP2 PUSH6 0x800000000000 PUSH2 0x100C JUMP JUMPDEST DUP2 SWAP1 PUSH2 0x423 JUMPI PUSH1 0x40 MLOAD PUSH32 0x1F84BBB300000000000000000000000000000000000000000000000000000000 DUP2 MSTORE PUSH1 0x4 ADD PUSH2 0x41A SWAP2 SWAP1 PUSH2 0x176C JUMP JUMPDEST PUSH1 0x40 MLOAD DUP1 SWAP2 SUB SWAP1 REVERT JUMPDEST POP PUSH2 0x42D DUP2 PUSH2 0x1020 JUMP JUMPDEST POP PUSH0 PUSH1 0x20 PUSH1 0xA4 PUSH2 0x808 SUB SUB SWAP1 POP PUSH2 0x443 DUP2 PUSH2 0x1036 JUMP JUMPDEST PUSH2 0x452 PUSH2 0x808 PUSH2 0xFFFF AND PUSH2 0x103D JUMP JUMPDEST POP POP JUMP JUMPDEST PUSH2 0x45F CALLER PUSH2 0xFF1 JUMP JUMPDEST PUSH0 PUSH1 0x4 CALLDATALOAD SWAP1 POP PUSH2 0x46E DUP2 PUSH2 0x1005 JUMP JUMPDEST PUSH0 PUSH2 0x489 PUSH2 0x47B DUP4 PUSH2 0x1044 JUMP JUMPDEST PUSH8 0x8000000000000000 PUSH2 0x1058 JUMP JUMPDEST SWAP1 POP PUSH0 PUSH1 0x24 CALLDATALOAD SWAP1 POP PUSH2 0x49A DUP2 PUSH2 0x1064 JUMP JUMPDEST PUSH0 PUSH2 0x4A5 DUP3 DUP5 PUSH2 0x1058 JUMP JUMPDEST SWAP1 POP PUSH2 0x4B1 DUP2 PUSH0 PUSH2 0x106C JUMP JUMPDEST DUP3 SWAP1 PUSH2 0x4F3 JUMPI PUSH1 0x40 MLOAD PUSH32 0x42D0116800000000000000000000000000000000000000000000000000000000 DUP2 MSTORE PUSH1 0x4 ADD PUSH2 0x4EA SWAP2 SWAP1 PUSH2 0x1794 JUMP JUMPDEST PUSH1 0x40 MLOAD DUP1 SWAP2 SUB SWAP1 REVERT JUMPDEST POP PUSH2 0x507 DUP2 PUSH9 0x10000000000000000 PUSH2 0x1078 JUMP JUMPDEST DUP3 SWAP1 PUSH2 0x549 JUMPI PUSH1 0x40 MLOAD PUSH32 0x42D0116800000000000000000000000000000000000000000000000000000000 DUP2 MSTORE PUSH1 0x4 ADD PUSH2 0x540 SWAP2 SWAP1 PUSH2 0x1794 JUMP JUMPDEST PUSH1 0x40 MLOAD DUP1 SWAP2 SUB SWAP1 REVERT JUMPDEST POP PUSH2 0x553 DUP2 PUSH2 0x1084 JUMP JUMPDEST PUSH0 PUSH1 0x44 CALLDATALOAD SWAP1 POP PUSH2 0x562 DUP2 PUSH2 0x1098 JUMP JUMPDEST PUSH0 PUSH2 0x56D DUP3 DUP7 PUSH2 0x1058 JUMP JUMPDEST SWAP1 POP PUSH2 0x579 DUP2 PUSH0 PUSH2 0x106C JUMP JUMPDEST DUP3 SWAP1 PUSH2 0x5BB JUMPI PUSH1 0x40 MLOAD PUSH32 0x42D0116800000000000000000000000000000000000000000000000000000000 DUP2 MSTORE PUSH1 0x4 ADD PUSH2 0x5B2 SWAP2 SWAP1 PUSH2 0x1794 JUMP JUMPDEST PUSH1 0x40 MLOAD DUP1 SWAP2 SUB SWAP1 REVERT JUMPDEST POP PUSH2 0x5CF DUP2 PUSH9 0x10000000000000000 PUSH2 0x1078 JUMP JUMPDEST DUP3 SWAP1 PUSH2 0x611 JUMPI PUSH1 0x40 MLOAD PUSH32 0x42D0116800000000000000000000000000000000000000000000000000000000 DUP2 MSTORE PUSH1 0x4 ADD PUSH2 0x608 SWAP2 SWAP1 PUSH2 0x1794 JUMP JUMPDEST PUSH1 0x40 MLOAD DUP1 SWAP2 SUB SWAP1 REVERT JUMPDEST POP PUSH2 0x61B DUP2 PUSH2 0x10A0 JUMP JUMPDEST POP POP POP POP POP POP PUSH0 PUSH1 0x64 CALLDATALOAD SWAP1 POP PUSH16 0x7FFFFFFFFFFFFFFFFFFFFFFFFFFFFFFF PUSH1 0xF SIGNEXTEND DUP2 SGT ISZERO DUP2 SWAP1 PUSH2 0x680 JUMPI PUSH1 0x40 MLOAD PUSH32 0xC270DEB300000000000000000000000000000000000000000000000000000000 DUP2 MSTORE PUSH1 0x4 ADD PUSH2 0x677 SWAP2 SWAP1 PUSH2 0x17BC JUMP JUMPDEST PUSH1 0x40 MLOAD DUP1 SWAP2 SUB SWAP1 REVERT JUMPDEST POP PUSH16 0x7FFFFFFFFFFFFFFFFFFFFFFFFFFFFFFF PUSH0 PUSH2 0x69D SWAP2 SWAP1 PUSH2 0x180E JUMP JUMPDEST PUSH1 0xF SIGNEXTEND DUP2 SLT ISZERO DUP2 SWAP1 PUSH2 0x6E5 JUMPI PUSH1 0x40 MLOAD PUSH32 0xC270DEB300000000000000000000000000000000000000000000000000000000 DUP2 MSTORE PUSH1 0x4 ADD PUSH2 0x6DC SWAP2 SWAP1 PUSH2 0x17BC JUMP JUMPDEST PUSH1 0x40 MLOAD DUP1 SWAP2 SUB SWAP1 REVERT JUMPDEST POP PUSH0 DUP2 EQ ISZERO DUP2 SWAP1 PUSH2 0x72C JUMPI PUSH1 0x40 MLOAD PUSH32 0xC270DEB300000000000000000000000000000000000000000000000000000000 DUP2 MSTORE PUSH1 0x4 ADD PUSH2 0x723 SWAP2 SWAP1 PUSH2 0x17BC JUMP JUMPDEST PUSH1 0x40 MLOAD DUP1 SWAP2 SUB SWAP1 REVERT JUMPDEST POP PUSH2 0x736 DUP2 PUSH2 0x10B6 JUMP JUMPDEST POP PUSH0 PUSH0 PUSH0 PUSH0 PUSH0 PUSH1 0x84 CALLDATALOAD PUSH1 0x4 ADD PUSH2 0x808 SWAP6 POP PUSH1 0x20 PUSH2 0x808 ADD SWAP5 POP DUP1 CALLDATALOAD SWAP4 POP DUP4 DUP6 ADD SWAP2 POP PUSH1 0x20 PUSH1 0xA4 DUP4 SUB SUB SWAP3 POP DUP4 PUSH1 0x20 DUP3 ADD DUP7 CALLDATACOPY POP PUSH2 0x772 DUP6 PUSH2 0x10BE JUMP JUMPDEST PUSH2 0x77B DUP5 PUSH2 0x10C6 JUMP JUMPDEST PUSH2 0xFFFF DUP1 AND DUP4 GT ISZERO DUP4 SWAP1 PUSH2 0x7C5 JUMPI PUSH1 0x40 MLOAD PUSH32 0x805CFD4B00000000000000000000000000000000000000000000000000000000 DUP2 MSTORE PUSH1 0x4 ADD PUSH2 0x7BC SWAP2 SWAP1 PUSH2 0x1884 JUMP JUMPDEST PUSH1 0x40 MLOAD DUP1 SWAP2 SUB SWAP1 REVERT JUMPDEST POP PUSH2 0x7CF DUP4 PUSH2 0x10CE JUMP JUMPDEST PUSH2 0x7D8 DUP3 PUSH2 0x1036 JUMP JUMPDEST PUSH2 0x7E1 DUP2 PUSH2 0x103D JUMP JUMPDEST POP POP POP POP POP JUMP JUMPDEST PUSH0 PUSH2 0x7F2 CALLER PUSH2 0xFF1 JUMP JUMPDEST PUSH0 PUSH1 0x4 CALLDATALOAD SWAP1 POP PUSH2 0x801 DUP2 PUSH2 0x1005 JUMP JUMPDEST PUSH0 PUSH0 PUSH0 PUSH1 0x24 CALLDATALOAD PUSH1 0x4 ADD SWAP2 POP PUSH2 0x808 SWAP3 POP DUP2 CALLDATALOAD PUSH1 0x5 SHL SWAP1 POP PUSH1 0x5 DUP2 DIV PUSH1 0x5 SHL DUP4 ADD SWAP5 POP PUSH2 0x82C DUP4 PUSH2 0x10E4 JUMP JUMPDEST PUSH0 PUSH0 PUSH0 PUSH0 PUSH1 0x44 CALLDATALOAD PUSH1 0x4 ADD DUP6 DUP11 ADD SWAP5 POP DUP1 CALLDATALOAD SWAP4 POP DUP4 DUP6 ADD SWAP2 POP PUSH1 0x20 PUSH1 0xA4 DUP4 SUB SUB SWAP3 POP DUP6 PUSH1 0x20 DUP9 ADD DUP12 CALLDATACOPY DUP4 PUSH1 0x20 DUP3 ADD DUP7 CALLDATACOPY POP PUSH2 0x865 DUP5 PUSH2 0x10C6 JUMP JUMPDEST PUSH2 0xFFFF DUP1 AND DUP4 GT ISZERO DUP4 SWAP1 PUSH2 0x8AF JUMPI PUSH1 0x40 MLOAD PUSH32 0x805CFD4B00000000000000000000000000000000000000000000000000000000 DUP2 MSTORE PUSH1 0x4 ADD PUSH2 0x8A6 SWAP2 SWAP1 PUSH2 0x1884 JUMP JUMPDEST PUSH1 0x40 MLOAD DUP1 SWAP2 SUB SWAP1 REVERT JUMPDEST POP PUSH2 0x8B9 DUP4 PUSH2 0x10CE JUMP JUMPDEST PUSH2 0x8C2 DUP3 PUSH2 0x1036 JUMP JUMPDEST PUSH2 0x8CB DUP2 PUSH2 0x103D JUMP JUMPDEST POP POP POP POP POP POP POP POP SWAP1 JUMP JUMPDEST PUSH0 PUSH1 0x4 CALLDATALOAD SWAP1 POP PUSH2 0x8E5 DUP2 PUSH2 0x1005 JUMP JUMPDEST PUSH0 PUSH1 0x20 PUSH1 0xA4 PUSH2 0x808 SUB SUB SWAP1 POP PUSH2 0x8FA DUP2 PUSH2 0x1036 JUMP JUMPDEST PUSH2 0x909 PUSH2 0x808 PUSH2 0xFFFF AND PUSH2 0x103D JUMP JUMPDEST POP POP JUMP JUMPDEST PUSH2 0x916 CALLER PUSH2 0xFF1 JUMP JUMPDEST PUSH0 PUSH1 0x4 CALLDATALOAD SWAP1 POP PUSH2 0x925 DUP2 PUSH2 0x1005 JUMP JUMPDEST POP PUSH0 PUSH1 0x24 CALLDATALOAD SWAP1 POP PUSH16 0x7FFFFFFFFFFFFFFFFFFFFFFFFFFFFFFF PUSH1 0xF SIGNEXTEND DUP2 SGT ISZERO DUP2 SWAP1 PUSH2 0x985 JUMPI PUSH1 0x40 MLOAD PUSH32 0xC270DEB300000000000000000000000000000000000000000000000000000000 DUP2 MSTORE PUSH1 0x4 ADD PUSH2 0x97C SWAP2 SWAP1 PUSH2 0x17BC JUMP JUMPDEST PUSH1 0x40 MLOAD DUP1 SWAP2 SUB SWAP1 REVERT JUMPDEST POP PUSH0 DUP2 SGT DUP2 SWAP1 PUSH2 0x9CB JUMPI PUSH1 0x40 MLOAD PUSH32 0xC270DEB300000000000000000000000000000000000000000000000000000000 DUP2 MSTORE PUSH1 0x4 ADD PUSH2 0x9C2 SWAP2 SWAP1 PUSH2 0x17BC JUMP JUMPDEST PUSH1 0x40 MLOAD DUP1 SWAP2 SUB SWAP1 REVERT JUMPDEST POP PUSH2 0x9D5 DUP2 PUSH2 0x10B6 JUMP JUMPDEST POP PUSH0 PUSH0 PUSH0 PUSH0 PUSH0 PUSH1 0x44 CALLDATALOAD PUSH1 0x4 ADD PUSH2 0x808 SWAP6 POP PUSH1 0x20 PUSH2 0x808 ADD SWAP5 POP DUP1 CALLDATALOAD SWAP4 POP DUP4 DUP6 ADD SWAP2 POP PUSH1 0x20 PUSH1 0xA4 DUP4 SUB SUB SWAP3 POP DUP4 PUSH1 0x20 DUP3 ADD DUP7 CALLDATACOPY POP PUSH2 0xA11 DUP6 PUSH2 0x10BE JUMP JUMPDEST PUSH2 0xA1A DUP5 PUSH2 0x10C6 JUMP JUMPDEST PUSH2 0xFFFF DUP1 AND DUP4 GT ISZERO DUP4 SWAP1 PUSH2 0xA64 JUMPI PUSH1 0x40 MLOAD PUSH32 0x805CFD4B00000000000000000000000000000000000000000000000000000000 DUP2 MSTORE PUSH1 0x4 ADD PUSH2 0xA5B SWAP2 SWAP1 PUSH2 0x1884 JUMP JUMPDEST PUSH1 0x40 MLOAD DUP1 SWAP2 SUB SWAP1 REVERT JUMPDEST POP PUSH2 0xA6E DUP4 PUSH2 0x10CE JUMP JUMPDEST PUSH2 0xA77 DUP3 PUSH2 0x1036 JUMP JUMPDEST PUSH2 0xA80 DUP2 PUSH2 0x103D JUMP JUMPDEST POP POP POP POP POP JUMP JUMPDEST PUSH0 PUSH1 0x4 CALLDATALOAD SWAP1 POP PUSH2 0xA96 DUP2 PUSH2 0x1005 JUMP JUMPDEST PUSH2 0xAA4 PUSH1 0xF8 PUSH2 0xFFFF AND PUSH2 0x103D JUMP JUMPDEST POP JUMP JUMPDEST PUSH2 0xAB0 CALLER PUSH2 0xFF1 JUMP JUMPDEST PUSH0 PUSH1 0x4 CALLDATALOAD SWAP1 POP PUSH2 0xABF DUP2 PUSH2 0x1005 JUMP JUMPDEST PUSH0 PUSH1 0x24 CALLDATALOAD SWAP1 POP PUSH16 0x7FFFFFFFFFFFFFFFFFFFFFFFFFFFFFFF PUSH0 SUB DUP2 SLT ISZERO PUSH2 0xAF5 JUMPI PUSH16 0x7FFFFFFFFFFFFFFFFFFFFFFFFFFFFFFF PUSH0 SUB SWAP1 POP JUMPDEST PUSH16 0x7FFFFFFFFFFFFFFFFFFFFFFFFFFFFFFF DUP2 SGT ISZERO PUSH2 0xB21 JUMPI PUSH16 0x7FFFFFFFFFFFFFFFFFFFFFFFFFFFFFFF SWAP1 POP JUMPDEST PUSH1 0x1 PUSH1 0x7F SHL DUP2 MUL SWAP1 POP PUSH2 0xB33 DUP2 PUSH2 0x10EC JUMP JUMPDEST PUSH0 PUSH1 0x44 CALLDATALOAD SWAP1 POP PUSH2 0xB42 DUP2 PUSH2 0x10F4 JUMP JUMPDEST PUSH0 PUSH1 0x64 CALLDATALOAD PUSH1 0x80 SHR SWAP1 POP PUSH16 0x7FFFFFFFFFFFFFFFFFFFFFFFFFFFFFFF DUP2 GT ISZERO PUSH2 0xB77 JUMPI PUSH16 0x7FFFFFFFFFFFFFFFFFFFFFFFFFFFFFFF SWAP1 POP JUMPDEST PUSH2 0xB80 DUP2 PUSH2 0x10FC JUMP JUMPDEST PUSH1 0x74 CALLDATALOAD PUSH1 0x80 SHR PUSH1 0x2 DUP2 GT ISZERO PUSH2 0xB94 JUMPI PUSH1 0x2 SWAP1 POP JUMPDEST DUP1 PUSH2 0x150 MSTORE8 POP PUSH0 PUSH0 PUSH0 PUSH0 PUSH1 0x84 CALLDATALOAD PUSH1 0x4 ADD PUSH2 0x808 SWAP4 POP DUP1 CALLDATALOAD SWAP3 POP DUP3 DUP5 ADD SWAP5 POP PUSH1 0x20 PUSH1 0xA4 DUP7 SUB SUB SWAP2 POP DUP3 PUSH1 0x20 DUP3 ADD DUP6 CALLDATACOPY POP PUSH2 0xBCC DUP4 PUSH2 0x10C6 JUMP JUMPDEST PUSH2 0xFFFF DUP1 AND DUP3 GT ISZERO DUP3 SWAP1 PUSH2 0xC16 JUMPI PUSH1 0x40 MLOAD PUSH32 0x805CFD4B00000000000000000000000000000000000000000000000000000000 DUP2 MSTORE PUSH1 0x4 ADD PUSH2 0xC0D SWAP2 SWAP1 PUSH2 0x1884 JUMP JUMPDEST PUSH1 0x40 MLOAD DUP1 SWAP2 SUB SWAP1 REVERT JUMPDEST POP PUSH2 0xC20 DUP3 PUSH2 0x10CE JUMP JUMPDEST PUSH2 0xC29 DUP2 PUSH2 0x1036 JUMP JUMPDEST PUSH2 0xC32 DUP5 PUSH2 0x10E4 JUMP JUMPDEST POP POP POP POP POP POP POP POP JUMP JUMPDEST PUSH0 PUSH2 0xC46 CALLER PUSH2 0xFF1 JUMP JUMPDEST PUSH0 PUSH0 PUSH1 0x4 CALLDATALOAD SWAP1 POP PUSH2 0xC56 DUP2 PUSH2 0x1110 JUMP JUMPDEST SWAP2 POP POP PUSH2 0xC62 DUP2 PUSH2 0x1005 JUMP JUMPDEST PUSH0 DUP2 SUB PUSH2 0xC9B JUMPI PUSH1 0x40 MLOAD PUSH32 0x4E79178600000000000000000000000000000000000000000000000000000000 DUP2 MSTORE PUSH1 0x4 ADD PUSH1 0x40 MLOAD DUP1 SWAP2 SUB SWAP1 REVERT JUMPDEST PUSH0 PUSH2 0xCAD PUSH2 0xCA8 DUP4 PUSH2 0x112B JUMP JUMPDEST PUSH2 0x114E JUMP JUMPDEST EQ DUP2 SWAP1 PUSH2 0xCF0 JUMPI PUSH1 0x40 MLOAD PUSH32 0xA3A300C700000000000000000000000000000000000000000000000000000000 DUP2 MSTORE PUSH1 0x4 ADD PUSH2 0xCE7 SWAP2 SWAP1 PUSH2 0x1884 JUMP JUMPDEST PUSH1 0x40 MLOAD DUP1 SWAP2 SUB SWAP1 REVERT JUMPDEST POP PUSH0 PUSH2 0xCFB DUP3 PUSH2 0x1044 JUMP JUMPDEST SWAP1 POP PUSH2 0xD1B DUP2 PUSH9 0x2D000000000000000 PUSH0 PUSH2 0xD16 SWAP2 SWAP1 PUSH2 0x189D JUMP JUMPDEST PUSH2 0x106C JUMP JUMPDEST DUP2 SWAP1 PUSH2 0xD5D JUMPI PUSH1 0x40 MLOAD PUSH32 0xA2FF8ABD00000000000000000000000000000000000000000000000000000000 DUP2 MSTORE PUSH1 0x4 ADD PUSH2 0xD54 SWAP2 SWAP1 PUSH2 0x1794 JUMP JUMPDEST PUSH1 0x40 MLOAD DUP1 SWAP2 SUB SWAP1 REVERT JUMPDEST POP PUSH2 0xD71 DUP2 PUSH9 0x2D000000000000000 PUSH2 0x1078 JUMP JUMPDEST DUP2 SWAP1 PUSH2 0xDB3 JUMPI PUSH1 0x40 MLOAD PUSH32 0xA2FF8ABD00000000000000000000000000000000000000000000000000000000 DUP2 MSTORE PUSH1 0x4 ADD PUSH2 0xDAA SWAP2 SWAP1 PUSH2 0x1794 JUMP JUMPDEST PUSH1 0x40 MLOAD DUP1 SWAP2 SUB SWAP1 REVERT JUMPDEST POP PUSH2 0xDC5 PUSH2 0xDC0 DUP3 PUSH2 0x1158 JUMP JUMPDEST PUSH2 0x11D1 JUMP JUMPDEST PUSH2 0xDDF PUSH2 0xDDA PUSH2 0xDD5 PUSH0 DUP5 PUSH2 0x1058 JUMP JUMPDEST PUSH2 0x1158 JUMP JUMPDEST PUSH2 0x11D9 JUMP JUMPDEST POP POP PUSH0 PUSH1 0x24 CALLDATALOAD SWAP1 POP PUSH2 0xDF0 DUP2 PUSH2 0x11E1 JUMP JUMPDEST PUSH0 PUSH1 0x44 CALLDATALOAD SWAP1 POP PUSH2 0xDFF DUP2 PUSH2 0x11E9 JUMP JUMPDEST PUSH2 0xE09 DUP2 DUP4 PUSH2 0x11F1 JUMP JUMPDEST DUP3 DUP3 SWAP1 SWAP2 PUSH2 0xE4E JUMPI PUSH1 0x40 MLOAD PUSH32 0xFE92479C00000000000000000000000000000000000000000000000000000000 DUP2 MSTORE PUSH1 0x4 ADD PUSH2 0xE45 SWAP3 SWAP2 SWAP1 PUSH2 0x18EC JUMP JUMPDEST PUSH1 0x40 MLOAD DUP1 SWAP2 SUB SWAP1 REVERT JUMPDEST POP POP POP POP PUSH0 PUSH1 0x64 CALLDATALOAD SWAP1 POP PUSH2 0xE68 DUP2 PUSH6 0x800000000000 PUSH2 0x100C JUMP JUMPDEST DUP2 SWAP1 PUSH2 0xEAA JUMPI PUSH1 0x40 MLOAD PUSH32 0x1F84BBB300000000000000000000000000000000000000000000000000000000 DUP2 MSTORE PUSH1 0x4 ADD PUSH2 0xEA1 SWAP2 SWAP1 PUSH2 0x176C JUMP JUMPDEST PUSH1 0x40 MLOAD DUP1 SWAP2 SUB SWAP1 REVERT JUMPDEST POP PUSH2 0xEB4 DUP2 PUSH2 0x1020 JUMP JUMPDEST POP PUSH0 PUSH0 PUSH0 PUSH1 0x84 CALLDATALOAD PUSH1 0x4 ADD SWAP2 POP PUSH2 0x808 SWAP3 POP DUP2 CALLDATALOAD PUSH1 0x5 SHL SWAP1 POP PUSH1 0x5 DUP2 DIV PUSH1 0x5 SHL DUP4 ADD SWAP4 POP PUSH2 0xEE0 DUP4 PUSH2 0x10E4 JUMP JUMPDEST PUSH0 PUSH0 PUSH0 PUSH1 0xA4 CALLDATALOAD PUSH1 0x4 ADD SWAP2 POP DUP4 DUP8 ADD SWAP3 POP DUP2 CALLDATALOAD PUSH1 0x5 SHL SWAP1 POP PUSH1 0x20 DUP2 LT ISZERO PUSH2 0xF32 JUMPI PUSH1 0x40 MLOAD PUSH32 0xA4912D800000000000000000000000000000000000000000000000000000000 DUP2 MSTORE PUSH1 0x4 ADD PUSH1 0x40 MLOAD DUP1 SWAP2 SUB SWAP1 REVERT JUMPDEST PUSH2 0xF3B DUP4 PUSH2 0x10BE JUMP JUMPDEST PUSH0 PUSH0 PUSH0 PUSH0 PUSH1 0xC4 CALLDATALOAD PUSH1 0x4 ADD PUSH1 0x8 DUP7 DUP10 ADD ADD SWAP5 POP DUP1 CALLDATALOAD SWAP4 POP DUP4 DUP6 ADD SWAP2 POP PUSH1 0x20 PUSH1 0xA4 DUP4 SUB SUB SWAP3 POP DUP9 PUSH1 0x20 DUP12 ADD DUP14 CALLDATACOPY DUP6 PUSH1 0x20 DUP9 ADD DUP10 CALLDATACOPY DUP4 PUSH1 0x20 DUP3 ADD DUP7 CALLDATACOPY POP PUSH2 0xF7E DUP5 PUSH2 0x10C6 JUMP JUMPDEST PUSH2 0xFFFF DUP1 AND DUP4 GT ISZERO DUP4 SWAP1 PUSH2 0xFC8 JUMPI PUSH1 0x40 MLOAD PUSH32 0x805CFD4B00000000000000000000000000000000000000000000000000000000 DUP2 MSTORE PUSH1 0x4 ADD PUSH2 0xFBF SWAP2 SWAP1 PUSH2 0x1884 JUMP JUMPDEST PUSH1 0x40 MLOAD DUP1 SWAP2 SUB SWAP1 REVERT JUMPDEST POP PUSH2 0xFD2 DUP4 PUSH2 0x10CE JUMP JUMPDEST PUSH2 0xFDB DUP3 PUSH2 0x1036 JUMP JUMPDEST PUSH2 0xFE4 DUP2 PUSH2 0x103D JUMP JUMPDEST POP POP POP POP POP POP POP POP POP POP SWAP1 JUMP JUMPDEST PUSH1 0x14 PUSH1 0xC4 ADD MLOAD PUSH1 0xA0 SHR DUP2 PUSH1 0x60 SHL OR PUSH1 0xC4 MSTORE POP JUMP JUMPDEST DUP1 PUSH1 0xD8 MSTORE POP JUMP JUMPDEST PUSH0 PUSH2 0x1017 DUP4 DUP4 PUSH2 0x11FD JUMP JUMPDEST ISZERO SWAP1 POP SWAP3 SWAP2 POP POP JUMP JUMPDEST PUSH1 0x6 PUSH2 0x7F4 ADD MLOAD PUSH1 0x30 SHR DUP2 PUSH1 0xD0 SHL OR PUSH2 0x7F4 MSTORE POP JUMP JUMPDEST DUP1 PUSH1 0xA4 MSTORE POP JUMP JUMPDEST DUP1 PUSH1 0x40 MSTORE POP JUMP JUMPDEST PUSH0 DUP2 PUSH1 0xB4 SHR PUSH0 SIGNEXTEND PUSH1 0x1 PUSH1 0x3B SHL MUL SWAP1 POP SWAP2 SWAP1 POP JUMP JUMPDEST PUSH0 DUP2 DUP4 SUB SWAP1 POP SWAP3 SWAP2 POP POP JUMP JUMPDEST DUP1 PUSH2 0x128 MSTORE POP JUMP JUMPDEST PUSH0 DUP2 DUP4 SGT SWAP1 POP SWAP3 SWAP2 POP POP JUMP JUMPDEST PUSH0 DUP2 DUP4 SLT SWAP1 POP SWAP3 SWAP2 POP POP JUMP JUMPDEST PUSH1 0x8 PUSH1 0xF8 ADD MLOAD PUSH1 0x40 SHR DUP2 PUSH1 0xC0 SHL OR PUSH1 0xF8 MSTORE POP JUMP JUMPDEST DUP1 PUSH2 0x148 MSTORE POP JUMP JUMPDEST PUSH1 0x8 PUSH2 0x100 ADD MLOAD PUSH1 0x40 SHR DUP2 PUSH1 0xC0 SHL OR PUSH2 0x100 MSTORE POP JUMP JUMPDEST DUP1 PUSH2 0x108 MSTORE POP JUMP JUMPDEST DUP1 PUSH2 0x60F MSTORE POP JUMP JUMPDEST DUP1 PUSH2 0x62F MSTORE POP JUMP JUMPDEST PUSH1 0x2 PUSH2 0x653 ADD MLOAD PUSH1 0x10 SHR DUP2 PUSH1 0xF0 SHL OR PUSH2 0x653 MSTORE POP JUMP JUMPDEST DUP1 PUSH2 0x5EF MSTORE POP JUMP JUMPDEST DUP1 PUSH2 0x108 MSTORE POP JUMP JUMPDEST DUP1 PUSH2 0x128 MSTORE POP JUMP JUMPDEST PUSH1 0x10 PUSH1 0xF8 ADD MLOAD PUSH1 0x80 SHR DUP2 PUSH1 0x80 SHL OR PUSH1 0xF8 MSTORE POP JUMP JUMPDEST PUSH0 CALLER PUSH1 0x60 SHL PUSH0 MSTORE DUP2 PUSH1 0x14 MSTORE PUSH1 0x34 PUSH0 KECCAK256 PUSH1 0xBC SHL DUP3 ADD SWAP1 POP SWAP2 SWAP1 POP JUMP JUMPDEST PUSH0 PUSH16 0x6890D047AD8C870137858A70716B2C6B PUSH1 0x10 MSTORE DUP2 PUSH0 MSTORE PUSH1 0x30 PUSH0 KECCAK256 SWAP1 POP SWAP2 SWAP1 POP JUMP JUMPDEST PUSH0 DUP2 SLOAD SWAP1 POP SWAP2 SWAP1 POP JUMP JUMPDEST PUSH0 PUSH0 PUSH2 0x1175 PUSH2 0x1170 PUSH9 0x2D000000000000000 DUP6 PUSH2 0x1058 JUMP JUMPDEST PUSH2 0x1209 JUMP JUMPDEST SWAP1 POP PUSH32 0xCF8E41E6C4D4AA5E9CC597C10CD32EACD30C44F750A8FFDB1A8863DD8F72F0A5 PUSH32 0x872DB9E8FFA9E7D41F2AAF39897B91E4002E70FCEED391471FAD73D51503772D PUSH1 0x1 PUSH1 0xBF SHL DUP4 MULMOD PUSH1 0x1 PUSH1 0xBF SHL DUP4 MUL SUB MUL SWAP2 POP POP SWAP2 SWAP1 POP JUMP JUMPDEST DUP1 PUSH2 0x720 MSTORE POP JUMP JUMPDEST DUP1 PUSH2 0x740 MSTORE POP JUMP JUMPDEST DUP1 PUSH2 0x6E0 MSTORE POP JUMP JUMPDEST DUP1 PUSH2 0x700 MSTORE POP JUMP JUMPDEST PUSH0 DUP2 DUP4 GT SWAP1 POP SWAP3 SWAP2 POP POP JUMP JUMPDEST PUSH0 DUP2 DUP4 GT SWAP1 POP SWAP3 SWAP2 POP POP JUMP JUMPDEST PUSH0 PUSH0 DUP3 SWAP1 POP PUSH0 PUSH32 0x8000000000000000000000000000000000000000000000000000000000000000 PUSH1 0x3 PUSH1 0x25 DUP5 DUP6 MUL SWAP1 SHL DUP2 PUSH2 0x1247 JUMPI PUSH2 0x1246 PUSH2 0x1913 JUMP JUMPDEST JUMPDEST DIV ADD SWAP1 POP PUSH1 0x92 DUP3 SWAP1 SHL SWAP2 POP PUSH1 0x2 PUSH2 0x1283 DUP4 DUP4 SUB PUSH32 0x4000000000000000000000000000000000000000000000000000000000000000 DUP6 DUP6 ADD PUSH2 0x14A1 JUMP JUMPDEST SWAP1 SHL SWAP1 POP DUP1 DUP2 MUL PUSH0 NOT DUP3 DUP4 MULMOD SUB SWAP1 POP DUP1 DUP2 MUL PUSH0 NOT DUP3 DUP4 MULMOD SUB SWAP1 POP DUP1 DUP2 MUL PUSH0 NOT DUP3 DUP4 MULMOD SUB SWAP1 POP DUP1 DUP2 MUL PUSH0 NOT DUP3 DUP4 MULMOD SUB SWAP1 POP DUP1 DUP2 MUL PUSH0 NOT DUP3 DUP4 MULMOD SUB SWAP1 POP DUP1 DUP2 MUL PUSH0 NOT DUP3 DUP4 MULMOD SUB SWAP1 POP DUP1 DUP2 MUL PUSH0 NOT DUP3 DUP4 MULMOD SUB SWAP1 POP DUP1 DUP2 MUL PUSH0 NOT DUP3 DUP4 MULMOD SUB SWAP1 POP DUP1 DUP2 MUL PUSH0 NOT DUP3 DUP4 MULMOD SUB SWAP1 POP DUP1 DUP2 MUL PUSH0 NOT DUP3 DUP4 MULMOD SUB SWAP1 POP DUP1 DUP2 MUL PUSH0 NOT DUP3 DUP4 MULMOD SUB SWAP1 POP DUP1 DUP2 MUL PUSH0 NOT DUP3 DUP4 MULMOD SUB SWAP1 POP DUP1 DUP2 MUL PUSH0 NOT DUP3 DUP4 MULMOD SUB SWAP1 POP DUP1 DUP2 MUL PUSH0 NOT DUP3 DUP4 MULMOD SUB SWAP1 POP DUP1 DUP2 MUL PUSH0 NOT DUP3 DUP4 MULMOD SUB SWAP1 POP DUP1 DUP2 MUL PUSH0 NOT DUP3 DUP4 MULMOD SUB SWAP1 POP DUP1 DUP2 MUL PUSH0 NOT DUP3 DUP4 MULMOD SUB SWAP1 POP DUP1 DUP2 MUL PUSH0 NOT DUP3 DUP4 MULMOD SUB SWAP1 POP DUP1 DUP2 MUL PUSH0 NOT DUP3 DUP4 MULMOD SUB SWAP1 POP DUP1 DUP2 MUL PUSH0 NOT DUP3 DUP4 MULMOD SUB SWAP1 POP DUP1 DUP2 MUL PUSH0 NOT DUP3 DUP4 MULMOD SUB SWAP1 POP DUP1 DUP2 MUL PUSH0 NOT DUP3 DUP4 MULMOD SUB SWAP1 POP DUP1 DUP2 MUL PUSH0 NOT DUP3 DUP4 MULMOD SUB SWAP1 POP DUP1 DUP2 MUL PUSH0 NOT DUP3 DUP4 MULMOD SUB SWAP1 POP DUP1 DUP2 MUL PUSH0 NOT DUP3 DUP4 MULMOD SUB SWAP1 POP DUP1 DUP2 MUL PUSH0 NOT DUP3 DUP4 MULMOD SUB SWAP1 POP DUP1 DUP2 MUL PUSH0 NOT DUP3 DUP4 MULMOD SUB SWAP1 POP DUP1 DUP2 MUL PUSH0 NOT DUP3 DUP4 MULMOD SUB SWAP1 POP DUP1 DUP2 MUL PUSH0 NOT DUP3 DUP4 MULMOD SUB SWAP1 POP DUP1 DUP2 MUL PUSH0 NOT DUP3 DUP4 MULMOD SUB SWAP1 POP DUP1 DUP2 MUL PUSH0 NOT DUP3 DUP4 MULMOD SUB SWAP1 POP DUP1 DUP2 MUL PUSH0 NOT DUP3 DUP4 MULMOD SUB SWAP1 POP DUP1 DUP2 MUL PUSH0 NOT DUP3 DUP4 MULMOD SUB SWAP1 POP DUP1 DUP2 MUL PUSH0 NOT DUP3 DUP4 MULMOD SUB SWAP1 POP DUP1 DUP2 MUL PUSH0 NOT DUP3 DUP4 MULMOD SUB SWAP1 POP DUP1 DUP2 MUL PUSH0 NOT DUP3 DUP4 MULMOD SUB SWAP1 POP DUP1 DUP2 MUL PUSH0 NOT DUP3 DUP4 MULMOD SUB SWAP1 POP DUP1 DUP2 MUL PUSH0 NOT DUP3 DUP4 MULMOD SUB SWAP1 POP DUP1 DUP2 MUL PUSH0 NOT DUP3 DUP4 MULMOD SUB SWAP1 POP DUP1 DUP2 MUL PUSH0 NOT DUP3 DUP4 MULMOD SUB SWAP1 POP DUP1 DUP2 MUL PUSH0 NOT DUP3 DUP4 MULMOD SUB SWAP1 POP DUP1 DUP2 MUL PUSH0 NOT DUP3 DUP4 MULMOD SUB SWAP1 POP DUP1 DUP2 MUL PUSH0 NOT DUP3 DUP4 MULMOD SUB SWAP1 POP DUP1 DUP2 MUL PUSH0 NOT DUP3 DUP4 MULMOD SUB SWAP1 POP DUP1 DUP2 MUL PUSH0 NOT DUP3 DUP4 MULMOD SUB SWAP1 POP DUP1 DUP2 MUL PUSH0 NOT DUP3 DUP4 MULMOD SUB SWAP1 POP DUP1 DUP2 MUL PUSH0 NOT DUP3 DUP4 MULMOD SUB SWAP1 POP DUP1 DUP2 MUL PUSH0 NOT DUP3 DUP4 MULMOD SUB SWAP1 POP DUP1 SWAP3 POP POP POP SWAP2 SWAP1 POP JUMP JUMPDEST PUSH0 PUSH1 0x1 DUP3 SUB SWAP1 POP DUP1 DUP3 DUP5 DUP7 MULMOD DUP3 SUB DUP3 DUP6 DUP8 MULMOD ADDMOD SWAP1 POP SWAP4 SWAP3 POP POP POP JUMP JUMPDEST PUSH1 0x40 MLOAD DUP1 PUSH2 0x120 ADD PUSH1 0x40 MSTORE DUP1 PUSH0 DUP2 MSTORE PUSH1 0x20 ADD PUSH0 DUP2 MSTORE PUSH1 0x20 ADD PUSH0 DUP2 MSTORE PUSH1 0x20 ADD PUSH0 DUP2 MSTORE PUSH1 0x20 ADD PUSH0 PUSH2 0xFFFF AND DUP2 MSTORE PUSH1 0x20 ADD PUSH0 DUP2 MSTORE PUSH1 0x20 ADD PUSH0 DUP2 MSTORE PUSH1 0x20 ADD PUSH0 DUP2 MSTORE PUSH1 0x20 ADD PUSH0 DUP2 MSTORE POP SWAP1 JUMP JUMPDEST PUSH1 0x40 MLOAD DUP1 PUSH1 0xA0 ADD PUSH1 0x40 MSTORE DUP1 PUSH0 DUP2 MSTORE PUSH1 0x20 ADD PUSH0 DUP2 MSTORE PUSH1 0x20 ADD PUSH0 DUP2 MSTORE PUSH1 0x20 ADD PUSH0 DUP2 MSTORE PUSH1 0x20 ADD PUSH0 PUSH2 0xFFFF AND DUP2 MSTORE POP SWAP1 JUMP JUMPDEST PUSH0 DUP2 SWAP1 POP SWAP2 SWAP1 POP JUMP JUMPDEST PUSH2 0x1544 DUP2 PUSH2 0x1532 JUMP JUMPDEST DUP3 MSTORE POP POP JUMP JUMPDEST PUSH0 DUP2 SWAP1 POP SWAP2 SWAP1 POP JUMP JUMPDEST PUSH0 DUP2 SWAP1 POP SWAP2 SWAP1 POP JUMP JUMPDEST PUSH0 PUSH2 0x1576 PUSH2 0x1571 PUSH2 0x156C DUP5 PUSH2 0x154A JUMP JUMPDEST PUSH2 0x1553 JUMP JUMPDEST PUSH2 0x154A JUMP JUMPDEST SWAP1 POP SWAP2 SWAP1 POP JUMP JUMPDEST PUSH2 0x1586 DUP2 PUSH2 0x155C JUMP JUMPDEST DUP3 MSTORE POP POP JUMP JUMPDEST PUSH2 0x1595 DUP2 PUSH2 0x154A JUMP JUMPDEST DUP3 MSTORE POP POP JUMP JUMPDEST PUSH0 PUSH2 0xFFFF DUP3 AND SWAP1 POP SWAP2 SWAP1 POP JUMP JUMPDEST PUSH2 0x15B1 DUP2 PUSH2 0x159B JUMP JUMPDEST DUP3 MSTORE POP POP JUMP JUMPDEST PUSH0 PUSH2 0x15D1 PUSH2 0x15CC PUSH2 0x15C7 DUP5 PUSH2 0x1532 JUMP JUMPDEST PUSH2 0x1553 JUMP JUMPDEST PUSH2 0x1532 JUMP JUMPDEST SWAP1 POP SWAP2 SWAP1 POP JUMP JUMPDEST PUSH2 0x15E1 DUP2 PUSH2 0x15B7 JUMP JUMPDEST DUP3 MSTORE POP POP JUMP JUMPDEST PUSH2 0x120 DUP3 ADD PUSH0 DUP3 ADD MLOAD PUSH2 0x15FC PUSH0 DUP6 ADD DUP3 PUSH2 0x153B JUMP JUMPDEST POP PUSH1 0x20 DUP3 ADD MLOAD PUSH2 0x160F PUSH1 0x20 DUP6 ADD DUP3 PUSH2 0x157D JUMP JUMPDEST POP PUSH1 0x40 DUP3 ADD MLOAD PUSH2 0x1622 PUSH1 0x40 DUP6 ADD DUP3 PUSH2 0x157D JUMP JUMPDEST POP PUSH1 0x60 DUP3 ADD MLOAD PUSH2 0x1635 PUSH1 0x60 DUP6 ADD DUP3 PUSH2 0x158C JUMP JUMPDEST POP PUSH1 0x80 DUP3 ADD MLOAD PUSH2 0x1648 PUSH1 0x80 DUP6 ADD DUP3 PUSH2 0x15A8 JUMP JUMPDEST POP PUSH1 0xA0 DUP3 ADD MLOAD PUSH2 0x165B PUSH1 0xA0 DUP6 ADD DUP3 PUSH2 0x15D8 JUMP JUMPDEST POP PUSH1 0xC0 DUP3 ADD MLOAD PUSH2 0x166E PUSH1 0xC0 DUP6 ADD DUP3 PUSH2 0x153B JUMP JUMPDEST POP PUSH1 0xE0 DUP3 ADD MLOAD PUSH2 0x1681 PUSH1 0xE0 DUP6 ADD DUP3 PUSH2 0x153B JUMP JUMPDEST POP PUSH2 0x100 DUP3 ADD MLOAD PUSH2 0x1696 PUSH2 0x100 DUP6 ADD DUP3 PUSH2 0x153B JUMP JUMPDEST POP POP POP POP JUMP JUMPDEST PUSH0 PUSH2 0x120 DUP3 ADD SWAP1 POP PUSH2 0x16B0 PUSH0 DUP4 ADD DUP5 PUSH2 0x15E7 JUMP JUMPDEST SWAP3 SWAP2 POP POP JUMP JUMPDEST PUSH1 0xA0 DUP3 ADD PUSH0 DUP3 ADD MLOAD PUSH2 0x16CA PUSH0 DUP6 ADD DUP3 PUSH2 0x153B JUMP JUMPDEST POP PUSH1 0x20 DUP3 ADD MLOAD PUSH2 0x16DD PUSH1 0x20 DUP6 ADD DUP3 PUSH2 0x157D JUMP JUMPDEST POP PUSH1 0x40 DUP3 ADD MLOAD PUSH2 0x16F0 PUSH1 0x40 DUP6 ADD DUP3 PUSH2 0x157D JUMP JUMPDEST POP PUSH1 0x60 DUP3 ADD MLOAD PUSH2 0x1703 PUSH1 0x60 DUP6 ADD DUP3 PUSH2 0x158C JUMP JUMPDEST POP PUSH1 0x80 DUP3 ADD MLOAD PUSH2 0x1716 PUSH1 0x80 DUP6 ADD DUP3 PUSH2 0x15A8 JUMP JUMPDEST POP POP POP POP JUMP JUMPDEST PUSH0 PUSH1 0xA0 DUP3 ADD SWAP1 POP PUSH2 0x172F PUSH0 DUP4 ADD DUP5 PUSH2 0x16B6 JUMP JUMPDEST SWAP3 SWAP2 POP POP JUMP JUMPDEST PUSH2 0x173E DUP2 PUSH2 0x15B7 JUMP JUMPDEST DUP3 MSTORE POP POP JUMP JUMPDEST PUSH0 PUSH1 0x20 DUP3 ADD SWAP1 POP PUSH2 0x1757 PUSH0 DUP4 ADD DUP5 PUSH2 0x1735 JUMP JUMPDEST SWAP3 SWAP2 POP POP JUMP JUMPDEST PUSH2 0x1766 DUP2 PUSH2 0x15B7 JUMP JUMPDEST DUP3 MSTORE POP POP JUMP JUMPDEST PUSH0 PUSH1 0x20 DUP3 ADD SWAP1 POP PUSH2 0x177F PUSH0 DUP4 ADD DUP5 PUSH2 0x175D JUMP JUMPDEST SWAP3 SWAP2 POP POP JUMP JUMPDEST PUSH2 0x178E DUP2 PUSH2 0x155C JUMP JUMPDEST DUP3 MSTORE POP POP JUMP JUMPDEST PUSH0 PUSH1 0x20 DUP3 ADD SWAP1 POP PUSH2 0x17A7 PUSH0 DUP4 ADD DUP5 PUSH2 0x1785 JUMP JUMPDEST SWAP3 SWAP2 POP POP JUMP JUMPDEST PUSH2 0x17B6 DUP2 PUSH2 0x154A JUMP JUMPDEST DUP3 MSTORE POP POP JUMP JUMPDEST PUSH0 PUSH1 0x20 DUP3 ADD SWAP1 POP PUSH2 0x17CF PUSH0 DUP4 ADD DUP5 PUSH2 0x17AD JUMP JUMPDEST SWAP3 SWAP2 POP POP JUMP JUMPDEST PUSH0 DUP2 PUSH1 0xF SIGNEXTEND SWAP1 POP SWAP2 SWAP1 POP JUMP JUMPDEST PUSH32 0x4E487B7100000000000000000000000000000000000000000000000000000000 PUSH0 MSTORE PUSH1 0x11 PUSH1 0x4 MSTORE PUSH1 0x24 PUSH0 REVERT JUMPDEST PUSH0 PUSH2 0x1818 DUP3 PUSH2 0x17D5 JUMP JUMPDEST SWAP2 POP PUSH2 0x1823 DUP4 PUSH2 0x17D5 JUMP JUMPDEST SWAP3 POP DUP3 DUP3 SUB SWAP1 POP PUSH16 0x7FFFFFFFFFFFFFFFFFFFFFFFFFFFFFFF DUP2 SGT PUSH32 0xFFFFFFFFFFFFFFFFFFFFFFFFFFFFFFFF80000000000000000000000000000000 DUP3 SLT OR ISZERO PUSH2 0x186F JUMPI PUSH2 0x186E PUSH2 0x17E1 JUMP JUMPDEST JUMPDEST SWAP3 SWAP2 POP POP JUMP JUMPDEST PUSH2 0x187E DUP2 PUSH2 0x1532 JUMP JUMPDEST DUP3 MSTORE POP POP JUMP JUMPDEST PUSH0 PUSH1 0x20 DUP3 ADD SWAP1 POP PUSH2 0x1897 PUSH0 DUP4 ADD DUP5 PUSH2 0x1875 JUMP JUMPDEST SWAP3 SWAP2 POP POP JUMP JUMPDEST PUSH0 PUSH2 0x18A7 DUP3 PUSH2 0x154A JUMP JUMPDEST SWAP2 POP PUSH2 0x18B2 DUP4 PUSH2 0x154A JUMP JUMPDEST SWAP3 POP DUP3 DUP3 SUB SWAP1 POP DUP2 DUP2 SLT PUSH0 DUP5 SLT AND DUP3 DUP3 SGT PUSH0 DUP6 SLT ISZERO AND OR ISZERO PUSH2 0x18D7 JUMPI PUSH2 0x18D6 PUSH2 0x17E1 JUMP JUMPDEST JUMPDEST SWAP3 SWAP2 POP POP JUMP JUMPDEST PUSH2 0x18E6 DUP2 PUSH2 0x15B7 JUMP JUMPDEST DUP3 MSTORE POP POP JUMP JUMPDEST PUSH0 PUSH1 0x40 DUP3 ADD SWAP1 POP PUSH2 0x18FF PUSH0 DUP4 ADD DUP6 PUSH2 0x18DD JUMP JUMPDEST PUSH2 0x190C PUSH1 0x20 DUP4 ADD DUP5 PUSH2 0x18DD JUMP JUMPDEST SWAP4 SWAP3 POP POP POP JUMP JUMPDEST PUSH32 0x4E487B7100000000000000000000000000000000000000000000000000000000 PUSH0 MSTORE PUSH1 0x12 PUSH1 0x4 MSTORE PUSH1 0x24 PUSH0 REVERT INVALID LOG2 PUSH5 0x6970667358 0x22 SLT KECCAK256 GASLIMIT XOR RETURN 0xE ADD 0xFC SWAP9 SWAP11 LOG4 0xAA CALLCODE 0x29 TSTORE PUSH18 0xADFD59F3EB6BE64062BB5B0C120E891DCB6F PUSH5 0x736F6C6343 STOP ADDMOD SHR STOP CALLER "
		},
		"gasEstimates": {
			"creation": {
				"codeDepositCost": "688000",
				"executionCost": "infinite",
				"totalCost": "infinite"
			},
			"external": {
				"calldataWrapper()": "infinite",
				"readModifyPositionInput_test(uint64,uint64,uint16,int128)": "infinite",
				"wrapper()": "infinite"
			},
			"internal": {
				"getShift(uint256)": "infinite"
			}
		},
		"methodIdentifiers": {
			"calldataWrapper()": "77b43e27",
			"readModifyPositionInput_test(uint64,uint64,uint16,int128)": "7c321217",
			"wrapper()": "ac210cc7"
		}
	},
	"abi": [
		{
			"inputs": [],
			"stateMutability": "nonpayable",
			"type": "constructor"
		},
		{
			"inputs": [],
			"name": "calldataWrapper",
			"outputs": [
				{
					"internalType": "contract CalldataWrapper",
					"name": "",
					"type": "address"
				}
			],
			"stateMutability": "view",
			"type": "function"
		},
		{
			"inputs": [
				{
					"internalType": "uint64",
					"name": "qMinFuzz",
					"type": "uint64"
				},
				{
					"internalType": "uint64",
					"name": "qMaxFuzz",
					"type": "uint64"
				},
				{
					"internalType": "uint16",
					"name": "_fuzz",
					"type": "uint16"
				},
				{
					"internalType": "int128",
					"name": "shares",
					"type": "int128"
				}
			],
			"name": "readModifyPositionInput_test",
			"outputs": [],
			"stateMutability": "nonpayable",
			"type": "function"
		},
		{
			"inputs": [],
			"name": "wrapper",
			"outputs": [
				{
					"internalType": "contract CallWrapperExtended",
					"name": "",
					"type": "address"
				}
			],
			"stateMutability": "view",
			"type": "function"
		}
	]
}