{
	"data": {
		"bytecode": {
			"linkReferences": {},
			"object": "6080604052348015600e575f5ffd5b506104218061001c5f395ff3fe608060405234801561000f575f5ffd5b5060043610610029575f3560e01c8063d1f67ef01461002d575b5f5ffd5b61004760048036038101906100429190610226565b610062565b604051610059969594939291906102c7565b60405180910390f35b5f5f5f5f5f5f5f6040519050604081016040525f61007f8b6100f6565b90505f61008b8b610128565b90505f6100978b610128565b90506100b08383838761014e909392919063ffffffff16565b6100b984610171565b96506100ce5f8561017e90919063ffffffff16565b95506100e460018561017e90919063ffffffff16565b94505050505093975093979195509350565b5f67ffffffffffffffff8261010b9190610353565b600161011791906103b0565b67ffffffffffffffff169050919050565b5f817affffffffffffffffffffffffffffffffffffffffffffffffffffff169050919050565b60208403805182601e870152836003870152846018870352808252505050505050565b5f815160c01c9050919050565b5f828215601b02602303015160281c905092915050565b5f5ffd5b5f67ffffffffffffffff82169050919050565b6101b581610199565b81146101bf575f5ffd5b50565b5f813590506101d0816101ac565b92915050565b5f7affffffffffffffffffffffffffffffffffffffffffffffffffffff82169050919050565b610205816101d6565b811461020f575f5ffd5b50565b5f81359050610220816101fc565b92915050565b5f5f5f6060848603121561023d5761023c610195565b5b5f61024a868287016101c2565b935050602061025b86828701610212565b925050604061026c86828701610212565b9150509250925092565b5f819050919050565b5f819050919050565b5f6102a261029d61029884610276565b61027f565b610276565b9050919050565b6102b281610288565b82525050565b6102c181610288565b82525050565b5f60c0820190506102da5f8301896102a9565b6102e760208301886102b8565b6102f460408301876102b8565b61030160608301866102a9565b61030e60808301856102b8565b61031b60a08301846102b8565b979650505050505050565b7f4e487b71000000000000000000000000000000000000000000000000000000005f52601260045260245ffd5b5f61035d82610199565b915061036883610199565b92508261037857610377610326565b5b828206905092915050565b7f4e487b71000000000000000000000000000000000000000000000000000000005f52601160045260245ffd5b5f6103ba82610199565b91506103c583610199565b9250828201905067ffffffffffffffff8111156103e5576103e4610383565b5b9291505056fea2646970667358221220918f6fa1ec841860e17e1f8280ccfb9ae4f7a4d90010d5f822ba735c1830d73b64736f6c634300081c0033",
			"opcodes": "PUSH1 0x80 PUSH1 0x40 MSTORE CALLVALUE DUP1 ISZERO PUSH1 0xE JUMPI PUSH0 PUSH0 REVERT JUMPDEST POP PUSH2 0x421 DUP1 PUSH2 0x1C PUSH0 CODECOPY PUSH0 RETURN INVALID PUSH1 0x80 PUSH1 0x40 MSTORE CALLVALUE DUP1 ISZERO PUSH2 0xF JUMPI PUSH0 PUSH0 REVERT JUMPDEST POP PUSH1 0x4 CALLDATASIZE LT PUSH2 0x29 JUMPI PUSH0 CALLDATALOAD PUSH1 0xE0 SHR DUP1 PUSH4 0xD1F67EF0 EQ PUSH2 0x2D JUMPI JUMPDEST PUSH0 PUSH0 REVERT JUMPDEST PUSH2 0x47 PUSH1 0x4 DUP1 CALLDATASIZE SUB DUP2 ADD SWAP1 PUSH2 0x42 SWAP2 SWAP1 PUSH2 0x226 JUMP JUMPDEST PUSH2 0x62 JUMP JUMPDEST PUSH1 0x40 MLOAD PUSH2 0x59 SWAP7 SWAP6 SWAP5 SWAP4 SWAP3 SWAP2 SWAP1 PUSH2 0x2C7 JUMP JUMPDEST PUSH1 0x40 MLOAD DUP1 SWAP2 SUB SWAP1 RETURN JUMPDEST PUSH0 PUSH0 PUSH0 PUSH0 PUSH0 PUSH0 PUSH0 PUSH1 0x40 MLOAD SWAP1 POP PUSH1 0x40 DUP2 ADD PUSH1 0x40 MSTORE PUSH0 PUSH2 0x7F DUP12 PUSH2 0xF6 JUMP JUMPDEST SWAP1 POP PUSH0 PUSH2 0x8B DUP12 PUSH2 0x128 JUMP JUMPDEST SWAP1 POP PUSH0 PUSH2 0x97 DUP12 PUSH2 0x128 JUMP JUMPDEST SWAP1 POP PUSH2 0xB0 DUP4 DUP4 DUP4 DUP8 PUSH2 0x14E SWAP1 SWAP4 SWAP3 SWAP2 SWAP1 PUSH4 0xFFFFFFFF AND JUMP JUMPDEST PUSH2 0xB9 DUP5 PUSH2 0x171 JUMP JUMPDEST SWAP7 POP PUSH2 0xCE PUSH0 DUP6 PUSH2 0x17E SWAP1 SWAP2 SWAP1 PUSH4 0xFFFFFFFF AND JUMP JUMPDEST SWAP6 POP PUSH2 0xE4 PUSH1 0x1 DUP6 PUSH2 0x17E SWAP1 SWAP2 SWAP1 PUSH4 0xFFFFFFFF AND JUMP JUMPDEST SWAP5 POP POP POP POP POP SWAP4 SWAP8 POP SWAP4 SWAP8 SWAP2 SWAP6 POP SWAP4 POP JUMP JUMPDEST PUSH0 PUSH8 0xFFFFFFFFFFFFFFFF DUP3 PUSH2 0x10B SWAP2 SWAP1 PUSH2 0x353 JUMP JUMPDEST PUSH1 0x1 PUSH2 0x117 SWAP2 SWAP1 PUSH2 0x3B0 JUMP JUMPDEST PUSH8 0xFFFFFFFFFFFFFFFF AND SWAP1 POP SWAP2 SWAP1 POP JUMP JUMPDEST PUSH0 DUP2 PUSH27 0xFFFFFFFFFFFFFFFFFFFFFFFFFFFFFFFFFFFFFFFFFFFFFFFFFFFFFF AND SWAP1 POP SWAP2 SWAP1 POP JUMP JUMPDEST PUSH1 0x20 DUP5 SUB DUP1 MLOAD DUP3 PUSH1 0x1E DUP8 ADD MSTORE DUP4 PUSH1 0x3 DUP8 ADD MSTORE DUP5 PUSH1 0x18 DUP8 SUB MSTORE DUP1 DUP3 MSTORE POP POP POP POP POP POP JUMP JUMPDEST PUSH0 DUP2 MLOAD PUSH1 0xC0 SHR SWAP1 POP SWAP2 SWAP1 POP JUMP JUMPDEST PUSH0 DUP3 DUP3 ISZERO PUSH1 0x1B MUL PUSH1 0x23 SUB ADD MLOAD PUSH1 0x28 SHR SWAP1 POP SWAP3 SWAP2 POP POP JUMP JUMPDEST PUSH0 PUSH0 REVERT JUMPDEST PUSH0 PUSH8 0xFFFFFFFFFFFFFFFF DUP3 AND SWAP1 POP SWAP2 SWAP1 POP JUMP JUMPDEST PUSH2 0x1B5 DUP2 PUSH2 0x199 JUMP JUMPDEST DUP2 EQ PUSH2 0x1BF JUMPI PUSH0 PUSH0 REVERT JUMPDEST POP JUMP JUMPDEST PUSH0 DUP2 CALLDATALOAD SWAP1 POP PUSH2 0x1D0 DUP2 PUSH2 0x1AC JUMP JUMPDEST SWAP3 SWAP2 POP POP JUMP JUMPDEST PUSH0 PUSH27 0xFFFFFFFFFFFFFFFFFFFFFFFFFFFFFFFFFFFFFFFFFFFFFFFFFFFFFF DUP3 AND SWAP1 POP SWAP2 SWAP1 POP JUMP JUMPDEST PUSH2 0x205 DUP2 PUSH2 0x1D6 JUMP JUMPDEST DUP2 EQ PUSH2 0x20F JUMPI PUSH0 PUSH0 REVERT JUMPDEST POP JUMP JUMPDEST PUSH0 DUP2 CALLDATALOAD SWAP1 POP PUSH2 0x220 DUP2 PUSH2 0x1FC JUMP JUMPDEST SWAP3 SWAP2 POP POP JUMP JUMPDEST PUSH0 PUSH0 PUSH0 PUSH1 0x60 DUP5 DUP7 SUB SLT ISZERO PUSH2 0x23D JUMPI PUSH2 0x23C PUSH2 0x195 JUMP JUMPDEST JUMPDEST PUSH0 PUSH2 0x24A DUP7 DUP3 DUP8 ADD PUSH2 0x1C2 JUMP JUMPDEST SWAP4 POP POP PUSH1 0x20 PUSH2 0x25B DUP7 DUP3 DUP8 ADD PUSH2 0x212 JUMP JUMPDEST SWAP3 POP POP PUSH1 0x40 PUSH2 0x26C DUP7 DUP3 DUP8 ADD PUSH2 0x212 JUMP JUMPDEST SWAP2 POP POP SWAP3 POP SWAP3 POP SWAP3 JUMP JUMPDEST PUSH0 DUP2 SWAP1 POP SWAP2 SWAP1 POP JUMP JUMPDEST PUSH0 DUP2 SWAP1 POP SWAP2 SWAP1 POP JUMP JUMPDEST PUSH0 PUSH2 0x2A2 PUSH2 0x29D PUSH2 0x298 DUP5 PUSH2 0x276 JUMP JUMPDEST PUSH2 0x27F JUMP JUMPDEST PUSH2 0x276 JUMP JUMPDEST SWAP1 POP SWAP2 SWAP1 POP JUMP JUMPDEST PUSH2 0x2B2 DUP2 PUSH2 0x288 JUMP JUMPDEST DUP3 MSTORE POP POP JUMP JUMPDEST PUSH2 0x2C1 DUP2 PUSH2 0x288 JUMP JUMPDEST DUP3 MSTORE POP POP JUMP JUMPDEST PUSH0 PUSH1 0xC0 DUP3 ADD SWAP1 POP PUSH2 0x2DA PUSH0 DUP4 ADD DUP10 PUSH2 0x2A9 JUMP JUMPDEST PUSH2 0x2E7 PUSH1 0x20 DUP4 ADD DUP9 PUSH2 0x2B8 JUMP JUMPDEST PUSH2 0x2F4 PUSH1 0x40 DUP4 ADD DUP8 PUSH2 0x2B8 JUMP JUMPDEST PUSH2 0x301 PUSH1 0x60 DUP4 ADD DUP7 PUSH2 0x2A9 JUMP JUMPDEST PUSH2 0x30E PUSH1 0x80 DUP4 ADD DUP6 PUSH2 0x2B8 JUMP JUMPDEST PUSH2 0x31B PUSH1 0xA0 DUP4 ADD DUP5 PUSH2 0x2B8 JUMP JUMPDEST SWAP8 SWAP7 POP POP POP POP POP POP POP JUMP JUMPDEST PUSH32 0x4E487B7100000000000000000000000000000000000000000000000000000000 PUSH0 MSTORE PUSH1 0x12 PUSH1 0x4 MSTORE PUSH1 0x24 PUSH0 REVERT JUMPDEST PUSH0 PUSH2 0x35D DUP3 PUSH2 0x199 JUMP JUMPDEST SWAP2 POP PUSH2 0x368 DUP4 PUSH2 0x199 JUMP JUMPDEST SWAP3 POP DUP3 PUSH2 0x378 JUMPI PUSH2 0x377 PUSH2 0x326 JUMP JUMPDEST JUMPDEST DUP3 DUP3 MOD SWAP1 POP SWAP3 SWAP2 POP POP JUMP JUMPDEST PUSH32 0x4E487B7100000000000000000000000000000000000000000000000000000000 PUSH0 MSTORE PUSH1 0x11 PUSH1 0x4 MSTORE PUSH1 0x24 PUSH0 REVERT JUMPDEST PUSH0 PUSH2 0x3BA DUP3 PUSH2 0x199 JUMP JUMPDEST SWAP2 POP PUSH2 0x3C5 DUP4 PUSH2 0x199 JUMP JUMPDEST SWAP3 POP DUP3 DUP3 ADD SWAP1 POP PUSH8 0xFFFFFFFFFFFFFFFF DUP2 GT ISZERO PUSH2 0x3E5 JUMPI PUSH2 0x3E4 PUSH2 0x383 JUMP JUMPDEST JUMPDEST SWAP3 SWAP2 POP POP JUMP INVALID LOG2 PUSH5 0x6970667358 0x22 SLT KECCAK256 SWAP2 DUP16 PUSH16 0xA1EC841860E17E1F8280CCFB9AE4F7A4 0xD9 STOP LT 0xD5 0xF8 0x22 0xBA PUSH20 0x5C1830D73B64736F6C634300081C003300000000 "
		},
		"gasEstimates": {
			"creation": {
				"codeDepositCost": "211400",
				"executionCost": "255",
				"totalCost": "211655"
			},
			"external": {
				"storePriceWrap(uint64,uint216,uint216)": "infinite"
			}
		},
		"methodIdentifiers": {
			"storePriceWrap(uint64,uint216,uint216)": "d1f67ef0"
		}
	},
	"abi": [
		{
			"inputs": [
				{
					"internalType": "uint64",
					"name": "logPrice",
					"type": "uint64"
				},
				{
					"internalType": "uint216",
					"name": "sqrtPrice",
					"type": "uint216"
				},
				{
					"internalType": "uint216",
					"name": "sqrtInversePrice",
					"type": "uint216"
				}
			],
			"name": "storePriceWrap",
			"outputs": [
				{
					"internalType": "X59",
					"name": "logResultConverted",
					"type": "int256"
				},
				{
					"internalType": "X216",
					"name": "sqrtResultConverted",
					"type": "int256"
				},
				{
					"internalType": "X216",
					"name": "sqrtInverseResultConverted",
					"type": "int256"
				},
				{
					"internalType": "X59",
					"name": "logResult",
					"type": "int256"
				},
				{
					"internalType": "X216",
					"name": "sqrtResult",
					"type": "int256"
				},
				{
					"internalType": "X216",
					"name": "sqrtInverseResult",
					"type": "int256"
				}
			],
			"stateMutability": "nonpayable",
			"type": "function"
		}
	]
}