{
	"data": {
		"bytecode": {
			"linkReferences": {},
			"object": "6080604052348015600e575f5ffd5b506104288061001c5f395ff3fe608060405234801561000f575f5ffd5b5060043610610029575f3560e01c806351daa0701461002d575b5f5ffd5b610047600480360381019061004291906102b0565b610049565b005b5f5f5f5f5f5f61005a8989896100d4565b955095509550955095509550600161007557610074610300565b5b61007f8387610168565b61008c5761008b610300565b5b600161009b5761009a610300565b5b6100a58286610174565b6100b2576100b1610300565b5b6100bc8185610174565b6100c9576100c8610300565b5b505050505050505050565b5f5f5f5f5f5f5f6040519050604081016040525f6100f18b610180565b90505f6100fd8b6101b2565b90505f6101098b6101b2565b9050610122838383876101d8909392919063ffffffff16565b61012b846101fb565b96506101405f8561020890919063ffffffff16565b955061015660018561020890919063ffffffff16565b94505050505093975093979195509350565b5f818314905092915050565b5f818314905092915050565b5f67ffffffffffffffff82610195919061035a565b60016101a191906103b7565b67ffffffffffffffff169050919050565b5f817affffffffffffffffffffffffffffffffffffffffffffffffffffff169050919050565b60208403805182601e870152836003870152846018870352808252505050505050565b5f815160c01c9050919050565b5f828215601b02602303015160281c905092915050565b5f5ffd5b5f67ffffffffffffffff82169050919050565b61023f81610223565b8114610249575f5ffd5b50565b5f8135905061025a81610236565b92915050565b5f7affffffffffffffffffffffffffffffffffffffffffffffffffffff82169050919050565b61028f81610260565b8114610299575f5ffd5b50565b5f813590506102aa81610286565b92915050565b5f5f5f606084860312156102c7576102c661021f565b5b5f6102d48682870161024c565b93505060206102e58682870161029c565b92505060406102f68682870161029c565b9150509250925092565b7f4e487b71000000000000000000000000000000000000000000000000000000005f52600160045260245ffd5b7f4e487b71000000000000000000000000000000000000000000000000000000005f52601260045260245ffd5b5f61036482610223565b915061036f83610223565b92508261037f5761037e61032d565b5b828206905092915050565b7f4e487b71000000000000000000000000000000000000000000000000000000005f52601160045260245ffd5b5f6103c182610223565b91506103cc83610223565b9250828201905067ffffffffffffffff8111156103ec576103eb61038a565b5b9291505056fea26469706673582212201d26bbcb313145addf97581e5897f909475fb8a59f2c8c170d116f407cb14aca64736f6c634300081c0033",
			"opcodes": "PUSH1 0x80 PUSH1 0x40 MSTORE CALLVALUE DUP1 ISZERO PUSH1 0xE JUMPI PUSH0 PUSH0 REVERT JUMPDEST POP PUSH2 0x428 DUP1 PUSH2 0x1C PUSH0 CODECOPY PUSH0 RETURN INVALID PUSH1 0x80 PUSH1 0x40 MSTORE CALLVALUE DUP1 ISZERO PUSH2 0xF JUMPI PUSH0 PUSH0 REVERT JUMPDEST POP PUSH1 0x4 CALLDATASIZE LT PUSH2 0x29 JUMPI PUSH0 CALLDATALOAD PUSH1 0xE0 SHR DUP1 PUSH4 0x51DAA070 EQ PUSH2 0x2D JUMPI JUMPDEST PUSH0 PUSH0 REVERT JUMPDEST PUSH2 0x47 PUSH1 0x4 DUP1 CALLDATASIZE SUB DUP2 ADD SWAP1 PUSH2 0x42 SWAP2 SWAP1 PUSH2 0x2B0 JUMP JUMPDEST PUSH2 0x49 JUMP JUMPDEST STOP JUMPDEST PUSH0 PUSH0 PUSH0 PUSH0 PUSH0 PUSH0 PUSH2 0x5A DUP10 DUP10 DUP10 PUSH2 0xD4 JUMP JUMPDEST SWAP6 POP SWAP6 POP SWAP6 POP SWAP6 POP SWAP6 POP SWAP6 POP PUSH1 0x1 PUSH2 0x75 JUMPI PUSH2 0x74 PUSH2 0x300 JUMP JUMPDEST JUMPDEST PUSH2 0x7F DUP4 DUP8 PUSH2 0x168 JUMP JUMPDEST PUSH2 0x8C JUMPI PUSH2 0x8B PUSH2 0x300 JUMP JUMPDEST JUMPDEST PUSH1 0x1 PUSH2 0x9B JUMPI PUSH2 0x9A PUSH2 0x300 JUMP JUMPDEST JUMPDEST PUSH2 0xA5 DUP3 DUP7 PUSH2 0x174 JUMP JUMPDEST PUSH2 0xB2 JUMPI PUSH2 0xB1 PUSH2 0x300 JUMP JUMPDEST JUMPDEST PUSH2 0xBC DUP2 DUP6 PUSH2 0x174 JUMP JUMPDEST PUSH2 0xC9 JUMPI PUSH2 0xC8 PUSH2 0x300 JUMP JUMPDEST JUMPDEST POP POP POP POP POP POP POP POP POP JUMP JUMPDEST PUSH0 PUSH0 PUSH0 PUSH0 PUSH0 PUSH0 PUSH0 PUSH1 0x40 MLOAD SWAP1 POP PUSH1 0x40 DUP2 ADD PUSH1 0x40 MSTORE PUSH0 PUSH2 0xF1 DUP12 PUSH2 0x180 JUMP JUMPDEST SWAP1 POP PUSH0 PUSH2 0xFD DUP12 PUSH2 0x1B2 JUMP JUMPDEST SWAP1 POP PUSH0 PUSH2 0x109 DUP12 PUSH2 0x1B2 JUMP JUMPDEST SWAP1 POP PUSH2 0x122 DUP4 DUP4 DUP4 DUP8 PUSH2 0x1D8 SWAP1 SWAP4 SWAP3 SWAP2 SWAP1 PUSH4 0xFFFFFFFF AND JUMP JUMPDEST PUSH2 0x12B DUP5 PUSH2 0x1FB JUMP JUMPDEST SWAP7 POP PUSH2 0x140 PUSH0 DUP6 PUSH2 0x208 SWAP1 SWAP2 SWAP1 PUSH4 0xFFFFFFFF AND JUMP JUMPDEST SWAP6 POP PUSH2 0x156 PUSH1 0x1 DUP6 PUSH2 0x208 SWAP1 SWAP2 SWAP1 PUSH4 0xFFFFFFFF AND JUMP JUMPDEST SWAP5 POP POP POP POP POP SWAP4 SWAP8 POP SWAP4 SWAP8 SWAP2 SWAP6 POP SWAP4 POP JUMP JUMPDEST PUSH0 DUP2 DUP4 EQ SWAP1 POP SWAP3 SWAP2 POP POP JUMP JUMPDEST PUSH0 DUP2 DUP4 EQ SWAP1 POP SWAP3 SWAP2 POP POP JUMP JUMPDEST PUSH0 PUSH8 0xFFFFFFFFFFFFFFFF DUP3 PUSH2 0x195 SWAP2 SWAP1 PUSH2 0x35A JUMP JUMPDEST PUSH1 0x1 PUSH2 0x1A1 SWAP2 SWAP1 PUSH2 0x3B7 JUMP JUMPDEST PUSH8 0xFFFFFFFFFFFFFFFF AND SWAP1 POP SWAP2 SWAP1 POP JUMP JUMPDEST PUSH0 DUP2 PUSH27 0xFFFFFFFFFFFFFFFFFFFFFFFFFFFFFFFFFFFFFFFFFFFFFFFFFFFFFF AND SWAP1 POP SWAP2 SWAP1 POP JUMP JUMPDEST PUSH1 0x20 DUP5 SUB DUP1 MLOAD DUP3 PUSH1 0x1E DUP8 ADD MSTORE DUP4 PUSH1 0x3 DUP8 ADD MSTORE DUP5 PUSH1 0x18 DUP8 SUB MSTORE DUP1 DUP3 MSTORE POP POP POP POP POP POP JUMP JUMPDEST PUSH0 DUP2 MLOAD PUSH1 0xC0 SHR SWAP1 POP SWAP2 SWAP1 POP JUMP JUMPDEST PUSH0 DUP3 DUP3 ISZERO PUSH1 0x1B MUL PUSH1 0x23 SUB ADD MLOAD PUSH1 0x28 SHR SWAP1 POP SWAP3 SWAP2 POP POP JUMP JUMPDEST PUSH0 PUSH0 REVERT JUMPDEST PUSH0 PUSH8 0xFFFFFFFFFFFFFFFF DUP3 AND SWAP1 POP SWAP2 SWAP1 POP JUMP JUMPDEST PUSH2 0x23F DUP2 PUSH2 0x223 JUMP JUMPDEST DUP2 EQ PUSH2 0x249 JUMPI PUSH0 PUSH0 REVERT JUMPDEST POP JUMP JUMPDEST PUSH0 DUP2 CALLDATALOAD SWAP1 POP PUSH2 0x25A DUP2 PUSH2 0x236 JUMP JUMPDEST SWAP3 SWAP2 POP POP JUMP JUMPDEST PUSH0 PUSH27 0xFFFFFFFFFFFFFFFFFFFFFFFFFFFFFFFFFFFFFFFFFFFFFFFFFFFFFF DUP3 AND SWAP1 POP SWAP2 SWAP1 POP JUMP JUMPDEST PUSH2 0x28F DUP2 PUSH2 0x260 JUMP JUMPDEST DUP2 EQ PUSH2 0x299 JUMPI PUSH0 PUSH0 REVERT JUMPDEST POP JUMP JUMPDEST PUSH0 DUP2 CALLDATALOAD SWAP1 POP PUSH2 0x2AA DUP2 PUSH2 0x286 JUMP JUMPDEST SWAP3 SWAP2 POP POP JUMP JUMPDEST PUSH0 PUSH0 PUSH0 PUSH1 0x60 DUP5 DUP7 SUB SLT ISZERO PUSH2 0x2C7 JUMPI PUSH2 0x2C6 PUSH2 0x21F JUMP JUMPDEST JUMPDEST PUSH0 PUSH2 0x2D4 DUP7 DUP3 DUP8 ADD PUSH2 0x24C JUMP JUMPDEST SWAP4 POP POP PUSH1 0x20 PUSH2 0x2E5 DUP7 DUP3 DUP8 ADD PUSH2 0x29C JUMP JUMPDEST SWAP3 POP POP PUSH1 0x40 PUSH2 0x2F6 DUP7 DUP3 DUP8 ADD PUSH2 0x29C JUMP JUMPDEST SWAP2 POP POP SWAP3 POP SWAP3 POP SWAP3 JUMP JUMPDEST PUSH32 0x4E487B7100000000000000000000000000000000000000000000000000000000 PUSH0 MSTORE PUSH1 0x1 PUSH1 0x4 MSTORE PUSH1 0x24 PUSH0 REVERT JUMPDEST PUSH32 0x4E487B7100000000000000000000000000000000000000000000000000000000 PUSH0 MSTORE PUSH1 0x12 PUSH1 0x4 MSTORE PUSH1 0x24 PUSH0 REVERT JUMPDEST PUSH0 PUSH2 0x364 DUP3 PUSH2 0x223 JUMP JUMPDEST SWAP2 POP PUSH2 0x36F DUP4 PUSH2 0x223 JUMP JUMPDEST SWAP3 POP DUP3 PUSH2 0x37F JUMPI PUSH2 0x37E PUSH2 0x32D JUMP JUMPDEST JUMPDEST DUP3 DUP3 MOD SWAP1 POP SWAP3 SWAP2 POP POP JUMP JUMPDEST PUSH32 0x4E487B7100000000000000000000000000000000000000000000000000000000 PUSH0 MSTORE PUSH1 0x11 PUSH1 0x4 MSTORE PUSH1 0x24 PUSH0 REVERT JUMPDEST PUSH0 PUSH2 0x3C1 DUP3 PUSH2 0x223 JUMP JUMPDEST SWAP2 POP PUSH2 0x3CC DUP4 PUSH2 0x223 JUMP JUMPDEST SWAP3 POP DUP3 DUP3 ADD SWAP1 POP PUSH8 0xFFFFFFFFFFFFFFFF DUP2 GT ISZERO PUSH2 0x3EC JUMPI PUSH2 0x3EB PUSH2 0x38A JUMP JUMPDEST JUMPDEST SWAP3 SWAP2 POP POP JUMP INVALID LOG2 PUSH5 0x6970667358 0x22 SLT KECCAK256 SAR 0x26 0xBB 0xCB BALANCE BALANCE GASLIMIT 0xAD 0xDF SWAP8 PC 0x1E PC SWAP8 0xF9 MULMOD SELFBALANCE PUSH0 0xB8 0xA5 SWAP16 0x2C DUP13 OR 0xD GT PUSH16 0x407CB14ACA64736F6C634300081C0033 "
		},
		"gasEstimates": {
			"creation": {
				"codeDepositCost": "212800",
				"executionCost": "255",
				"totalCost": "213055"
			},
			"external": {
				"storePrice(uint64,uint216,uint216)": "infinite"
			}
		},
		"methodIdentifiers": {
			"storePrice(uint64,uint216,uint216)": "51daa070"
		}
	},
	"abi": [
		{
			"inputs": [
				{
					"internalType": "uint64",
					"name": "logPriceSeed",
					"type": "uint64"
				},
				{
					"internalType": "uint216",
					"name": "sqrtPriceSeed",
					"type": "uint216"
				},
				{
					"internalType": "uint216",
					"name": "sqrtInversePriceSeed",
					"type": "uint216"
				}
			],
			"name": "storePrice",
			"outputs": [],
			"stateMutability": "nonpayable",
			"type": "function"
		}
	]
}