{
	"data": {
		"bytecode": {
			"linkReferences": {},
			"object": "6080604052348015600e575f5ffd5b5061156d8061001c5f395ff3fe608060405234801561000f575f5ffd5b506004361061003f575f3560e01c80633c0606e5146100435780633d563c48146100735780635710af54146100a3575b5f5ffd5b61005d600480360381019061005891906113c6565b6100d3565b60405161006a9190611400565b60405180910390f35b61008d6004803603810190610088919061144c565b6100e9565b60405161009a9190611491565b60405180910390f35b6100bd60048036038101906100b8919061144c565b61013f565b6040516100ca9190611400565b60405180910390f35b5f5f6100de83610155565b905080915050919050565b5f5f6100f48361013f565b90505f8390505f610104826100d3565b90505f81841161011f57838261011a91906114d7565b61012c565b818461012b91906114d7565b5b9050621000008110945050505050919050565b5f5f61014a8361111d565b905080915050919050565b5f7fffffffffffffffffffffffffffffffffffffffffffffffffffffffffffffffff90505f60018316146101b4576101ad817ffffffffffffffff0000000000000007ffffffffffffffd555555555555555fff611356565b9050809150505b5f60028316146101ef576101e8817fffffffffffffffe000000000000001ffffffffffffffeaaaaaaaaaaaaaab5555611356565b9050809150505b5f600483161461022a57610223817fffffffffffffffc000000000000007ffffffffffffff555555555555555fffff611356565b9050809150505b5f60088316146102655761025e817fffffffffffffff800000000000001ffffffffffffffaaaaaaaaaaaaaab555555611356565b9050809150505b5f60108316146102a057610299817fffffffffffffff000000000000007fffffffffffffd55555555555555fffffff611356565b9050809150505b5f60208316146102db576102d4817ffffffffffffffe00000000000001fffffffffffffeaaaaaaaaaaaaab55555555611356565b9050809150505b5f60408316146103165761030f817ffffffffffffffc00000000000007fffffffffffff55555555555555fffffffff611356565b9050809150505b5f60808316146103515761034a817ffffffffffffff80000000000001fffffffffffffaaaaaaaaaaaaab5555555555611356565b9050809150505b5f61010083161461038d57610386817ffffffffffffff00000000000007ffffffffffffd5555555555555fffffffffff611356565b9050809150505b5f6102008316146103c9576103c2817fffffffffffffe0000000000001ffffffffffffeaaaaaaaaaaaab555555555555611356565b9050809150505b5f610400831614610405576103fe817fffffffffffffc0000000000007ffffffffffff5555555555555fffffffffffff611356565b9050809150505b5f6108008316146104415761043a817fffffffffffff8000000000001ffffffffffffaaaaaaaaaaaab55555555555544611356565b9050809150505b5f61100083161461047d57610476817fffffffffffff0000000000007fffffffffffd555555555555ffffffffffffddd611356565b9050809150505b5f6120008316146104b9576104b2817ffffffffffffe000000000001fffffffffffeaaaaaaaaaaab5555555555551111611356565b9050809150505b5f6140008316146104f5576104ee817ffffffffffffc000000000007fffffffffff555555555555ffffffffffff77777611356565b9050809150505b5f6180008316146105315761052a817ffffffffffff800000000001fffffffffffaaaaaaaaaaab555555555554444444611356565b9050809150505b5f6201000083161461056e57610567817ffffffffffff000000000007ffffffffffd55555555555fffffffffffdddddddd611356565b9050809150505b5f620200008316146105ab576105a4817fffffffffffe00000000001ffffffffffeaaaaaaaaaab55555555555111111111611356565b9050809150505b5f620400008316146105e8576105e1817fffffffffffc00000000007ffffffffff55555555555fffffffffff7777777777611356565b9050809150505b5f620800008316146106255761061e817fffffffffff80000000001ffffffffffaaaaaaaaaab5555555555444444444445611356565b9050809150505b5f621000008316146106625761065b817fffffffffff00000000007fffffffffd5555555555ffffffffffdddddddddde38611356565b9050809150505b5f6220000083161461069f57610698817ffffffffffe0000000001fffffffffeaaaaaaaaab5555555555111111111127d2611356565b9050809150505b5f624000008316146106dc576106d5817ffffffffffc0000000007fffffffff5555555555ffffffffff7777777777d27d2611356565b9050809150505b5f6280000083161461071957610712817ffffffffff8000000001fffffffffaaaaaaaaab55555555544444444445b05b05611356565b9050809150505b5f630100000083161461075757610750817ffffffffff0000000007ffffffffd555555555fffffffffddddddddde38e38e38611356565b9050809150505b5f63020000008316146107955761078e817fffffffffe000000001ffffffffeaaaaaaaab55555555511111111127d27d27d2611356565b9050809150505b5f63040000008316146107d3576107cc817fffffffffc000000007ffffffff555555555fffffffff777777777d27d27d279e611356565b9050809150505b5f63080000008316146108115761080a817fffffffff800000001ffffffffaaaaaaaab555555554444444445b05b05b04104611356565b9050809150505b5f631000000083161461084f57610848817fffffffff000000007fffffffd55555555ffffffffdddddddde38e38e38d68d68611356565b9050809150505b5f632000000083161461088d57610886817ffffffffe00000001fffffffeaaaaaaab555555551111111127d27d27cbfcbfcb611356565b9050809150505b5f63400000008316146108cb576108c4817ffffffffc00000007fffffff55555555ffffffff77777777d27d27d2492492493611356565b9050809150505b5f638000000083161461090957610902817ffffffff80000001fffffffaaaaaaab5555555444444445b05b05aebaebaebc8b611356565b9050809150505b5f64010000000083161461094857610941817ffffffff00000007ffffffd5555555fffffffddddddde38e38e38138138152152611356565b9050809150505b5f64020000000083161461098757610980817fffffffe0000001ffffffeaaaaaab5555555111111127d27d276a76a76c16c16c611356565b9050809150505b5f6404000000008316146109c6576109bf817fffffffc0000007ffffff5555555fffffff7777777d27d27cf3cf3cf56f56f563611356565b9050809150505b5f640800000000831614610a05576109fe817fffffff8000001ffffffaaaaaab55555544444445b05b0596596597f97f97e261611356565b9050809150505b5f641000000000831614610a4457610a3d817fffffff0000007fffffd555555ffffffdddddde38e38e2be2be2d82d82d549c66611356565b9050809150505b5f642000000000831614610a8357610a7c817ffffffe000001fffffeaaaaab55555511111127d27d21521522f22f2295b7946f611356565b9050809150505b5f644000000000831614610ac257610abb817ffffffc000007fffff555555ffffff777777d27d279e79e7b87b87acec95ea6fb611356565b9050809150505b5f648000000000831614610b0157610afa817ffffff800001fffffaaaaab555554444445b05b04104105b05b043e7ccc82d38d611356565b9050809150505b5f65010000000000831614610b4157610b3a817ffffff000007ffffd55555fffffddddde38e38d68d68f08f08c25341efdab8fbb611356565b9050809150505b5f65020000000000831614610b8157610b7a817fffffe00001ffffeaaaab555551111127d27cbfcbfe5fe5f8986d278883b32810611356565b9050809150505b5f65040000000000831614610bc157610bba817fffffc00007ffff55555fffff77777d27d2492493e93e885a4d0b3718299f991c611356565b9050809150505b5f65080000000000831614610c0157610bfa817fffff80001ffffaaaab5555444445b05aebaebc8bc8a56de63f19ef8d63ef3e11611356565b9050809150505b5f65100000000000831614610c4157610c3a817fffff00007fffd5555ffffdddde38e38138152151e6e58f6a0745f31d2b44ffd1611356565b9050809150505b5f65200000000000831614610c8157610c7a817ffffe0001fffeaaab5555111127d276a76c16c10f9f455507ff4e59eae0b49b74611356565b9050809150505b5f65400000000000831614610cc157610cba817ffffc0007fff5555ffff7777d27cf3cf56f563c8083c3dd14fefee723b7cde552611356565b9050809150505b5f65800000000000831614610d0157610cfa817ffff8001fffaaab55544445b0596597f97e261c6d26b1524d2b5fba251b1bed3d611356565b9050809150505b5f6601000000000000831614610d4257610d3b817ffff0007ffd555fffddde38e2be2d82d549cb030fde4780c8ba5d4c942f9675d8611356565b9050809150505b5f6602000000000000831614610d8357610d7c817fffe001ffeaab55511127d21522f2295b8bc3e72bdf83dfc665624bd38b6095a1611356565b9050809150505b5f6604000000000000831614610dc457610dbd817fffc007ff555fff777d279e7b87acecdfdd60a6a1f2240f278b268156aa11c98b611356565b9050809150505b5f6608000000000000831614610e0557610dfe817fff801ffaab554445b04105b043e8f48d37cd6eb44b097ac758de9ec8a7e89a70611356565b9050809150505b5f6610000000000000831614610e4657610e3f817fff007fd55ffdde38d68f08c257e0ce3f39cd64244ca9510b447cc0144e2b1a83611356565b9050809150505b5f6620000000000000831614610e8757610e80817ffe01feab551127cbfe5f89994c44216f70d4017aec234b1fe1d79aef8201f19e611356565b9050809150505b5f6640000000000000831614610ec857610ec1817ffc07f55ff77d2493e885eeaa756ad523135569ad22bfc4bfd6fe09972fc98660611356565b9050809150505b5f6680000000000000831614610f0957610f02817ff81fab5445aebc8a58055fcbbb139ae8e0686ad0022ea30aa6272c6f84035f5b611356565b9050809150505b5f670100000000000000831614610f4b57610f44817ff07d5fde38151e72f18ff03049ac5d7ea18e81673270e30b6a76da7f924bd6a3611356565b9050809150505b5f670200000000000000831614610f8d57610f86817fe1eb51276c110c3c3eb1269f2f5d4afabd8029f1b77328d9d41b38c7b22b96be611356565b9050809150505b5f670400000000000000831614610fcf57610fc8817fc75f7cf564105743415cbc9d6368f3b96071095abeaf430dbc067f714a3c1787611356565b9050809150505b5f6708000000000000008316146110115761100a817f9b4597e37cb04ff3d675a35530cdd767e347bf8ad0e80abbce4ae95861014318611356565b9050809150505b5f6710000000000000008316146110535761104c817f5e2d58d8b3bcdf1abadec7829054f90dda9805aab56c77333024b9d0a507daed611356565b9050809150505b5f6720000000000000008316146110955761108e817f22a555477f03973fb6edd5c25a052ae3f0dd961da28ac9959e1329cdbcb21c09611356565b9050809150505b5f6740000000000000008316146110d7576110d0817f04b0556e084f3d1dfa2bc04cb0ab88f528f9435387c7dd33793561a4b342b9b4611356565b9050809150505b5f67800000000000000083161461111857611111817e15fc21041027acbbfcd46780fee71ead23fbcb7f4a81e58767ef801a32c2ef611356565b9050809150505b919050565b5f5f8290505f81820290505f81820290505f5f19600160801b600160801b8486095f19858709030990505f8283025f198485090390505f7f40000000000000000000000000000000000000000000000000000000000000006d7bb844000000000000000000000083816111935761119261150a565b5b0469c918000000000000000085816111ae576111ad61150a565b5b046609c0000000000087816111c6576111c561150a565b5b04600f6d07000000000000000000000000008a02816111e8576111e761150a565b5b040101010190505f7f80000000000000000000000000000000000000000000000000000000000000006a06df920000000000000000858161122c5761122b61150a565b5b04662490000000000087816112445761124361150a565b5b04600f606a8a901b8161125a5761125961150a565b5b0401010190505f19600160b41b6001604c1b838a095f19848b090309905060026112a98284037f4000000000000000000000000000000000000000000000000000000000000000848601611373565b901b91508182025f198384090391508182025f198384090391508182025f198384090391508182025f198384090391508182025f198384090391508182025f198384090391508182025f198384090391508182025f198384090391508182025f198384090391508182025f198384090391508182025f198384090391508182025f198384090391508182025f198384090391508182025f1983840903915081975050505050505050919050565b5f5f5f198385098385029250828110838203039150509250929050565b5f60018203905080828486098203828587090890509392505050565b5f5ffd5b5f819050919050565b6113a581611393565b81146113af575f5ffd5b50565b5f813590506113c08161139c565b92915050565b5f602082840312156113db576113da61138f565b5b5f6113e8848285016113b2565b91505092915050565b6113fa81611393565b82525050565b5f6020820190506114135f8301846113f1565b92915050565b5f819050919050565b61142b81611419565b8114611435575f5ffd5b50565b5f8135905061144681611422565b92915050565b5f602082840312156114615761146061138f565b5b5f61146e84828501611438565b91505092915050565b5f8115159050919050565b61148b81611477565b82525050565b5f6020820190506114a45f830184611482565b92915050565b7f4e487b71000000000000000000000000000000000000000000000000000000005f52601160045260245ffd5b5f6114e182611393565b91506114ec83611393565b9250828203905081811115611504576115036114aa565b5b92915050565b7f4e487b71000000000000000000000000000000000000000000000000000000005f52601260045260245ffdfea2646970667358221220b480fe8c49916f7a5cbaec4f60eaaa9256eb3e23ea58b64aabb5dc4326b78b0664736f6c63430008220033",
			"opcodes": "PUSH1 0x80 PUSH1 0x40 MSTORE CALLVALUE DUP1 ISZERO PUSH1 0xE JUMPI PUSH0 PUSH0 REVERT JUMPDEST POP PUSH2 0x156D DUP1 PUSH2 0x1C PUSH0 CODECOPY PUSH0 RETURN INVALID PUSH1 0x80 PUSH1 0x40 MSTORE CALLVALUE DUP1 ISZERO PUSH2 0xF JUMPI PUSH0 PUSH0 REVERT JUMPDEST POP PUSH1 0x4 CALLDATASIZE LT PUSH2 0x3F JUMPI PUSH0 CALLDATALOAD PUSH1 0xE0 SHR DUP1 PUSH4 0x3C0606E5 EQ PUSH2 0x43 JUMPI DUP1 PUSH4 0x3D563C48 EQ PUSH2 0x73 JUMPI DUP1 PUSH4 0x5710AF54 EQ PUSH2 0xA3 JUMPI JUMPDEST PUSH0 PUSH0 REVERT JUMPDEST PUSH2 0x5D PUSH1 0x4 DUP1 CALLDATASIZE SUB DUP2 ADD SWAP1 PUSH2 0x58 SWAP2 SWAP1 PUSH2 0x13C6 JUMP JUMPDEST PUSH2 0xD3 JUMP JUMPDEST PUSH1 0x40 MLOAD PUSH2 0x6A SWAP2 SWAP1 PUSH2 0x1400 JUMP JUMPDEST PUSH1 0x40 MLOAD DUP1 SWAP2 SUB SWAP1 RETURN JUMPDEST PUSH2 0x8D PUSH1 0x4 DUP1 CALLDATASIZE SUB DUP2 ADD SWAP1 PUSH2 0x88 SWAP2 SWAP1 PUSH2 0x144C JUMP JUMPDEST PUSH2 0xE9 JUMP JUMPDEST PUSH1 0x40 MLOAD PUSH2 0x9A SWAP2 SWAP1 PUSH2 0x1491 JUMP JUMPDEST PUSH1 0x40 MLOAD DUP1 SWAP2 SUB SWAP1 RETURN JUMPDEST PUSH2 0xBD PUSH1 0x4 DUP1 CALLDATASIZE SUB DUP2 ADD SWAP1 PUSH2 0xB8 SWAP2 SWAP1 PUSH2 0x144C JUMP JUMPDEST PUSH2 0x13F JUMP JUMPDEST PUSH1 0x40 MLOAD PUSH2 0xCA SWAP2 SWAP1 PUSH2 0x1400 JUMP JUMPDEST PUSH1 0x40 MLOAD DUP1 SWAP2 SUB SWAP1 RETURN JUMPDEST PUSH0 PUSH0 PUSH2 0xDE DUP4 PUSH2 0x155 JUMP JUMPDEST SWAP1 POP DUP1 SWAP2 POP POP SWAP2 SWAP1 POP JUMP JUMPDEST PUSH0 PUSH0 PUSH2 0xF4 DUP4 PUSH2 0x13F JUMP JUMPDEST SWAP1 POP PUSH0 DUP4 SWAP1 POP PUSH0 PUSH2 0x104 DUP3 PUSH2 0xD3 JUMP JUMPDEST SWAP1 POP PUSH0 DUP2 DUP5 GT PUSH2 0x11F JUMPI DUP4 DUP3 PUSH2 0x11A SWAP2 SWAP1 PUSH2 0x14D7 JUMP JUMPDEST PUSH2 0x12C JUMP JUMPDEST DUP2 DUP5 PUSH2 0x12B SWAP2 SWAP1 PUSH2 0x14D7 JUMP JUMPDEST JUMPDEST SWAP1 POP PUSH3 0x100000 DUP2 LT SWAP5 POP POP POP POP POP SWAP2 SWAP1 POP JUMP JUMPDEST PUSH0 PUSH0 PUSH2 0x14A DUP4 PUSH2 0x111D JUMP JUMPDEST SWAP1 POP DUP1 SWAP2 POP POP SWAP2 SWAP1 POP JUMP JUMPDEST PUSH0 PUSH32 0xFFFFFFFFFFFFFFFFFFFFFFFFFFFFFFFFFFFFFFFFFFFFFFFFFFFFFFFFFFFFFFFF SWAP1 POP PUSH0 PUSH1 0x1 DUP4 AND EQ PUSH2 0x1B4 JUMPI PUSH2 0x1AD DUP2 PUSH32 0xFFFFFFFFFFFFFFF0000000000000007FFFFFFFFFFFFFFD555555555555555FFF PUSH2 0x1356 JUMP JUMPDEST SWAP1 POP DUP1 SWAP2 POP POP JUMPDEST PUSH0 PUSH1 0x2 DUP4 AND EQ PUSH2 0x1EF JUMPI PUSH2 0x1E8 DUP2 PUSH32 0xFFFFFFFFFFFFFFE000000000000001FFFFFFFFFFFFFFEAAAAAAAAAAAAAAB5555 PUSH2 0x1356 JUMP JUMPDEST SWAP1 POP DUP1 SWAP2 POP POP JUMPDEST PUSH0 PUSH1 0x4 DUP4 AND EQ PUSH2 0x22A JUMPI PUSH2 0x223 DUP2 PUSH32 0xFFFFFFFFFFFFFFC000000000000007FFFFFFFFFFFFFF555555555555555FFFFF PUSH2 0x1356 JUMP JUMPDEST SWAP1 POP DUP1 SWAP2 POP POP JUMPDEST PUSH0 PUSH1 0x8 DUP4 AND EQ PUSH2 0x265 JUMPI PUSH2 0x25E DUP2 PUSH32 0xFFFFFFFFFFFFFF800000000000001FFFFFFFFFFFFFFAAAAAAAAAAAAAAB555555 PUSH2 0x1356 JUMP JUMPDEST SWAP1 POP DUP1 SWAP2 POP POP JUMPDEST PUSH0 PUSH1 0x10 DUP4 AND EQ PUSH2 0x2A0 JUMPI PUSH2 0x299 DUP2 PUSH32 0xFFFFFFFFFFFFFF000000000000007FFFFFFFFFFFFFD55555555555555FFFFFFF PUSH2 0x1356 JUMP JUMPDEST SWAP1 POP DUP1 SWAP2 POP POP JUMPDEST PUSH0 PUSH1 0x20 DUP4 AND EQ PUSH2 0x2DB JUMPI PUSH2 0x2D4 DUP2 PUSH32 0xFFFFFFFFFFFFFE00000000000001FFFFFFFFFFFFFEAAAAAAAAAAAAAB55555555 PUSH2 0x1356 JUMP JUMPDEST SWAP1 POP DUP1 SWAP2 POP POP JUMPDEST PUSH0 PUSH1 0x40 DUP4 AND EQ PUSH2 0x316 JUMPI PUSH2 0x30F DUP2 PUSH32 0xFFFFFFFFFFFFFC00000000000007FFFFFFFFFFFFF55555555555555FFFFFFFFF PUSH2 0x1356 JUMP JUMPDEST SWAP1 POP DUP1 SWAP2 POP POP JUMPDEST PUSH0 PUSH1 0x80 DUP4 AND EQ PUSH2 0x351 JUMPI PUSH2 0x34A DUP2 PUSH32 0xFFFFFFFFFFFFF80000000000001FFFFFFFFFFFFFAAAAAAAAAAAAAB5555555555 PUSH2 0x1356 JUMP JUMPDEST SWAP1 POP DUP1 SWAP2 POP POP JUMPDEST PUSH0 PUSH2 0x100 DUP4 AND EQ PUSH2 0x38D JUMPI PUSH2 0x386 DUP2 PUSH32 0xFFFFFFFFFFFFF00000000000007FFFFFFFFFFFFD5555555555555FFFFFFFFFFF PUSH2 0x1356 JUMP JUMPDEST SWAP1 POP DUP1 SWAP2 POP POP JUMPDEST PUSH0 PUSH2 0x200 DUP4 AND EQ PUSH2 0x3C9 JUMPI PUSH2 0x3C2 DUP2 PUSH32 0xFFFFFFFFFFFFE0000000000001FFFFFFFFFFFFEAAAAAAAAAAAAB555555555555 PUSH2 0x1356 JUMP JUMPDEST SWAP1 POP DUP1 SWAP2 POP POP JUMPDEST PUSH0 PUSH2 0x400 DUP4 AND EQ PUSH2 0x405 JUMPI PUSH2 0x3FE DUP2 PUSH32 0xFFFFFFFFFFFFC0000000000007FFFFFFFFFFFF5555555555555FFFFFFFFFFFFF PUSH2 0x1356 JUMP JUMPDEST SWAP1 POP DUP1 SWAP2 POP POP JUMPDEST PUSH0 PUSH2 0x800 DUP4 AND EQ PUSH2 0x441 JUMPI PUSH2 0x43A DUP2 PUSH32 0xFFFFFFFFFFFF8000000000001FFFFFFFFFFFFAAAAAAAAAAAAB55555555555544 PUSH2 0x1356 JUMP JUMPDEST SWAP1 POP DUP1 SWAP2 POP POP JUMPDEST PUSH0 PUSH2 0x1000 DUP4 AND EQ PUSH2 0x47D JUMPI PUSH2 0x476 DUP2 PUSH32 0xFFFFFFFFFFFF0000000000007FFFFFFFFFFFD555555555555FFFFFFFFFFFFDDD PUSH2 0x1356 JUMP JUMPDEST SWAP1 POP DUP1 SWAP2 POP POP JUMPDEST PUSH0 PUSH2 0x2000 DUP4 AND EQ PUSH2 0x4B9 JUMPI PUSH2 0x4B2 DUP2 PUSH32 0xFFFFFFFFFFFE000000000001FFFFFFFFFFFEAAAAAAAAAAAB5555555555551111 PUSH2 0x1356 JUMP JUMPDEST SWAP1 POP DUP1 SWAP2 POP POP JUMPDEST PUSH0 PUSH2 0x4000 DUP4 AND EQ PUSH2 0x4F5 JUMPI PUSH2 0x4EE DUP2 PUSH32 0xFFFFFFFFFFFC000000000007FFFFFFFFFFF555555555555FFFFFFFFFFFF77777 PUSH2 0x1356 JUMP JUMPDEST SWAP1 POP DUP1 SWAP2 POP POP JUMPDEST PUSH0 PUSH2 0x8000 DUP4 AND EQ PUSH2 0x531 JUMPI PUSH2 0x52A DUP2 PUSH32 0xFFFFFFFFFFF800000000001FFFFFFFFFFFAAAAAAAAAAAB555555555554444444 PUSH2 0x1356 JUMP JUMPDEST SWAP1 POP DUP1 SWAP2 POP POP JUMPDEST PUSH0 PUSH3 0x10000 DUP4 AND EQ PUSH2 0x56E JUMPI PUSH2 0x567 DUP2 PUSH32 0xFFFFFFFFFFF000000000007FFFFFFFFFFD55555555555FFFFFFFFFFFDDDDDDDD PUSH2 0x1356 JUMP JUMPDEST SWAP1 POP DUP1 SWAP2 POP POP JUMPDEST PUSH0 PUSH3 0x20000 DUP4 AND EQ PUSH2 0x5AB JUMPI PUSH2 0x5A4 DUP2 PUSH32 0xFFFFFFFFFFE00000000001FFFFFFFFFFEAAAAAAAAAAB55555555555111111111 PUSH2 0x1356 JUMP JUMPDEST SWAP1 POP DUP1 SWAP2 POP POP JUMPDEST PUSH0 PUSH3 0x40000 DUP4 AND EQ PUSH2 0x5E8 JUMPI PUSH2 0x5E1 DUP2 PUSH32 0xFFFFFFFFFFC00000000007FFFFFFFFFF55555555555FFFFFFFFFFF7777777777 PUSH2 0x1356 JUMP JUMPDEST SWAP1 POP DUP1 SWAP2 POP POP JUMPDEST PUSH0 PUSH3 0x80000 DUP4 AND EQ PUSH2 0x625 JUMPI PUSH2 0x61E DUP2 PUSH32 0xFFFFFFFFFF80000000001FFFFFFFFFFAAAAAAAAAAB5555555555444444444445 PUSH2 0x1356 JUMP JUMPDEST SWAP1 POP DUP1 SWAP2 POP POP JUMPDEST PUSH0 PUSH3 0x100000 DUP4 AND EQ PUSH2 0x662 JUMPI PUSH2 0x65B DUP2 PUSH32 0xFFFFFFFFFF00000000007FFFFFFFFFD5555555555FFFFFFFFFFDDDDDDDDDDE38 PUSH2 0x1356 JUMP JUMPDEST SWAP1 POP DUP1 SWAP2 POP POP JUMPDEST PUSH0 PUSH3 0x200000 DUP4 AND EQ PUSH2 0x69F JUMPI PUSH2 0x698 DUP2 PUSH32 0xFFFFFFFFFE0000000001FFFFFFFFFEAAAAAAAAAB5555555555111111111127D2 PUSH2 0x1356 JUMP JUMPDEST SWAP1 POP DUP1 SWAP2 POP POP JUMPDEST PUSH0 PUSH3 0x400000 DUP4 AND EQ PUSH2 0x6DC JUMPI PUSH2 0x6D5 DUP2 PUSH32 0xFFFFFFFFFC0000000007FFFFFFFFF5555555555FFFFFFFFFF7777777777D27D2 PUSH2 0x1356 JUMP JUMPDEST SWAP1 POP DUP1 SWAP2 POP POP JUMPDEST PUSH0 PUSH3 0x800000 DUP4 AND EQ PUSH2 0x719 JUMPI PUSH2 0x712 DUP2 PUSH32 0xFFFFFFFFF8000000001FFFFFFFFFAAAAAAAAAB55555555544444444445B05B05 PUSH2 0x1356 JUMP JUMPDEST SWAP1 POP DUP1 SWAP2 POP POP JUMPDEST PUSH0 PUSH4 0x1000000 DUP4 AND EQ PUSH2 0x757 JUMPI PUSH2 0x750 DUP2 PUSH32 0xFFFFFFFFF0000000007FFFFFFFFD555555555FFFFFFFFFDDDDDDDDDE38E38E38 PUSH2 0x1356 JUMP JUMPDEST SWAP1 POP DUP1 SWAP2 POP POP JUMPDEST PUSH0 PUSH4 0x2000000 DUP4 AND EQ PUSH2 0x795 JUMPI PUSH2 0x78E DUP2 PUSH32 0xFFFFFFFFE000000001FFFFFFFFEAAAAAAAAB55555555511111111127D27D27D2 PUSH2 0x1356 JUMP JUMPDEST SWAP1 POP DUP1 SWAP2 POP POP JUMPDEST PUSH0 PUSH4 0x4000000 DUP4 AND EQ PUSH2 0x7D3 JUMPI PUSH2 0x7CC DUP2 PUSH32 0xFFFFFFFFC000000007FFFFFFFF555555555FFFFFFFFF777777777D27D27D279E PUSH2 0x1356 JUMP JUMPDEST SWAP1 POP DUP1 SWAP2 POP POP JUMPDEST PUSH0 PUSH4 0x8000000 DUP4 AND EQ PUSH2 0x811 JUMPI PUSH2 0x80A DUP2 PUSH32 0xFFFFFFFF800000001FFFFFFFFAAAAAAAAB555555554444444445B05B05B04104 PUSH2 0x1356 JUMP JUMPDEST SWAP1 POP DUP1 SWAP2 POP POP JUMPDEST PUSH0 PUSH4 0x10000000 DUP4 AND EQ PUSH2 0x84F JUMPI PUSH2 0x848 DUP2 PUSH32 0xFFFFFFFF000000007FFFFFFFD55555555FFFFFFFFDDDDDDDDE38E38E38D68D68 PUSH2 0x1356 JUMP JUMPDEST SWAP1 POP DUP1 SWAP2 POP POP JUMPDEST PUSH0 PUSH4 0x20000000 DUP4 AND EQ PUSH2 0x88D JUMPI PUSH2 0x886 DUP2 PUSH32 0xFFFFFFFE00000001FFFFFFFEAAAAAAAB555555551111111127D27D27CBFCBFCB PUSH2 0x1356 JUMP JUMPDEST SWAP1 POP DUP1 SWAP2 POP POP JUMPDEST PUSH0 PUSH4 0x40000000 DUP4 AND EQ PUSH2 0x8CB JUMPI PUSH2 0x8C4 DUP2 PUSH32 0xFFFFFFFC00000007FFFFFFF55555555FFFFFFFF77777777D27D27D2492492493 PUSH2 0x1356 JUMP JUMPDEST SWAP1 POP DUP1 SWAP2 POP POP JUMPDEST PUSH0 PUSH4 0x80000000 DUP4 AND EQ PUSH2 0x909 JUMPI PUSH2 0x902 DUP2 PUSH32 0xFFFFFFF80000001FFFFFFFAAAAAAAB5555555444444445B05B05AEBAEBAEBC8B PUSH2 0x1356 JUMP JUMPDEST SWAP1 POP DUP1 SWAP2 POP POP JUMPDEST PUSH0 PUSH5 0x100000000 DUP4 AND EQ PUSH2 0x948 JUMPI PUSH2 0x941 DUP2 PUSH32 0xFFFFFFF00000007FFFFFFD5555555FFFFFFFDDDDDDDE38E38E38138138152152 PUSH2 0x1356 JUMP JUMPDEST SWAP1 POP DUP1 SWAP2 POP POP JUMPDEST PUSH0 PUSH5 0x200000000 DUP4 AND EQ PUSH2 0x987 JUMPI PUSH2 0x980 DUP2 PUSH32 0xFFFFFFE0000001FFFFFFEAAAAAAB5555555111111127D27D276A76A76C16C16C PUSH2 0x1356 JUMP JUMPDEST SWAP1 POP DUP1 SWAP2 POP POP JUMPDEST PUSH0 PUSH5 0x400000000 DUP4 AND EQ PUSH2 0x9C6 JUMPI PUSH2 0x9BF DUP2 PUSH32 0xFFFFFFC0000007FFFFFF5555555FFFFFFF7777777D27D27CF3CF3CF56F56F563 PUSH2 0x1356 JUMP JUMPDEST SWAP1 POP DUP1 SWAP2 POP POP JUMPDEST PUSH0 PUSH5 0x800000000 DUP4 AND EQ PUSH2 0xA05 JUMPI PUSH2 0x9FE DUP2 PUSH32 0xFFFFFF8000001FFFFFFAAAAAAB55555544444445B05B0596596597F97F97E261 PUSH2 0x1356 JUMP JUMPDEST SWAP1 POP DUP1 SWAP2 POP POP JUMPDEST PUSH0 PUSH5 0x1000000000 DUP4 AND EQ PUSH2 0xA44 JUMPI PUSH2 0xA3D DUP2 PUSH32 0xFFFFFF0000007FFFFFD555555FFFFFFDDDDDDE38E38E2BE2BE2D82D82D549C66 PUSH2 0x1356 JUMP JUMPDEST SWAP1 POP DUP1 SWAP2 POP POP JUMPDEST PUSH0 PUSH5 0x2000000000 DUP4 AND EQ PUSH2 0xA83 JUMPI PUSH2 0xA7C DUP2 PUSH32 0xFFFFFE000001FFFFFEAAAAAB55555511111127D27D21521522F22F2295B7946F PUSH2 0x1356 JUMP JUMPDEST SWAP1 POP DUP1 SWAP2 POP POP JUMPDEST PUSH0 PUSH5 0x4000000000 DUP4 AND EQ PUSH2 0xAC2 JUMPI PUSH2 0xABB DUP2 PUSH32 0xFFFFFC000007FFFFF555555FFFFFF777777D27D279E79E7B87B87ACEC95EA6FB PUSH2 0x1356 JUMP JUMPDEST SWAP1 POP DUP1 SWAP2 POP POP JUMPDEST PUSH0 PUSH5 0x8000000000 DUP4 AND EQ PUSH2 0xB01 JUMPI PUSH2 0xAFA DUP2 PUSH32 0xFFFFF800001FFFFFAAAAAB555554444445B05B04104105B05B043E7CCC82D38D PUSH2 0x1356 JUMP JUMPDEST SWAP1 POP DUP1 SWAP2 POP POP JUMPDEST PUSH0 PUSH6 0x10000000000 DUP4 AND EQ PUSH2 0xB41 JUMPI PUSH2 0xB3A DUP2 PUSH32 0xFFFFF000007FFFFD55555FFFFFDDDDDE38E38D68D68F08F08C25341EFDAB8FBB PUSH2 0x1356 JUMP JUMPDEST SWAP1 POP DUP1 SWAP2 POP POP JUMPDEST PUSH0 PUSH6 0x20000000000 DUP4 AND EQ PUSH2 0xB81 JUMPI PUSH2 0xB7A DUP2 PUSH32 0xFFFFE00001FFFFEAAAAB555551111127D27CBFCBFE5FE5F8986D278883B32810 PUSH2 0x1356 JUMP JUMPDEST SWAP1 POP DUP1 SWAP2 POP POP JUMPDEST PUSH0 PUSH6 0x40000000000 DUP4 AND EQ PUSH2 0xBC1 JUMPI PUSH2 0xBBA DUP2 PUSH32 0xFFFFC00007FFFF55555FFFFF77777D27D2492493E93E885A4D0B3718299F991C PUSH2 0x1356 JUMP JUMPDEST SWAP1 POP DUP1 SWAP2 POP POP JUMPDEST PUSH0 PUSH6 0x80000000000 DUP4 AND EQ PUSH2 0xC01 JUMPI PUSH2 0xBFA DUP2 PUSH32 0xFFFF80001FFFFAAAAB5555444445B05AEBAEBC8BC8A56DE63F19EF8D63EF3E11 PUSH2 0x1356 JUMP JUMPDEST SWAP1 POP DUP1 SWAP2 POP POP JUMPDEST PUSH0 PUSH6 0x100000000000 DUP4 AND EQ PUSH2 0xC41 JUMPI PUSH2 0xC3A DUP2 PUSH32 0xFFFF00007FFFD5555FFFFDDDDE38E38138152151E6E58F6A0745F31D2B44FFD1 PUSH2 0x1356 JUMP JUMPDEST SWAP1 POP DUP1 SWAP2 POP POP JUMPDEST PUSH0 PUSH6 0x200000000000 DUP4 AND EQ PUSH2 0xC81 JUMPI PUSH2 0xC7A DUP2 PUSH32 0xFFFE0001FFFEAAAB5555111127D276A76C16C10F9F455507FF4E59EAE0B49B74 PUSH2 0x1356 JUMP JUMPDEST SWAP1 POP DUP1 SWAP2 POP POP JUMPDEST PUSH0 PUSH6 0x400000000000 DUP4 AND EQ PUSH2 0xCC1 JUMPI PUSH2 0xCBA DUP2 PUSH32 0xFFFC0007FFF5555FFFF7777D27CF3CF56F563C8083C3DD14FEFEE723B7CDE552 PUSH2 0x1356 JUMP JUMPDEST SWAP1 POP DUP1 SWAP2 POP POP JUMPDEST PUSH0 PUSH6 0x800000000000 DUP4 AND EQ PUSH2 0xD01 JUMPI PUSH2 0xCFA DUP2 PUSH32 0xFFF8001FFFAAAB55544445B0596597F97E261C6D26B1524D2B5FBA251B1BED3D PUSH2 0x1356 JUMP JUMPDEST SWAP1 POP DUP1 SWAP2 POP POP JUMPDEST PUSH0 PUSH7 0x1000000000000 DUP4 AND EQ PUSH2 0xD42 JUMPI PUSH2 0xD3B DUP2 PUSH32 0xFFF0007FFD555FFFDDDE38E2BE2D82D549CB030FDE4780C8BA5D4C942F9675D8 PUSH2 0x1356 JUMP JUMPDEST SWAP1 POP DUP1 SWAP2 POP POP JUMPDEST PUSH0 PUSH7 0x2000000000000 DUP4 AND EQ PUSH2 0xD83 JUMPI PUSH2 0xD7C DUP2 PUSH32 0xFFE001FFEAAB55511127D21522F2295B8BC3E72BDF83DFC665624BD38B6095A1 PUSH2 0x1356 JUMP JUMPDEST SWAP1 POP DUP1 SWAP2 POP POP JUMPDEST PUSH0 PUSH7 0x4000000000000 DUP4 AND EQ PUSH2 0xDC4 JUMPI PUSH2 0xDBD DUP2 PUSH32 0xFFC007FF555FFF777D279E7B87ACECDFDD60A6A1F2240F278B268156AA11C98B PUSH2 0x1356 JUMP JUMPDEST SWAP1 POP DUP1 SWAP2 POP POP JUMPDEST PUSH0 PUSH7 0x8000000000000 DUP4 AND EQ PUSH2 0xE05 JUMPI PUSH2 0xDFE DUP2 PUSH32 0xFF801FFAAB554445B04105B043E8F48D37CD6EB44B097AC758DE9EC8A7E89A70 PUSH2 0x1356 JUMP JUMPDEST SWAP1 POP DUP1 SWAP2 POP POP JUMPDEST PUSH0 PUSH7 0x10000000000000 DUP4 AND EQ PUSH2 0xE46 JUMPI PUSH2 0xE3F DUP2 PUSH32 0xFF007FD55FFDDE38D68F08C257E0CE3F39CD64244CA9510B447CC0144E2B1A83 PUSH2 0x1356 JUMP JUMPDEST SWAP1 POP DUP1 SWAP2 POP POP JUMPDEST PUSH0 PUSH7 0x20000000000000 DUP4 AND EQ PUSH2 0xE87 JUMPI PUSH2 0xE80 DUP2 PUSH32 0xFE01FEAB551127CBFE5F89994C44216F70D4017AEC234B1FE1D79AEF8201F19E PUSH2 0x1356 JUMP JUMPDEST SWAP1 POP DUP1 SWAP2 POP POP JUMPDEST PUSH0 PUSH7 0x40000000000000 DUP4 AND EQ PUSH2 0xEC8 JUMPI PUSH2 0xEC1 DUP2 PUSH32 0xFC07F55FF77D2493E885EEAA756AD523135569AD22BFC4BFD6FE09972FC98660 PUSH2 0x1356 JUMP JUMPDEST SWAP1 POP DUP1 SWAP2 POP POP JUMPDEST PUSH0 PUSH7 0x80000000000000 DUP4 AND EQ PUSH2 0xF09 JUMPI PUSH2 0xF02 DUP2 PUSH32 0xF81FAB5445AEBC8A58055FCBBB139AE8E0686AD0022EA30AA6272C6F84035F5B PUSH2 0x1356 JUMP JUMPDEST SWAP1 POP DUP1 SWAP2 POP POP JUMPDEST PUSH0 PUSH8 0x100000000000000 DUP4 AND EQ PUSH2 0xF4B JUMPI PUSH2 0xF44 DUP2 PUSH32 0xF07D5FDE38151E72F18FF03049AC5D7EA18E81673270E30B6A76DA7F924BD6A3 PUSH2 0x1356 JUMP JUMPDEST SWAP1 POP DUP1 SWAP2 POP POP JUMPDEST PUSH0 PUSH8 0x200000000000000 DUP4 AND EQ PUSH2 0xF8D JUMPI PUSH2 0xF86 DUP2 PUSH32 0xE1EB51276C110C3C3EB1269F2F5D4AFABD8029F1B77328D9D41B38C7B22B96BE PUSH2 0x1356 JUMP JUMPDEST SWAP1 POP DUP1 SWAP2 POP POP JUMPDEST PUSH0 PUSH8 0x400000000000000 DUP4 AND EQ PUSH2 0xFCF JUMPI PUSH2 0xFC8 DUP2 PUSH32 0xC75F7CF564105743415CBC9D6368F3B96071095ABEAF430DBC067F714A3C1787 PUSH2 0x1356 JUMP JUMPDEST SWAP1 POP DUP1 SWAP2 POP POP JUMPDEST PUSH0 PUSH8 0x800000000000000 DUP4 AND EQ PUSH2 0x1011 JUMPI PUSH2 0x100A DUP2 PUSH32 0x9B4597E37CB04FF3D675A35530CDD767E347BF8AD0E80ABBCE4AE95861014318 PUSH2 0x1356 JUMP JUMPDEST SWAP1 POP DUP1 SWAP2 POP POP JUMPDEST PUSH0 PUSH8 0x1000000000000000 DUP4 AND EQ PUSH2 0x1053 JUMPI PUSH2 0x104C DUP2 PUSH32 0x5E2D58D8B3BCDF1ABADEC7829054F90DDA9805AAB56C77333024B9D0A507DAED PUSH2 0x1356 JUMP JUMPDEST SWAP1 POP DUP1 SWAP2 POP POP JUMPDEST PUSH0 PUSH8 0x2000000000000000 DUP4 AND EQ PUSH2 0x1095 JUMPI PUSH2 0x108E DUP2 PUSH32 0x22A555477F03973FB6EDD5C25A052AE3F0DD961DA28AC9959E1329CDBCB21C09 PUSH2 0x1356 JUMP JUMPDEST SWAP1 POP DUP1 SWAP2 POP POP JUMPDEST PUSH0 PUSH8 0x4000000000000000 DUP4 AND EQ PUSH2 0x10D7 JUMPI PUSH2 0x10D0 DUP2 PUSH32 0x4B0556E084F3D1DFA2BC04CB0AB88F528F9435387C7DD33793561A4B342B9B4 PUSH2 0x1356 JUMP JUMPDEST SWAP1 POP DUP1 SWAP2 POP POP JUMPDEST PUSH0 PUSH8 0x8000000000000000 DUP4 AND EQ PUSH2 0x1118 JUMPI PUSH2 0x1111 DUP2 PUSH31 0x15FC21041027ACBBFCD46780FEE71EAD23FBCB7F4A81E58767EF801A32C2EF PUSH2 0x1356 JUMP JUMPDEST SWAP1 POP DUP1 SWAP2 POP POP JUMPDEST SWAP2 SWAP1 POP JUMP JUMPDEST PUSH0 PUSH0 DUP3 SWAP1 POP PUSH0 DUP2 DUP3 MUL SWAP1 POP PUSH0 DUP2 DUP3 MUL SWAP1 POP PUSH0 PUSH0 NOT PUSH1 0x1 PUSH1 0x80 SHL PUSH1 0x1 PUSH1 0x80 SHL DUP5 DUP7 MULMOD PUSH0 NOT DUP6 DUP8 MULMOD SUB MULMOD SWAP1 POP PUSH0 DUP3 DUP4 MUL PUSH0 NOT DUP5 DUP6 MULMOD SUB SWAP1 POP PUSH0 PUSH32 0x4000000000000000000000000000000000000000000000000000000000000000 PUSH14 0x7BB8440000000000000000000000 DUP4 DUP2 PUSH2 0x1193 JUMPI PUSH2 0x1192 PUSH2 0x150A JUMP JUMPDEST JUMPDEST DIV PUSH10 0xC9180000000000000000 DUP6 DUP2 PUSH2 0x11AE JUMPI PUSH2 0x11AD PUSH2 0x150A JUMP JUMPDEST JUMPDEST DIV PUSH7 0x9C00000000000 DUP8 DUP2 PUSH2 0x11C6 JUMPI PUSH2 0x11C5 PUSH2 0x150A JUMP JUMPDEST JUMPDEST DIV PUSH1 0xF PUSH14 0x700000000000000000000000000 DUP11 MUL DUP2 PUSH2 0x11E8 JUMPI PUSH2 0x11E7 PUSH2 0x150A JUMP JUMPDEST JUMPDEST DIV ADD ADD ADD ADD SWAP1 POP PUSH0 PUSH32 0x8000000000000000000000000000000000000000000000000000000000000000 PUSH11 0x6DF920000000000000000 DUP6 DUP2 PUSH2 0x122C JUMPI PUSH2 0x122B PUSH2 0x150A JUMP JUMPDEST JUMPDEST DIV PUSH7 0x24900000000000 DUP8 DUP2 PUSH2 0x1244 JUMPI PUSH2 0x1243 PUSH2 0x150A JUMP JUMPDEST JUMPDEST DIV PUSH1 0xF PUSH1 0x6A DUP11 SWAP1 SHL DUP2 PUSH2 0x125A JUMPI PUSH2 0x1259 PUSH2 0x150A JUMP JUMPDEST JUMPDEST DIV ADD ADD ADD SWAP1 POP PUSH0 NOT PUSH1 0x1 PUSH1 0xB4 SHL PUSH1 0x1 PUSH1 0x4C SHL DUP4 DUP11 MULMOD PUSH0 NOT DUP5 DUP12 MULMOD SUB MULMOD SWAP1 POP PUSH1 0x2 PUSH2 0x12A9 DUP3 DUP5 SUB PUSH32 0x4000000000000000000000000000000000000000000000000000000000000000 DUP5 DUP7 ADD PUSH2 0x1373 JUMP JUMPDEST SWAP1 SHL SWAP2 POP DUP2 DUP3 MUL PUSH0 NOT DUP4 DUP5 MULMOD SUB SWAP2 POP DUP2 DUP3 MUL PUSH0 NOT DUP4 DUP5 MULMOD SUB SWAP2 POP DUP2 DUP3 MUL PUSH0 NOT DUP4 DUP5 MULMOD SUB SWAP2 POP DUP2 DUP3 MUL PUSH0 NOT DUP4 DUP5 MULMOD SUB SWAP2 POP DUP2 DUP3 MUL PUSH0 NOT DUP4 DUP5 MULMOD SUB SWAP2 POP DUP2 DUP3 MUL PUSH0 NOT DUP4 DUP5 MULMOD SUB SWAP2 POP DUP2 DUP3 MUL PUSH0 NOT DUP4 DUP5 MULMOD SUB SWAP2 POP DUP2 DUP3 MUL PUSH0 NOT DUP4 DUP5 MULMOD SUB SWAP2 POP DUP2 DUP3 MUL PUSH0 NOT DUP4 DUP5 MULMOD SUB SWAP2 POP DUP2 DUP3 MUL PUSH0 NOT DUP4 DUP5 MULMOD SUB SWAP2 POP DUP2 DUP3 MUL PUSH0 NOT DUP4 DUP5 MULMOD SUB SWAP2 POP DUP2 DUP3 MUL PUSH0 NOT DUP4 DUP5 MULMOD SUB SWAP2 POP DUP2 DUP3 MUL PUSH0 NOT DUP4 DUP5 MULMOD SUB SWAP2 POP DUP2 DUP3 MUL PUSH0 NOT DUP4 DUP5 MULMOD SUB SWAP2 POP DUP2 SWAP8 POP POP POP POP POP POP POP POP SWAP2 SWAP1 POP JUMP JUMPDEST PUSH0 PUSH0 PUSH0 NOT DUP4 DUP6 MULMOD DUP4 DUP6 MUL SWAP3 POP DUP3 DUP2 LT DUP4 DUP3 SUB SUB SWAP2 POP POP SWAP3 POP SWAP3 SWAP1 POP JUMP JUMPDEST PUSH0 PUSH1 0x1 DUP3 SUB SWAP1 POP DUP1 DUP3 DUP5 DUP7 MULMOD DUP3 SUB DUP3 DUP6 DUP8 MULMOD ADDMOD SWAP1 POP SWAP4 SWAP3 POP POP POP JUMP JUMPDEST PUSH0 PUSH0 REVERT JUMPDEST PUSH0 DUP2 SWAP1 POP SWAP2 SWAP1 POP JUMP JUMPDEST PUSH2 0x13A5 DUP2 PUSH2 0x1393 JUMP JUMPDEST DUP2 EQ PUSH2 0x13AF JUMPI PUSH0 PUSH0 REVERT JUMPDEST POP JUMP JUMPDEST PUSH0 DUP2 CALLDATALOAD SWAP1 POP PUSH2 0x13C0 DUP2 PUSH2 0x139C JUMP JUMPDEST SWAP3 SWAP2 POP POP JUMP JUMPDEST PUSH0 PUSH1 0x20 DUP3 DUP5 SUB SLT ISZERO PUSH2 0x13DB JUMPI PUSH2 0x13DA PUSH2 0x138F JUMP JUMPDEST JUMPDEST PUSH0 PUSH2 0x13E8 DUP5 DUP3 DUP6 ADD PUSH2 0x13B2 JUMP JUMPDEST SWAP2 POP POP SWAP3 SWAP2 POP POP JUMP JUMPDEST PUSH2 0x13FA DUP2 PUSH2 0x1393 JUMP JUMPDEST DUP3 MSTORE POP POP JUMP JUMPDEST PUSH0 PUSH1 0x20 DUP3 ADD SWAP1 POP PUSH2 0x1413 PUSH0 DUP4 ADD DUP5 PUSH2 0x13F1 JUMP JUMPDEST SWAP3 SWAP2 POP POP JUMP JUMPDEST PUSH0 DUP2 SWAP1 POP SWAP2 SWAP1 POP JUMP JUMPDEST PUSH2 0x142B DUP2 PUSH2 0x1419 JUMP JUMPDEST DUP2 EQ PUSH2 0x1435 JUMPI PUSH0 PUSH0 REVERT JUMPDEST POP JUMP JUMPDEST PUSH0 DUP2 CALLDATALOAD SWAP1 POP PUSH2 0x1446 DUP2 PUSH2 0x1422 JUMP JUMPDEST SWAP3 SWAP2 POP POP JUMP JUMPDEST PUSH0 PUSH1 0x20 DUP3 DUP5 SUB SLT ISZERO PUSH2 0x1461 JUMPI PUSH2 0x1460 PUSH2 0x138F JUMP JUMPDEST JUMPDEST PUSH0 PUSH2 0x146E DUP5 DUP3 DUP6 ADD PUSH2 0x1438 JUMP JUMPDEST SWAP2 POP POP SWAP3 SWAP2 POP POP JUMP JUMPDEST PUSH0 DUP2 ISZERO ISZERO SWAP1 POP SWAP2 SWAP1 POP JUMP JUMPDEST PUSH2 0x148B DUP2 PUSH2 0x1477 JUMP JUMPDEST DUP3 MSTORE POP POP JUMP JUMPDEST PUSH0 PUSH1 0x20 DUP3 ADD SWAP1 POP PUSH2 0x14A4 PUSH0 DUP4 ADD DUP5 PUSH2 0x1482 JUMP JUMPDEST SWAP3 SWAP2 POP POP JUMP JUMPDEST PUSH32 0x4E487B7100000000000000000000000000000000000000000000000000000000 PUSH0 MSTORE PUSH1 0x11 PUSH1 0x4 MSTORE PUSH1 0x24 PUSH0 REVERT JUMPDEST PUSH0 PUSH2 0x14E1 DUP3 PUSH2 0x1393 JUMP JUMPDEST SWAP2 POP PUSH2 0x14EC DUP4 PUSH2 0x1393 JUMP JUMPDEST SWAP3 POP DUP3 DUP3 SUB SWAP1 POP DUP2 DUP2 GT ISZERO PUSH2 0x1504 JUMPI PUSH2 0x1503 PUSH2 0x14AA JUMP JUMPDEST JUMPDEST SWAP3 SWAP2 POP POP JUMP JUMPDEST PUSH32 0x4E487B7100000000000000000000000000000000000000000000000000000000 PUSH0 MSTORE PUSH1 0x12 PUSH1 0x4 MSTORE PUSH1 0x24 PUSH0 REVERT INVALID LOG2 PUSH5 0x6970667358 0x22 SLT KECCAK256 0xB4 DUP1 INVALID DUP13 BLOBHASH SWAP2 PUSH16 0x7A5CBAEC4F60EAAA9256EB3E23EA58B6 BLOBBASEFEE 0xAB 0xB5 0xDC NUMBER 0x26 0xB7 DUP12 MOD PUSH5 0x736F6C6343 STOP ADDMOD 0x22 STOP CALLER "
		},
		"gasEstimates": {
			"creation": {
				"codeDepositCost": "1097000",
				"executionCost": "1138",
				"totalCost": "1098138"
			},
			"external": {
				"compareExpInverse(int256)": "infinite",
				"exp_decay(uint256)": "infinite",
				"exp_inverse(int256)": "1844"
			}
		},
		"methodIdentifiers": {
			"compareExpInverse(int256)": "3d563c48",
			"exp_decay(uint256)": "3c0606e5",
			"exp_inverse(int256)": "5710af54"
		}
	},
	"abi": [
		{
			"inputs": [
				{
					"internalType": "X59",
					"name": "_val",
					"type": "int256"
				}
			],
			"name": "compareExpInverse",
			"outputs": [
				{
					"internalType": "bool",
					"name": "",
					"type": "bool"
				}
			],
			"stateMutability": "pure",
			"type": "function"
		},
		{
			"inputs": [
				{
					"internalType": "uint256",
					"name": "_val",
					"type": "uint256"
				}
			],
			"name": "exp_decay",
			"outputs": [
				{
					"internalType": "uint256",
					"name": "",
					"type": "uint256"
				}
			],
			"stateMutability": "pure",
			"type": "function"
		},
		{
			"inputs": [
				{
					"internalType": "X59",
					"name": "_val",
					"type": "int256"
				}
			],
			"name": "exp_inverse",
			"outputs": [
				{
					"internalType": "uint256",
					"name": "",
					"type": "uint256"
				}
			],
			"stateMutability": "pure",
			"type": "function"
		}
	]
}