{
    "contractName": "callDataWrapperCustom",
    "abi": [
        {
            "inputs": [],
            "name": "CurveLengthIsZero",
            "type": "error"
        },
        {
            "inputs": [
                {
                    "internalType": "uint256",
                    "name": "hookDataByteCount",
                    "type": "uint256"
                }
            ],
            "name": "HookDataTooLong",
            "type": "error"
        },
        {
            "inputs": [
                {
                    "internalType": "X47",
                    "name": "poolGrowthPortion",
                    "type": "uint256"
                }
            ],
            "name": "InvalidGrowthPortion",
            "type": "error"
        },
        {
            "inputs": [
                {
                    "internalType": "X59",
                    "name": "qOffset",
                    "type": "int256"
                }
            ],
            "name": "LogOffsetOutOfRange",
            "type": "error"
        },
        {
            "inputs": [
                {
                    "internalType": "uint256",
                    "name": "poolId",
                    "type": "uint256"
                }
            ],
            "name": "PoolExists",
            "type": "error"
        },
        {
            "inputs": [],
            "name": "PoolIdCannotBeZero",
            "type": "error"
        },
        {
            "inputs": [
                {
                    "internalType": "Tag",
                    "name": "tag0",
                    "type": "uint256"
                },
                {
                    "internalType": "Tag",
                    "name": "tag1",
                    "type": "uint256"
                }
            ],
            "name": "TagsOutOfOrder",
            "type": "error"
        },
        {
            "inputs": [],
            "name": "_readInitializeInputCustom",
            "outputs": [
                {
                    "internalType": "uint256",
                    "name": "poolId",
                    "type": "uint256"
                },
                {
                    "internalType": "uint256",
                    "name": "tag0",
                    "type": "uint256"
                },
                {
                    "internalType": "uint256",
                    "name": "tag1",
                    "type": "uint256"
                },
                {
                    "internalType": "uint48",
                    "name": "portion",
                    "type": "uint48"
                },
                {
                    "internalType": "uint16",
                    "name": "kernelPlacement",
                    "type": "uint16"
                },
                {
                    "internalType": "KernelCompact",
                    "name": "kernelCompact",
                    "type": "uint256"
                },
                {
                    "internalType": "uint256",
                    "name": "curvePlacement",
                    "type": "uint256"
                },
                {
                    "internalType": "uint256",
                    "name": "hookDataPlacement",
                    "type": "uint256"
                },
                {
                    "internalType": "uint256",
                    "name": "freeMemoryPointer",
                    "type": "uint256"
                },
                {
                    "internalType": "uint256",
                    "name": "hookDataByteCount",
                    "type": "uint256"
                },
                {
                    "internalType": "uint256",
                    "name": "hookInputByteCount",
                    "type": "uint256"
                },
                {
                    "components": [
                        {
                            "internalType": "bytes32",
                            "name": "curveHash",
                            "type": "bytes32"
                        },
                        {
                            "internalType": "bytes32",
                            "name": "kernelHash",
                            "type": "bytes32"
                        },
                        {
                            "internalType": "bytes32",
                            "name": "hookDataHash",
                            "type": "bytes32"
                        }
                    ],
                    "internalType": "struct ReadInitializeInputTestUtils.hashedBytes",
                    "name": "hashes",
                    "type": "tuple"
                }
            ],
            "stateMutability": "nonpayable",
            "type": "function"
        }
    ],
    "bytecode": "60808060405234601557610669908161001a8239f35b5f80fdfe600436101561000c575f80fd5b5f3560e01c630bedd7ae1461001f575f80fd5b34610114575f3660031901126101145760e06040525f6080525f60a0525f60c0526100486101ca565b60d8516101106106e0519161070051926107f45160d01c936105ef519561060f5161062f519160405198899889956106535160f01c9760a4519960071987890301872086880387208b8a209160805260a05260c052889997959361ffff9365ffffffffffff929d9c9a9896936101c08d019e8d5260208d015260408c01521660608a015216608088015260a087015260c086015260e085015261010084015261012083015261014082015260805161016082015260a0516101808201526101a060c051910152565b0390f35b5f80fd5b1561011f57565b63273c8bc360e11b5f5260045ffd5b156101365750565b63a3a300c760e01b5f5260045260245ffd5b156101505750565b63a2ff8abd60e01b5f5260045260245ffd5b1561016b575050565b633fa491e760e21b5f5260045260245260445ffd5b156101885750565b631f84bbb360e01b5f5260045260245ffd5b156101a157565b630149225b60e31b5f5260045ffd5b156101b85750565b63805cfd4b60e01b5f5260045260245ffd5b6024906101e13360d85160a01c9060601b1760c452565b61028f6102896102026004353360601b5f528060145260345f2060bc1b0190565b61020b8160d852565b610216811515610118565b6102428161023b816f6890d047ad8c870137858a70716b2c6b6010525f5260305f2090565b541561012e565b60b41c5f0b603b1b610260816802cfffffffffffffff198113610148565b61027081602d603c1b8112610148565b61028261027c82610399565b61072052565b5f03610399565b61074052565b6102b4823561029e816106e052565b604435906102ac8261070052565b808211610162565b6102df6064356102cd8165800000000000811115610180565b6107fa5160301c9060d01b176107f452565b610397600860843561038961ffff610808610369846004013560051b6005810460051b908184019a8b926103156108086105ef52565b8260a43591019086820183826004013560051b92610336602085101561019a565b6103408361060f52565b8360c4359501966108108801988387600401359c8d809b01019f01903701903701823761062f52565b61037681838111156101b0565b166106555160101c9060f01b1761065352565b60bb19810160a45201604052565b565b6104026103fc7fcf8e41e6c4d4aa5e9cc597c10cd32eacd30c44f750a8ffdb1a8863dd8f72f0a592602d603c1b036103e76103e06103d983800260251b90565b6003900490565b9160921b90565b600160ff1b8183018101929190910301610613565b60021b90565b808002905f1990800903808002905f1990800903808002905f1990800903808002905f1990800903808002905f1990800903808002905f1990800903808002905f1990800903808002905f1990800903808002905f1990800903808002905f1990800903808002905f1990800903808002905f1990800903808002905f1990800903808002905f1990800903808002905f1990800903808002905f1990800903808002905f1990800903808002905f1990800903808002905f1990800903808002905f1990800903808002905f1990800903808002905f1990800903808002905f1990800903808002905f1990800903808002905f1990800903808002905f1990800903808002905f1990800903808002905f1990800903808002905f1990800903808002905f1990800903808002905f1990800903808002905f1990800903808002905f1990800903808002905f1990800903808002905f1990800903808002905f1990800903808002905f1990800903808002905f1990800903808002905f1990800903808002905f1990800903808002905f1990800903808002905f1990800903808002905f1990800903808002905f1990800903808002905f1990800903808002905f1990800903808002905f1990800903808002905f19908009037f872db9e8ffa9e7d41f2aaf39897b91e4002e70fceed391471fad73d51503772d600160bf1b82099060bf1b030290565b5f198281019283919080600160fe1b850990030191600160fe1b9009089056fea26469706673582212200f70962c0e0af1fb2b65fd47e104b479803c2143f505c456fd384e2b3ff0ec3364736f6c63430008220033",
    "sourcePath": "/home/nikhil/Desktop/one/assisment2026/core/echidna/ReadInitializePositiveAssertionTest.sol",
    "compiler": {
        "name": "solc",
        "version": "0.8.34+commit.80d5c536"
    },
    "functionHashes": {
        "_readInitializeInputCustom()": "0bedd7ae"
    },
    "gasEstimates": {
        "creation": {
            "codeDepositCost": "328200",
            "executionCost": "375",
            "totalCost": "328575"
        },
        "external": {
            "_readInitializeInputCustom()": "infinite"
        }
    }
}