{
    "contractName": "ExpInverseTest",
    "abi": [
        {
            "inputs": [
                {
                    "internalType": "uint64",
                    "name": "seed",
                    "type": "uint64"
                }
            ],
            "name": "expInverse_accuracy_test",
            "outputs": [],
            "stateMutability": "pure",
            "type": "function"
        },
        {
            "inputs": [
                {
                    "internalType": "uint64",
                    "name": "seed",
                    "type": "uint64"
                }
            ],
            "name": "exp_values_test",
            "outputs": [],
            "stateMutability": "pure",
            "type": "function"
        }
    ],
    "bytecode": "608080604052346015576115da908161001a8239f35b5f80fdfe60806040526004361015610011575f80fd5b5f3560e01c80639251281c146100a65763d6f9bcd01461002f575f80fd5b346100a25760203660031901126100a25760043567ffffffffffffffff811681036100a257650100000000006100676100929261020c565b6100796100738261144a565b9161023a565b9081811115610094579061008c916101e4565b106101f1565b005b61009d916101e4565b61008c565b5f80fd5b346100a25760203660031901126100a25760043567ffffffffffffffff811681036100a2576100d49061020c565b6100dd8161144a565b5f198181019082600160c11b7ff1aaddd7742e56d32fb9f997447d9e6314db84884fabab26bf059af9bc20b6090983030181600160c11b7ff1aaddd7742e56d32fb9f997447d9e6314db84884fabab26bf059af9bc20b60909089060281c906101458361023a565b60281c5f84600160401b039412600160401b8512811690600160401b8613901516176101d057600180936101ab9261017f6100929761023a565b60281c91818111156101c15790610195916101e4565b935b818111156101b257906101a9916101e4565b925b11156101f1565b6101bb916101e4565b926101ab565b6101ca916101e4565b93610197565b634e487b7160e01b5f52601160045260245ffd5b919082039182116101d057565b156101f857565b634e487b7160e01b5f52600160045260245ffd5b67ffffffffffffffff80809216061660010167ffffffffffffffff81116101d05767ffffffffffffffff1690565b5f199060018116611428575b600281166113df575b60048116611396575b6008811661134d575b60108116611304575b602081166112b9575b6040811661126e575b60808116611223575b61010081166111d8575b610200811661118d575b6104008116611142575b61080081166110f7575b61100081166110ac575b612000811661105f575b6140008116611012575b6180008116610fc5575b620100008116610f78575b620200008116610f2b575b620400008116610ede575b620800008116610e91575b621000008116610e44575b622000008116610e0f575b624000008116610dda575b628000008116610da5575b63010000008116610d70575b63020000008116610d3b575b63040000008116610d06575b63080000008116610cd1575b63100000008116610c9c575b63200000008116610c67575b63400000008116610c32575b63800000008116610bfd575b6401000000008116610bc8575b6402000000008116610b93575b6404000000008116610b5e575b6408000000008116610b29575b6410000000008116610af4575b6420000000008116610abf575b6440000000008116610a8a575b6480000000008116610a55575b650100000000008116610a20575b6502000000000081166109eb575b6504000000000081166109b6575b650800000000008116610981575b65100000000000811661094c575b652000000000008116610917575b6540000000000081166108e2575b6580000000000081166108ad575b66010000000000008116610878575b66020000000000008116610843575b6604000000000000811661080e575b660800000000000081166107d9575b661000000000000081166107a4575b6620000000000000811661076f575b6640000000000000811661073a575b66800000000000008116610705575b67010000000000000081166106d0575b670200000000000000811661069b575b6704000000000000008116610666575b6708000000000000008116610631575b67100000000000000081166105fc575b67200000000000000081166105c7575b674000000000000000811661058a575b6001603f1b1661055a5790565b7e15fc21041027acbbfcd46780fee71ead23fbcb7f4a81e58767ef801a32c2ef5f19818309910280821091030390565b906001603f1b907f04b0556e084f3d1dfa2bc04cb0ab88f528f9435387c7dd33793561a4b342b9b45f19818309910280821091030391905061054d565b907f22a555477f03973fb6edd5c25a052ae3f0dd961da28ac9959e1329cdbcb21c095f1981830991028082109103039061053d565b907f5e2d58d8b3bcdf1abadec7829054f90dda9805aab56c77333024b9d0a507daed5f1981830991028082109103039061052d565b907f9b4597e37cb04ff3d675a35530cdd767e347bf8ad0e80abbce4ae958610143185f1981830991028082109103039061051d565b907fc75f7cf564105743415cbc9d6368f3b96071095abeaf430dbc067f714a3c17875f1981830991028082109103039061050d565b907fe1eb51276c110c3c3eb1269f2f5d4afabd8029f1b77328d9d41b38c7b22b96be5f198183099102808210910303906104fd565b907ff07d5fde38151e72f18ff03049ac5d7ea18e81673270e30b6a76da7f924bd6a35f198183099102808210910303906104ed565b907ff81fab5445aebc8a58055fcbbb139ae8e0686ad0022ea30aa6272c6f84035f5b5f198183099102808210910303906104dd565b907ffc07f55ff77d2493e885eeaa756ad523135569ad22bfc4bfd6fe09972fc986605f198183099102808210910303906104ce565b907ffe01feab551127cbfe5f89994c44216f70d4017aec234b1fe1d79aef8201f19e5f198183099102808210910303906104bf565b907fff007fd55ffdde38d68f08c257e0ce3f39cd64244ca9510b447cc0144e2b1a835f198183099102808210910303906104b0565b907fff801ffaab554445b04105b043e8f48d37cd6eb44b097ac758de9ec8a7e89a705f198183099102808210910303906104a1565b907fffc007ff555fff777d279e7b87acecdfdd60a6a1f2240f278b268156aa11c98b5f19818309910280821091030390610492565b907fffe001ffeaab55511127d21522f2295b8bc3e72bdf83dfc665624bd38b6095a15f19818309910280821091030390610483565b907ffff0007ffd555fffddde38e2be2d82d549cb030fde4780c8ba5d4c942f9675d85f19818309910280821091030390610474565b907ffff8001fffaaab55544445b0596597f97e261c6d26b1524d2b5fba251b1bed3d5f19818309910280821091030390610465565b907ffffc0007fff5555ffff7777d27cf3cf56f563c8083c3dd14fefee723b7cde5525f19818309910280821091030390610457565b907ffffe0001fffeaaab5555111127d276a76c16c10f9f455507ff4e59eae0b49b745f19818309910280821091030390610449565b907fffff00007fffd5555ffffdddde38e38138152151e6e58f6a0745f31d2b44ffd15f1981830991028082109103039061043b565b907fffff80001ffffaaaab5555444445b05aebaebc8bc8a56de63f19ef8d63ef3e115f1981830991028082109103039061042d565b907fffffc00007ffff55555fffff77777d27d2492493e93e885a4d0b3718299f991c5f1981830991028082109103039061041f565b907fffffe00001ffffeaaaab555551111127d27cbfcbfe5fe5f8986d278883b328105f19818309910280821091030390610411565b907ffffff000007ffffd55555fffffddddde38e38d68d68f08f08c25341efdab8fbb5f19818309910280821091030390610403565b907ffffff800001fffffaaaaab555554444445b05b04104105b05b043e7ccc82d38d5f198183099102808210910303906103f5565b907ffffffc000007fffff555555ffffff777777d27d279e79e7b87b87acec95ea6fb5f198183099102808210910303906103e8565b907ffffffe000001fffffeaaaaab55555511111127d27d21521522f22f2295b7946f5f198183099102808210910303906103db565b907fffffff0000007fffffd555555ffffffdddddde38e38e2be2be2d82d82d549c665f198183099102808210910303906103ce565b907fffffff8000001ffffffaaaaaab55555544444445b05b0596596597f97f97e2615f198183099102808210910303906103c1565b907fffffffc0000007ffffff5555555fffffff7777777d27d27cf3cf3cf56f56f5635f198183099102808210910303906103b4565b907fffffffe0000001ffffffeaaaaaab5555555111111127d27d276a76a76c16c16c5f198183099102808210910303906103a7565b907ffffffff00000007ffffffd5555555fffffffddddddde38e38e381381381521525f1981830991028082109103039061039a565b907ffffffff80000001fffffffaaaaaaab5555555444444445b05b05aebaebaebc8b5f1981830991028082109103039061038d565b907ffffffffc00000007fffffff55555555ffffffff77777777d27d27d24924924935f19818309910280821091030390610381565b907ffffffffe00000001fffffffeaaaaaaab555555551111111127d27d27cbfcbfcb5f19818309910280821091030390610375565b907fffffffff000000007fffffffd55555555ffffffffdddddddde38e38e38d68d685f19818309910280821091030390610369565b907fffffffff800000001ffffffffaaaaaaaab555555554444444445b05b05b041045f1981830991028082109103039061035d565b907fffffffffc000000007ffffffff555555555fffffffff777777777d27d27d279e5f19818309910280821091030390610351565b907fffffffffe000000001ffffffffeaaaaaaaab55555555511111111127d27d27d25f19818309910280821091030390610345565b907ffffffffff0000000007ffffffffd555555555fffffffffddddddddde38e38e385f19818309910280821091030390610339565b907ffffffffff8000000001fffffffffaaaaaaaaab55555555544444444445b05b055f1981830991028082109103039061032d565b907ffffffffffc0000000007fffffffff5555555555ffffffffff7777777777d27d25f19818309910280821091030390610322565b907ffffffffffe0000000001fffffffffeaaaaaaaaab5555555555111111111127d25f19818309910280821091030390610317565b905f197affffffffff80000000002aaaaaaaaaa000000000022222222221c7198209907affffffffff80000000002aaaaaaaaaa000000000022222222221c719028082109103039061030c565b905f197a7fffffffffe000000000055555555554aaaaaaaaaabbbbbbbbbbba198209907a7fffffffffe000000000055555555554aaaaaaaaaabbbbbbbbbbba190280821091030390610301565b905f197a3ffffffffff80000000000aaaaaaaaaaa000000000008888888888198209907a3ffffffffff80000000000aaaaaaaaaaa0000000000088888888881902808210910303906102f6565b905f197a1ffffffffffe0000000000155555555554aaaaaaaaaaaeeeeeeeee198209907a1ffffffffffe0000000000155555555554aaaaaaaaaaaeeeeeeeee1902808210910303906102eb565b905f197a0fffffffffff800000000002aaaaaaaaaaa0000000000022222222198209907a0fffffffffff800000000002aaaaaaaaaaa00000000000222222221902808210910303906102e0565b905f197a07ffffffffffe00000000000555555555554aaaaaaaaaaabbbbbbb198209907a07ffffffffffe00000000000555555555554aaaaaaaaaaabbbbbbb1902808210910303906102d5565b905f197a03fffffffffff800000000000aaaaaaaaaaaa00000000000088888198209907a03fffffffffff800000000000aaaaaaaaaaaa000000000000888881902808210910303906102cb565b905f197a01fffffffffffe000000000001555555555554aaaaaaaaaaaaeeee198209907a01fffffffffffe000000000001555555555554aaaaaaaaaaaaeeee1902808210910303906102c1565b905f1979ffffffffffff8000000000002aaaaaaaaaaaa0000000000002221982099079ffffffffffff8000000000002aaaaaaaaaaaa0000000000002221902808210910303906102b7565b905f19797fffffffffffe0000000000005555555555554aaaaaaaaaaaabb19820990797fffffffffffe0000000000005555555555554aaaaaaaaaaaabb1902808210910303906102ad565b905f19793ffffffffffff8000000000000aaaaaaaaaaaaa000000000000019820990793ffffffffffff8000000000000aaaaaaaaaaaaa00000000000001902808210910303906102a3565b905f19791ffffffffffffe00000000000015555555555554aaaaaaaaaaaa19820990791ffffffffffffe00000000000015555555555554aaaaaaaaaaaa190280821091030390610299565b905f19790fffffffffffff80000000000002aaaaaaaaaaaaa0000000000019820990790fffffffffffff80000000000002aaaaaaaaaaaaa0000000000019028082109103039061028f565b905f197907ffffffffffffe000000000000055555555555554aaaaaaaaaa198209907907ffffffffffffe000000000000055555555555554aaaaaaaaaa190280821091030390610285565b905f197903fffffffffffff80000000000000aaaaaaaaaaaaaa000000000198209907903fffffffffffff80000000000000aaaaaaaaaaaaaa00000000019028082109103039061027c565b905f197901fffffffffffffe0000000000000155555555555554aaaaaaaa198209907901fffffffffffffe0000000000000155555555555554aaaaaaaa190280821091030390610273565b905f1978ffffffffffffff800000000000002aaaaaaaaaaaaaa00000001982099078ffffffffffffff800000000000002aaaaaaaaaaaaaa000000019028082109103039061026a565b905f19787fffffffffffffe00000000000000555555555555554aaaaaa19820990787fffffffffffffe00000000000000555555555555554aaaaaa190280821091030390610261565b905f19783ffffffffffffff800000000000000aaaaaaaaaaaaaaa0000019820990783ffffffffffffff800000000000000aaaaaaaaaaaaaaa00000190280821091030390610258565b905f19781ffffffffffffffe000000000000001555555555555554aaaa19820990781ffffffffffffffe000000000000001555555555555554aaaa19028082109103039061024f565b780fffffffffffffff8000000000000002aaaaaaaaaaaaaaa001199150610246565b808002908180025f19600160801b808386095f19848709030990621eee11605a1b8180025f19838009030469c918000000000000000083046609c000000000008304600f600760681b88020401010193600f66249000000000006a06df920000000000000000600160ff1b9504930491606a1b04010101905f1991600160b41b916910000000000000000000828209915f19910903098082016001600160fe1b03810192600160fe1b92900382019183915f1991908181018286099003010191600160fe1b90090860021b808002905f1990800903808002905f1990800903808002905f1990800903808002905f1990800903808002905f1990800903808002905f1990800903808002905f1990800903808002905f1990800903808002905f1990800903808002905f1990800903808002905f1990800903808002905f1990800903808002905f1990800903808002905f19908009039056fea264697066735822122035eaa4431af66f78d7081991b996fc822f38d0299da38163ffff603fc58e783b64736f6c63430008220033",
    "sourcePath": "/home/nikhil/Desktop/one/assisment2026/core/echidna/ExpInverseTest.sol",
    "compiler": {
        "name": "solc",
        "version": "0.8.34+commit.80d5c536"
    },
    "functionHashes": {
        "expInverse_accuracy_test(uint64)": "d6f9bcd0",
        "exp_values_test(uint64)": "9251281c"
    },
    "gasEstimates": {
        "creation": {
            "codeDepositCost": "1118800",
            "executionCost": "1169",
            "totalCost": "1119969"
        },
        "external": {
            "expInverse_accuracy_test(uint64)": "7238",
            "exp_values_test(uint64)": "infinite"
        }
    }
}