{
    "contractName": "ReadInitializeNegitiveAssertionTest",
    "abi": [
        {
            "inputs": [],
            "stateMutability": "nonpayable",
            "type": "constructor"
        },
        {
            "inputs": [],
            "name": "readInitializeCurveLengthIsZero_test",
            "outputs": [],
            "stateMutability": "nonpayable",
            "type": "function"
        },
        {
            "inputs": [
                {
                    "internalType": "uint256",
                    "name": "x",
                    "type": "uint256"
                }
            ],
            "name": "readInitializeInputLongHookData_test",
            "outputs": [],
            "stateMutability": "nonpayable",
            "type": "function"
        },
        {
            "inputs": [
                {
                    "internalType": "uint256",
                    "name": "x",
                    "type": "uint256"
                },
                {
                    "internalType": "uint8",
                    "name": "offsetSeed",
                    "type": "uint8"
                }
            ],
            "name": "readInitializeInvalidOffsets_test",
            "outputs": [],
            "stateMutability": "nonpayable",
            "type": "function"
        },
        {
            "inputs": [
                {
                    "internalType": "uint256",
                    "name": "tag_0",
                    "type": "uint256"
                },
                {
                    "internalType": "uint256",
                    "name": "tag_1",
                    "type": "uint256"
                }
            ],
            "name": "readInitializeTagsOutOfOrder_test",
            "outputs": [],
            "stateMutability": "nonpayable",
            "type": "function"
        },
        {
            "inputs": [
                {
                    "internalType": "uint256",
                    "name": "x",
                    "type": "uint256"
                }
            ],
            "name": "readIntializeInvalidPortion_test",
            "outputs": [],
            "stateMutability": "nonpayable",
            "type": "function"
        }
    ],
    "bytecode": "60808060405234607d57610acc8181016001600160401b03811183821017606957829161098f833903905ff08015605e575f80546001600160a01b0319166001600160a01b039290921691909117905560405161090d90816100828239f35b6040513d5f823e3d90fd5b634e487b7160e01b5f52604160045260245ffd5b5f80fdfe60806040526004361015610011575f80fd5b5f3560e01c806301369ce91461042a57806314b38232146103ef578063b893b73614610349578063b93557f2146101895763c59e313c14610050575f80fd5b3461018557604036600319011261018557600435602435808211156100b4575f6100b292610097829360018060a01b03845416925f5160206108b85f395f51905f52610746565b9082602083519301915af16100aa610506565b505b15610545565b005b818111156100fd575f80916100e46100b29460018060a01b03845416925f5160206108b85f395f51905f52610746565b9082602083519301915af16100f7610506565b506100ac565b5f19820361014f575f545f5160206108b85f395f51905f52925f198101916001600160a01b031690821161013b576100e45f9384936100b296610746565b634e487b7160e01b5f52601160045260245ffd5b5f545f5160206108b85f395f51905f529260018101916001600160a01b031690821061013b576100e45f9384936100b296610746565b5f80fd5b346101855760403660031901126101855760243560ff811680910361018557604d9006605a0180605a1161013b575f546001600160a01b0316906101d46101ce610598565b5161057b565b6064810180911161013b576101f16101ea6104c4565b518261058b565b906064820180921161013b57610244925f905f19907ff00ff00ff00ff00ff00ff00ff00ff00ff00ff00ff00ff00ff00ff00ff00ff00f9060043560ff60b41b191660b49190911b60ff60b41b161761086b565b9060405161025360a08261048e565b60648152602081019060808036843761026a610598565b9060405161027960a08261048e565b60648152602081018236823761028d6104c4565b906040519261029d60a08561048e565b6064845260208401943686376102b1610560565b9560405198899860208a018d819e51916020839201905e8a019060208201905f8252519283915e016020015f815281516020819301825e01905f8252518092825e015f815281516020819301825e01905f8252518092825e015f815281516020819301825e015f815203601f198101825261032c908261048e565b515a925f8094938194f161033e610506565b50156100b290610545565b3461018557602036600319011261018557658000000000001960043506658000000000010180658000000000011161013b575f546001600160a01b0316905f5160206108b85f395f51905f52906103a16101ce610598565b6064810180911161013b576103b76101ea6104c4565b916064830180931161013b575f197ff00ff00ff00ff00ff00ff00ff00ff00ff00ff00ff00ff00ff00ff00ff00ff00f6102449561086b565b34610185575f366003190112610185576100b25f8061040c610560565b81546001600160a01b03169061009790610424610560565b906105c7565b3461018557602036600319011261018557620100011960043506620100000180620100001161013b575f806100b2926040519060208201526020815261047160408261048e565b81546001600160a01b031690610097906104896104c4565b6105c7565b90601f8019910116810190811067ffffffffffffffff8211176104b057604052565b634e487b7160e01b5f52604160045260245ffd5b604051906104d360608361048e565b6040808352600160208401527ff00ff00ff00ff00ff00ff00ff00ff00f0000000000000000000000000000000090830152565b3d15610540573d9067ffffffffffffffff82116104b05760405191610535601f8201601f19166020018461048e565b82523d5f602084013e565b606090565b1561054c57565b634e487b7160e01b5f52600160045260245ffd5b6040519061056f60408361048e565b602082525f6020830152565b6101440190816101441161013b57565b9190820180921161013b57565b604051906105a760608361048e565b60408083526001602084015269f00ff00ff00ff00ff00f60b01b90830152565b906105d36101ce610598565b906064820180921161013b576105ea83518361058b565b926064840180941161013b575f5160206108b85f395f51905f529360405193602085019563e767563560e01b87526024860152604485017ff00ff00ff00ff00ff00ff00ff00ff00ff00ff00ff00ff00ff00ff00ff00ff00f90525f196064860152608485015f905260a48501610144905260c485015260e484015260e483526106756101048461048e565b60405161068360a08261048e565b60648152608091602082018336823761069a610598565b604051906106a960a08361048e565b60648252602082019286368537604051956106c560a08861048e565b6064875260208701973689376040519a8b9a51809160208d015e8a019060208201905f8252519283915e016020015f815281516020819301825e01905f8252518092825e015f815281516020819301825e01905f8252518092825e015f815281516020819301825e015f815203601f1981018252610743908261048e565b90565b9190916107546101ce610598565b906064820180921161013b5761077261076b6104c4565b518361058b565b926064840180941161013b57610789945f9261086b565b6040519061079860a08361048e565b60648252602082016080803683376107ae610598565b6040516107bc60a08261048e565b6064815260208101833682376107d06104c4565b91604051936107e060a08661048e565b6064855260208501953687376107f4610560565b9660405199898b9a51602081920160208d015e8a019060208201905f8252519283915e016020015f815281516020819301825e01905f8252518092825e015f815281516020819301825e01905f8252518092825e015f815281516020819301825e015f815203601f1981018252610743908261048e565b94939291906040519563e767563560e01b6020880152602487015260448601526064850152608484015261014460a484015260c483015260e482015260e481526107436101048261048e56fef0f0f0f0f0f0f0f0fa7f0f0f0f0f0f0f0f0f0f0f0f0f0f0f0f0f0f0f0f0f0f0fa2646970667358221220877d3690752f325e870b04ca380a946f5e978636020c5c890126f432f08a7cdb64736f6c6343000822003360808060405234601557610ab2908161001a8239f35b5f80fdfe60806040526004361015610011575f80fd5b5f3560e01c806338e59837146100945780636853005d1461008f578063720221f81461008a57806376e9a038146100855780639c3bdba514610080578063d28b2ce71461007b578063e7675635146100765763ed93ed8514610071575f80fd5b6105c1565b610406565b6102c6565b6102a4565b6101e9565b6101bf565b610101565b346100fd575f3660031901126100fd576100b83360d85160a01c9060601b1760c452565b60043560d8526100e96024356100d781658000000000008111156106fc565b6107fa5160301c9060d01b176107f452565b61074460a4526108086040525f61080881a1005b5f80fd5b346100fd575f3660031901126100fd576101253360d85160a01c9060601b1760c452565b60043560d8526101bb6024356101a8610808826004013560051b9261019a61ffff60246005870460051b9687860197866105ef528282604435920191888301938160040135958680950199018c3701823761062f526101878183811115610716565b166106555160101c9060f01b1761065352565b610744810160a45201604052565b6040519182915f8381a182526020820190565b0390f35b346100fd575f3660031901126100fd5760043560d85261074460a4526108086040525f61080881a1005b346100fd575f3660031901126100fd5761020d3360d85160a01c9060601b1760c452565b60043560d85260243561022a8160016001607f1b03811315610730565b610236815f8113610730565b6101085261029c60246044358060040135918291016108283761080861060f5261082861062f5261026c8161ffff811115610716565b61028661ffff82166106555160101c9060f01b1761065352565b610293610764820160a452565b61082801604052565b5f60405181a1005b346100fd575f3660031901126100fd5760043560d85260f86040525f60f881a1005b346100fd575f3660031901126100fd576102ea3360d85160a01c9060601b1760c452565b6102f560043560d852565b60243560026001607f1b031981126103f7575b60016001607f1b0381136103e9575b607f1b6101085261032a60443561012852565b60643560801c60016001607f1b0381116103db575b610354906101085160801c9060801b1760f852565b60743560801c600281116103d3575b610150536103c860246084358060040135918291016108083761038861080861062f52565b6103978161ffff811115610716565b6103b161ffff82166106555160101c9060f01b1761065352565b6103be610744820160a452565b610808016105ef52565b5f60c460a4510181a1005b506002610363565b5060016001607f1b0361033f565b5060016001607f1b03610317565b5060026001607f1b0319610308565b346100fd575f3660031901126100fd5761042a3360d85160a01c9060601b1760c452565b6104d86104d261044b6004353360601b5f528060145260345f2060bc1b0190565b6104548160d852565b61045f81151561074a565b61048b81610484816f6890d047ad8c870137858a70716b2c6b6010525f5260305f2090565b5415610760565b60b41c5f0b603b1b6104a9816802cfffffffffffffff19811361077a565b6104b981602d603c1b811261077a565b6104cb6104c5826107e2565b61072052565b5f036107e2565b61074052565b6104fe6024356104e8816106e052565b604435906104f68261070052565b808211610794565b6105176064356100d781658000000000008111156106fc565b6101bb60246101a860086084356105b361ffff6108086105a6846004013560051b6005810460051b90818401998a926105526108086105ef52565b8260a43591019086820183826004013560051b9261057360208510156107b2565b61057d8361060f52565b8360c4359501966108108801988387600401359c8d809b01019f01903701903701823761062f52565b6101878183811115610716565b60bb19810160a45201604052565b346100fd575f3660031901126100fd576105e53360d85160a01c9060601b1760c452565b61067f6004356105f48160d852565b60b41c5f0b603b1b61064760243561060c8161012852565b6106366001603f1b8483030191610625815f85136107c8565b6801000000000000000083126107c8565b6101005160401c9060c01b1760f852565b61066d6001603f1b6044359261065d8461014852565b83030191610625815f85136107c8565b6101085160401c9060c01b1761010052565b6106c06064356106998160016001607f1b03811315610730565b6106ae8160026001607f1b0319811215610730565b6106ba81801515610730565b61010852565b61029c6024608435806004013591829101610828376106e161080861060f52565b6106ed61082861062f52565b61026c8161ffff811115610716565b156107045750565b631f84bbb360e01b5f5260045260245ffd5b1561071e5750565b63805cfd4b60e01b5f5260045260245ffd5b156107385750565b63c270deb360e01b5f5260045260245ffd5b1561075157565b63273c8bc360e11b5f5260045ffd5b156107685750565b63a3a300c760e01b5f5260045260245ffd5b156107825750565b63a2ff8abd60e01b5f5260045260245ffd5b1561079d575050565b633fa491e760e21b5f5260045260245260445ffd5b156107b957565b630149225b60e31b5f5260045ffd5b156107d05750565b63085a022d60e31b5f5260045260245ffd5b61084b6108457fcf8e41e6c4d4aa5e9cc597c10cd32eacd30c44f750a8ffdb1a8863dd8f72f0a592602d603c1b0361083061082961082283800260251b90565b6003900490565b9160921b90565b600160ff1b8183018101929190910301610a5c565b60021b90565b808002905f1990800903808002905f1990800903808002905f1990800903808002905f1990800903808002905f1990800903808002905f1990800903808002905f1990800903808002905f1990800903808002905f1990800903808002905f1990800903808002905f1990800903808002905f1990800903808002905f1990800903808002905f1990800903808002905f1990800903808002905f1990800903808002905f1990800903808002905f1990800903808002905f1990800903808002905f1990800903808002905f1990800903808002905f1990800903808002905f1990800903808002905f1990800903808002905f1990800903808002905f1990800903808002905f1990800903808002905f1990800903808002905f1990800903808002905f1990800903808002905f1990800903808002905f1990800903808002905f1990800903808002905f1990800903808002905f1990800903808002905f1990800903808002905f1990800903808002905f1990800903808002905f1990800903808002905f1990800903808002905f1990800903808002905f1990800903808002905f1990800903808002905f1990800903808002905f1990800903808002905f1990800903808002905f1990800903808002905f19908009037f872db9e8ffa9e7d41f2aaf39897b91e4002e70fceed391471fad73d51503772d600160bf1b82099060bf1b030290565b5f198281019283919080600160fe1b850990030191600160fe1b9009089056fea2646970667358221220e923d9d189331a549fcfd8ac7788641e4e3408598a233ed170a5a97ec86fe71964736f6c63430008220033",
    "sourcePath": "/home/nikhil/Desktop/one/assisment2026/core/echidna/ReadInitializeNegitiveAssertionTest.sol",
    "compiler": {
        "name": "solc",
        "version": "0.8.34+commit.80d5c536"
    },
    "functionHashes": {
        "readInitializeCurveLengthIsZero_test()": "14b38232",
        "readInitializeInputLongHookData_test(uint256)": "01369ce9",
        "readInitializeInvalidOffsets_test(uint256,uint8)": "b93557f2",
        "readInitializeTagsOutOfOrder_test(uint256,uint256)": "c59e313c",
        "readIntializeInvalidPortion_test(uint256)": "b893b736"
    },
    "gasEstimates": {
        "creation": {
            "codeDepositCost": "463400",
            "executionCost": "infinite",
            "totalCost": "infinite"
        },
        "external": {
            "readInitializeCurveLengthIsZero_test()": "infinite",
            "readInitializeInputLongHookData_test(uint256)": "infinite",
            "readInitializeInvalidOffsets_test(uint256,uint8)": "infinite",
            "readInitializeTagsOutOfOrder_test(uint256,uint256)": "infinite",
            "readIntializeInvalidPortion_test(uint256)": "infinite"
        },
        "internal": {
            "_buildHeader(uint256,uint256,uint256,uint256,uint256,uint256,uint256)": "infinite",
            "_buildPayload(uint256,uint256,uint256,uint256)": "infinite",
            "_buildPayloadInputCurveAndHook(bytes memory,bytes memory)": "infinite",
            "makeInvalidPoolId(uint256,uint8)": "infinite",
            "makeInvalidPortion(uint256)": "infinite",
            "makeLongHookData(uint256)": "infinite"
        }
    }
}